:100000000C942A000C9447000C9447000C94470071
:100010000C9447000C9447000C9431210C94DA3670
:100020000C9447000C9464210C94FE200C94CB207B
:100030000C9447000C948B160C9447000C944700CA
:100040000C9463290C9447000C9447000C944700CF
:100050000C94470011241FBECFE5D8E0DEBFCDBF12
:1000600013E0A0E6B0E0E6E4F9E702C005900D92E7
:10007000AE38B107D9F714E0AEE8B3E001C01D9285
:10008000A637B107E1F70E9488380C94A13C0C9484
:100090000000A0E3B0E0EFE4F0E00C941C39A8E02D
:1000A0004E010894811C911CF401BA2F1192BA954B
:1000B000E9F729833A834B835C836D837E838F8347
:1000C0009887CE010996FC011192AA95E9F7A986B5
:1000D000BA86CB86DC86ED86FE860F87188B298153
:1000E0003A814B815C812DA73EA74FA758AB790180
:1000F0008A018FEF9FEFA0E0B0E0E822F9220A2307
:100100001B231A014424552429853A854B855C8597
:1001100029A73AA74BA75CA759016A01A822B922CF
:10012000CA22DB223A0188249924C601B501A8011C
:1001300097010E94A0386DA37EA38FA398A7C40146
:10014000B3010E94A03869A37AA38BA39CA3C60124
:10015000B501A20191010E94A0387B018C01C4016C
:10016000B3010E94A0385B016C0189A19AA1ABA1E7
:10017000BCA18E0D9F1DA01FB11F89A39AA3ABA385
:10018000BCA32DA13EA14FA158A5CA01AA27BB27F8
:1001900029A13AA14BA15CA1280F391F4A1F5B1F5F
:1001A00029A33AA34BA35CA32E153F054007510793
:1001B00040F480E090E0A1E0B0E0A80EB91ECA1EB5
:1001C000DB1E89A19AA1ABA1BCA19D0144275527A3
:1001D0002A0D3B1D4C1D5D1D2D8F3E8F4F8F58A34B
:1001E0006C01BB24AA248DA19EA1AFA1B8A5A070CB
:1001F000B070A80EB91ECA1EDB1EA98EBA8ECB8E99
:10020000DC8E9A8C8B8C7C8C9E8D6F8D78A1FE0100
:10021000719688E0DF011D928A95E9F72D8B9E8B00
:100220006F8B788F2D853E854F8558896DA57EA56E
:100230008FA598A90E94A0387B018C012D813E8159
:100240004F81588569A57AA58BA59CA50E94A038E9
:10025000E60EF71E081F191F6D897E898F89988DFC
:100260006E0D7F1D801F911F6D8B7E8B8F8B988FE6
:10027000EE892A2D392D482D572D7E2F8F89988D67
:10028000E096E2E10C943839EF92FF920F93DF93FE
:10029000CF93CDB7DEB760970FB6F894DEBF0FBE31
:1002A000CDBFA82F002309F461C07E010894E11C92
:1002B000F11C88E0F70111928A95E9F729833A83C6
:1002C0004B835C836D837E83AF83988780E2801B42
:1002D000E82FFF27E7FDF0954D815E816F817885DE
:1002E000181684F01D861E861F86188A882799276F
:1002F0008E1B9F0B04C076956795579547958A95F9
:10030000D2F728C0202F332727FD3095DB01CA0103
:10031000022E04C0B695A795979587950A94D2F7B3
:100320008D879E87AF87B88B04C0440F551F661F0B
:10033000771FEA95D2F789819A81AB81BC8104C08D
:10034000B695A795979587952A95D2F7482B592B5F
:100350006A2B7B2B49875A876B877C8729853A854F
:100360004B855C856D857E85AF8598898A2F6096E3
:100370000FB6F894DEBF0FBECDBFCF91DF910F91C6
:10038000FF90EF900895EF92FF920F93DF93CF933A
:10039000CDB7DEB760970FB6F894DEBF0FBECDBF06
:1003A000A82F002309F461C07E010894E11CF11C10
:1003B00088E0F70111928A95E9F729833A834B8304
:1003C0005C836D837E83AF83988780E2801BE82FF8
:1003D000FF27E7FDF09549815A816B817C811816D2
:1003E00084F019861A861B861C86882799278E1BFF
:1003F0009F0B04C0440F551F661F771F8A95D2F7C5
:1004000028C0202F332727FD3095DB01CA01022E9B
:1004100004C0880F991FAA1FBB1F0A94D2F78987AF
:100420009A87AB87BC8704C07695679557954795A3
:10043000EA95D2F78D819E81AF81B88504C0880F7F
:10044000991FAA1FBB1F2A95D2F7482B592B6A2B3D
:100450007B2B4D875E876F87788B29853A854B8507
:100460005C856D857E85AF8598898A2F60960FB6ED
:10047000F894DEBF0FBECDBFCF91DF910F91FF90FB
:10048000EF900895EF92FF920F931F937B018C01E1
:1004900020E030E040E05FE40E94031388238CF00A
:1004A000C801B70120E030E040E05FE40E949F1007
:1004B0000E9463139B01AC012050304040405048E3
:1004C00006C0C801B7010E9463139B01AC01B901CA
:1004D000CA011F910F91FF90EF900895AEE5B0E033
:1004E000E4E7F2E00C941C39A8E04E010894811C6A
:1004F000911CF4016A2E11926A94E9F729833A83D8
:100500004B835C836D837E838F839887CE010996AE
:10051000FC011192AA95E9F7A986BA86CB86DC86FA
:10052000ED86FE860F87188B29843A844B845C8481
:10053000ED84FE840F85188969807A808B809C8089
:100540006DA67EA68FA698AA6D807E808F809884E7
:10055000E114F1040105110509F0B3C36214730439
:100560008404950408F03DC100E0201600E0300648
:1005700001E0400600E0500688F41FEF2116310428
:100580004104510439F030F048E0E42EF12C012D03
:10059000112D18C0EE24FF24870114C020E022167C
:1005A00020E0320620E0420621E0520630F038E139
:1005B000E32EF12C012D112D05C020E1E22EF12CAE
:1005C000012D112DD201C1010E2C04C0B695A795A5
:1005D000979587950A94D2F78C519F4FDC012C9107
:1005E00080E290E0A0E0B0E08E199F09A00BB10B73
:1005F0007C018D01E21AF10801091109E114F104ED
:1006000001051105A1F10E2C04C0220C331C441C61
:10061000551C0A94D2F7A40193010E2C04C0220F9A
:10062000331F441F551F0A94D2F780E290E08E19C1
:100630009F096DA47EA48FA498A804C09694879463
:10064000779467948A95D2F7622A732A842A952A26
:10065000ADA4BEA4CFA4D8A804C0AA0CBB1CCC1CBB
:10066000DD1CEA94D2F7ADA6BEA6CFA6D8AA620139
:10067000EE24FF24CDAADEAAEFAAF8AE92018101F2
:100680002070307009AF1AAF2BAF3CAFC401B3017B
:10069000A70196010E94DF387B018C01C401B301E0
:1006A0002DA93EA94FA958AD0E94DF38C901DA0132
:1006B0003C014D01C401B30129AD3AAD4BAD5CAD78
:1006C0000E94A0389B01AC018701FF24EE24ADA459
:1006D000BEA4CFA4D8A8C601AA27BB27570168018A
:1006E000A82AB92ACA2ADB2AA216B306C406D50646
:1006F000E0F408946108710881089108A20CB31C09
:10070000C41CD51CA214B304C404D50470F0A216F2
:10071000B306C406D50648F4089461087108810838
:100720009108A20CB31CC41CD51CA21AB30AC40A9B
:10073000D50AC601B5012DA93EA94FA958AD0E9401
:10074000DF387B018C01C601B5012DA93EA94FA957
:1007500058AD0E94DF38C901DA015C016D01C601A4
:10076000B50129AD3AAD4BAD5CAD0E94A0389B01FF
:10077000AC018701FF24EE248DA59EA5AFA5B8A9E5
:10078000A070B070E82AF92A0A2B1B2BE216F30698
:1007900004071507C0F40894A108B108C108D108DE
:1007A000E20CF31C041D151DE214F30404051505E9
:1007B00050F0E216F3060407150728F40894A10880
:1007C000B108C108D108D30199278827860175018E
:1007D000E82AF92A0A2B1B2BE9AAFAAA0BAB1CABB5
:1007E000CFC4211431044104510471F461E070E07C
:1007F00080E090E020E030E040E050E00E94DF3810
:10080000C901DA011C012D0100E0201600E03006CC
:1008100001E0400600E0500688F41FEF2116310485
:100820004104510431F028F048E050E060E070E00D
:1008300017C040E050E060E070E012C020E02216F7
:1008400020E0320620E0420621E0520628F048E18E
:1008500050E060E070E004C040E150E060E070E033
:10086000D201C101042E04C0B695A795979587952E
:100870000A94D2F78C519F4FDC012C91E0E2EE2ECE
:10088000F12C012D112DD801C701841B950BA60B4E
:10089000B70B821B9109A109B1090097A105B10508
:1008A00061F464015301A218B308C408D50831E00B
:1008B000632E712C812C912C1EC16F968FAF6F9778
:1008C000082E04C0220C331C441C551C0A94D2F779
:1008D000EE2DE81B640153010E2E04C0D694C7947C
:1008E000B794A7940A94D2F7A40193016F960FAC22
:1008F0006F9704C0220F331F441F551F0A94D2F76D
:100900006DA47EA48FA498A80E2E04C096948794FC
:10091000779467940A94D2F784017301E22AF32A48
:10092000042B152BE9A6FAA60BA71CA732018824D5
:100930009924920181012070307021960CAF1DAF77
:100940002EAF3FAF2197C601B501A40193010E94CC
:10095000DF387B018C01C601B501A40193010E941F
:10096000DF38C901DA0125968CAF9DAFAEAFBFAFBE
:100970002597BC01CD0121962CAD3DAD4EAD5FADAF
:1009800021970E94A0389B01AC018701FF24EE242F
:10099000A9A4BAA4CBA4DCA4C601AA27BB275C01E6
:1009A0006D01AE28BF28C02AD12AA216B306C406FC
:1009B000D50660F525966CAD7DAD8EAD9FAD2597C6
:1009C000615070408040904025966CAF7DAF8EAFF7
:1009D0009FAF2597A20CB31CC41CD51CA214B30452
:1009E000C404D50498F0A216B306C406D50670F464
:1009F000615070408040904025966CAF7DAF8EAFC7
:100A00009FAF2597A20CB31CC41CD51CA21AB30A15
:100A1000C40AD50AC601B501A40193010E94DF38BA
:100A20007B018C01C601B501A40193010E94DF384E
:100A3000C901DA013C014D01C401B30121962CAD7D
:100A40003DAD4EAD5FAD21970E94A0389B01AC013A
:100A50008701FF24EE2489A59AA5ABA5BCA5A070AB
:100A6000B07057016801A82AB92ACA2ADB2AA2163F
:100A7000B306C406D506E0F408946108710881083D
:100A80009108A20CB31CC41CD51CA214B304C4044A
:100A9000D50470F0A216B306C406D50648F408942F
:100AA0006108710881089108A20CB31CC41CD51CF4
:100AB0008DA59EA5AFA5B8A96F960FAC6F9704C082
:100AC000880F991FAA1FBB1F0A94D2F78DA79EA754
:100AD000AFA7B8ABA21AB30AC40AD50A2596ECACE4
:100AE000FDAC0EAD1FAD2597D70199278827682A41
:100AF000792A8A2A9B2A82012227332729960CAF3A
:100B00001DAF2EAF3FAF2997A201910140705070E9
:100B10002D962CAF3DAF4EAF5FAF2D97C601B501FF
:100B200029962CAD3DAD4EAD5FAD29970E94DF38C3
:100B30007B018C01C601B50129962CAD3DAD4EADB2
:100B40005FAD29970E94DF38C901DA0161968CAF49
:100B50009DAFAEAFBFAF6197BC01CD012D962CAD5F
:100B60003DAD4EAD5FAD2D970E94A0389B01AC010D
:100B70008701FF24EE24ADA4BEA4CFA4D8A8C6014B
:100B8000AA27BB2757016801A82AB92ACA2ADB2A43
:100B9000A216B306C406D50660F561966CAD7DADB0
:100BA0008EAD9FAD619761507040804090406196DE
:100BB0006CAF7DAF8EAF9FAF6197A20CB31CC41C0E
:100BC000D51CA214B304C404D50498F0A216B3062D
:100BD000C406D50670F46150704080409040619624
:100BE0006CAF7DAF8EAF9FAF6197A20CB31CC41CDE
:100BF000D51CA21AB30AC40AD50AC601B5012996A2
:100C00002CAD3DAD4EAD5FAD29970E94DF387B0125
:100C10008C01C601B50129962CAD3DAD4EAD5FAD41
:100C200029970E94DF38C901DA015C016D01C60114
:100C3000B5012D962CAD3DAD4EAD5FAD2D970E940B
:100C4000A0389B01AC018701FF24EE248DA59EA551
:100C5000AFA5B8A9A070B070E82AF92A0A2B1B2BFF
:100C6000E216F30604071507C0F40894A108B108BA
:100C7000C108D108E20CF31C041D151DE214F30495
:100C80000405150550F0E216F3060407150728F4CD
:100C90000894A108B108C108D1086196ECACFDAC7C
:100CA0000EAD1FAD6197D701992788279601850161
:100CB000082B192B2A2B3B2B09AB1AAB2BAB3CABCC
:100CC00062C26E147F048006910608F451C220E0CF
:100CD000E21620E0F20621E0020720E0120788F485
:100CE0003FEFE316F1040105110531F028F048E06B
:100CF00050E060E070E017C040E050E060E070E07D
:100D000012C040E0E41640E0F40640E0040741E091
:100D1000140728F048E150E060E070E004C040E1D2
:100D200050E060E070E0D801C701042E04C0B69521
:100D3000A795979587950A94D2F78C519F4FDC0120
:100D40002C9130E2A32EB12CC12CD12CD601C5019F
:100D5000841B950BA60BB70B821B9109A109B10946
:100D60000097A105B10589F4E614F70408051905F3
:100D700008F4F2C16DA47EA48FA498A86214730431
:100D80008404950408F0E8C1F3C16E968FAF6E97A6
:100D9000082E04C0EE0CFF1C001F111F0A94D2F78E
:100DA0006A2D681BD201C101062E04C0B695A79515
:100DB000979587950A94D2F75C016D01AE28BF28FC
:100DC000C02AD12AADA2BEA2CFA2D8A672016101CB
:100DD0006E960FAC6E9704C0CC0CDD1CEE1CFF1C95
:100DE0000A94D2F7C9A2DAA2EBA2FCA264015301D1
:100DF000062E04C0D694C794B794A7940A94D2F749
:100E0000D401C3016E960FAC6E9704C0880F991F72
:100E1000AA1FBB1F0A94D2F7EDA4FEA40FA518A920
:100E200004C016950795F794E7946A95D2F73701B1
:100E30004801682A792A8A2A9B2A6D8E7E8E8F8E97
:100E400098A2EDA0FEA00FA118A53801882499242E
:100E5000980187012070307065960CAF1DAF2EAFE2
:100E60003FAF6597C601B501A40193010E94DF3829
:100E70007B018C01C601B501A40193010E94DF38FA
:100E8000C901DA011C012D01C201B10165962CAD29
:100E90003DAD4EAD5FAD65970E94A0389B01AC01A2
:100EA0008701FF24EE24AD8CBE8CCF8CD8A0C60168
:100EB000AA27BB2757016801A82AB92ACA2ADB2A10
:100EC000A216B306C406D50600F508942108310819
:100ED00041085108EDA0FEA00FA118A5AE0CBF1C43
:100EE000C01ED11EAE14BF04C006D10670F0A216FB
:100EF000B306C406D50648F4089421083108410811
:100F00005108AE0CBF1CC01ED11EA21AB30AC40ADF
:100F1000D50AC601B501A40193010E94DF387B0107
:100F20008C01C601B501A40193010E94DF38C901FB
:100F3000DA013C014D01C401B30165962CAD3DAD14
:100F40004EAD5FAD65970E94A0389B01AC01870153
:100F5000FF24EE248D8D9E8DAF8DB8A1A070B07052
:100F600057016801A82AB92ACA2ADB2AA216B306A1
:100F7000C406D50600F50894610871088108910837
:100F80006DA17EA18FA198A5A60EB71EC81ED91E61
:100F9000A616B706C806D90670F0A216B306C40690
:100FA000D50648F408946108710881089108A60ED6
:100FB000B71EC81ED91ED601C501821B930BA40BF8
:100FC000B50B898F9A8FAB8FBC8FD101992788275A
:100FD00064015301A82AB92ACA2ADB2AA9AABAAAF3
:100FE000CBAADCAA860175012FEF3FEF40E050E06D
:100FF000E222F32204231523A601662777276D96A4
:101000004CAF5DAF6EAF7FAF6D97A9A0BAA0CBA07C
:10101000DCA06FEF7FEF80E090E0A622B722C8222D
:10102000D92289A19AA1ABA1BCA11D0144245524B8
:10103000C801B701A60195010E94A03869966CAF5E
:101040007DAF8EAF9FAF6997C801B701A201910133
:101050000E94A0383B014C016D966CAD7DAD8EAD0C
:101060009FAD6D97A60195010E94A0387B018C0170
:101070006D966CAD7DAD8EAD9FAD6D97A20191016A
:101080000E94A0385B016C01A8019701260D371D55
:10109000481D591D69966CAC7DAC8EAC9FAC6997B0
:1010A000C401AA27BB27280F391F4A1F5B1F2E1513
:1010B0003F054007510748F4E12CF12C61E0062F71
:1010C000112DAE0CBF1CC01ED11ECA01AA27BB2702
:1010D000BC01CD016A0D7B1D8C1D9D1D698C7A8C18
:1010E0008B8C9C8C661677068806990640F16615EF
:1010F00077058805990509F043C0D9019927882704
:1011000069962CAD3DAD4EAD5FAD699740705070A6
:10111000820F931FA41FB51F2DA53EA54FA558A94B
:101120006E960FAC6E9704C0220F331F441F551FDD
:101130000A94D2F7281739074A075B0708F509A967
:101140001AA92BA93CA9015010402040304009ABFE
:101150001AAB2BAB3CAB14C066247724430121E0CF
:1011600030E040E050E029AB3AAB4BAB5CAB0BC09E
:1011700066247724430119AA1AAA1BAA1CAA03C031
:10118000662477244301FE01719688E0DF011D92F9
:101190008A95E9F7A9A8BAA8CBA8DCA8A98ABA8A2F
:1011A000CB8ADC8A6D8A7E8A8F8A988E29A93A89B1
:1011B0004B895C89662D7E898F89988DC25ADF4F55
:1011C000E2E10C943839ABE5B0E0E9EEF8E00C94DC
:1011D0001C39A8E04E010894811C911CF4016A2E70
:1011E00011926A94E9F729833A834B835C836D8378
:1011F0007E838F839887CE010996FC011192AA9570
:10120000E9F7A986BA86CB86DC86ED86FE860F874F
:10121000188B29843A844B845C84AD84BE84CF844B
:10122000D88829813A814B815C8169962FAF699773
:101230006A963FAF6A976B964FAF6B976C965FAFAE
:101240006C976C966CAC7DAC8EAC9FAC6C9769AABD
:101250007AAA8BAA9CAA6D817E818F8198853B0199
:101260004C016DAA7EAA8FAA98AEA114B104C10444
:10127000D10409F004C3621473048404950408F0D3
:1012800000C100E0201600E0300601E0400600E06A
:10129000500688F41FEF211631044104510439F03F
:1012A00030F088E0E82EF12C012D112D18C0EE242D
:1012B000FF24870114C040E0241640E0340640E0DB
:1012C000440641E0540630F0B8E1EB2EF12C012D3C
:1012D000112D05C0A0E1EA2EF12C012D112DD20116
:1012E000C1010E2C04C0B695A795979587950A94D1
:1012F000D2F78C519F4FDC012C9180E290E0A0E06E
:10130000B0E08E199F09A00BB10B5C016D01A21A10
:10131000B108C108D108A9AEBAAECBAEDCAEA114FB
:10132000B104C104D10409F43FC069AD062E04C064
:10133000220C331C441C551C0A94D2F7A4019301BF
:10134000062E04C0220F331F441F551F0A94D2F7E4
:1013500080E290E08A199B096C96CCACDDACEEACD7
:10136000FFAC6C9704C0F694E794D794C7948A9521
:10137000D2F787017601E22AF32A042B152BEDAA76
:10138000FEAA0FAB18AF6C968CAD9DADAEADBFADE8
:101390006C9704C0880F991FAA1FBB1F6A95D2F7CC
:1013A00089AB9AABABABBCAB320188249924B201B8
:1013B000A1016070707021964CAF5DAF6EAF7FAFD2
:1013C00021976DA97EA98FA998ADA40193010E94D0
:1013D000DF387B018C016DA97EA98FA998ADA4018E
:1013E00093010E94DF38CA01B90121962CAD3DADB1
:1013F0004EAD5FAD21970E94A0389B01AC018701E3
:10140000FF24EE24A9A8BAA8CBA8DCA8C601AA2765
:10141000BB2757016801A82AB92ACA2ADB2AA216C3
:10142000B306C406D50690F4A20CB31CC41CD51C8C
:10143000A214B304C404D50448F0A216B306C4062B
:10144000D50620F4A20CB31CC41CD51CA21AB30AE6
:10145000C40AD50AC601B501A40193010E94DF3870
:101460007B018C01C601B501A40193010E94DF3804
:10147000CA01B90121962CAD3DAD4EAD5FAD2197AE
:10148000BAC1211431044104510471F461E070E0E7
:1014900080E090E020E030E040E050E00E94DF3863
:1014A000C901DA011C012D0100E0201600E0300620
:1014B00001E0400600E0500688F41FEF21163104D9
:1014C0004104510439F030F068E0E62EF12C012D92
:1014D000112D18C0EE24FF24870114C040E024160B
:1014E00040E0340640E0440641E0540630F058E164
:1014F000E52EF12C012D112D05C040E1E42EF12C3B
:10150000012D112DD201C1010E2C04C0B695A79555
:10151000979587950A94D2F78C519F4FDC012C91B7
:1015200030E2A32EB12CC12CD12CD601C5018E19CD
:101530009F09A00BB10B7C018D01E21AF108010992
:101540001109E9AEFAAE0BAF1CAFE114F1040105CD
:10155000110539F464015301A218B308C408D50871
:10156000E2C0F9AC6896FFAE68970F2C04C0220C5D
:10157000331C441C551C0A94D2F78A2D8F19640120
:101580005301082E04C0D694C794B794A7940A9424
:10159000D2F7A401930104C0220F331F441F551F2B
:1015A000FA94D2F76C966CAC7DAC8EAC9FAC6C9719
:1015B00004C096948794779467948A95D2F78401AF
:1015C0007301E22AF32A042B152BEDA6FEA60FA722
:1015D00018AB320188249924B201A10160707070A7
:1015E00025964CAF5DAF6EAF7FAF2597C601B501B5
:1015F000A40193010E94DF387B018C01C601B50173
:10160000A40193010E94DF38CA01B90125962CADCF
:101610003DAD4EAD5FAD25970E94A0389B01AC015A
:101620008701FF24EE24ADA4BEA4CFA4D8A8C60190
:10163000AA27BB275C016D01AE28BF28C02AD12A8A
:10164000A216B306C406D50690F4A20CB31CC41CA3
:10165000D51CA214B304C404D50448F0A216B306E2
:10166000C406D50620F4A20CB31CC41CD51CA21AB7
:10167000B30AC40AD50AC601B501A40193010E94A8
:10168000DF387B018C01C601B501A40193010E94E2
:10169000DF38CA01B90125962CAD3DAD4EAD5FAD29
:1016A00025970E94A0389B01AC018701FF24EE24FE
:1016B0008DA59EA5AFA5B8A9A070B070570168010F
:1016C000A82AB92ACA2ADB2AA216B306C406D50656
:1016D00090F4A20CB31CC41CD51CA214B304C40403
:1016E000D50448F0A216B306C406D50620F4A20C11
:1016F000B31CC41CD51C6C96ECACFDAC0EAD1FAD80
:101700006C9768960FAC689704C0EE0CFF1C001F26
:10171000111F0A94D2F7E9AAFAAA0BAB1CABA21AC2
:10172000B30AC40AD50A320188249924B201A1015E
:101730006070707029964CAF5DAF6EAF7FAF299728
:10174000C601B501A40193010E94DF387B018C0121
:10175000C601B501A40193010E94DF38CA01B90195
:1017600029962CAD3DAD4EAD5FAD29970E94A038B6
:101770009B01AC018701FF24EE24A9A8BAA8CBA83D
:10178000DCA8C601AA27BB2757016801A82AB92AE5
:10179000CA2ADB2AA216B306C406D50690F4A20C08
:1017A000B31CC41CD51CA214B304C404D50448F053
:1017B000A216B306C406D50620F4A20CB31CC41CA2
:1017C000D51CA21AB30AC40AD50AC601B501A401E0
:1017D00093010E94DF387B018C01C601B501A40191
:1017E00093010E94DF38CA01B90129962CAD3DADA5
:1017F0004EAD5FAD29970E94A0389B01AC018701D7
:10180000FF24EE2489A99AA9ABA9BCA9A070B07045
:10181000E82AF92A0A2B1B2BE216F3060407150700
:1018200090F4E20CF31C041D151DE214F3040405EE
:10183000150548F0E216F3060407150720F4E20C3C
:10184000F31C041D151DE21AF30A040B150BD80135
:10185000C70109AC04C0B695A795979587950A94DA
:10186000D2F7898B9A8BAB8BBC8B1D8A1E8A1F8A01
:10187000188E282F3A894B895C896D890CC36A14AC
:101880007B048C049D0408F409C300E0A01600E06A
:10189000B00601E0C00600E0D00688F41FEFA116F4
:1018A000B104C104D10439F030F028E0E22EF12C6B
:1018B000012D112D18C0EE24FF24870114C040E033
:1018C000A41640E0B40640E0C40641E0D40630F07F
:1018D00098E1E92EF12C012D112D05C080E1E82EB3
:1018E000F12C012D112DD601C5010E2C04C0B69589
:1018F000A795979587950A94D2F78C519F4FDC0155
:101900002C9180E290E0A0E0B0E08E199F09A00B3E
:10191000B10B821B9109A109B1090097A105B1057D
:1019200009F04FC0A614B704C804D90458F06C9647
:10193000ECACFDAC0EAD1FAD6C97E214F3040405E6
:10194000150568F16C96ECACFDAC0EAD1FAD6C9757
:10195000E218F30804091509A40193012A193B09A7
:101960004C095D09AA24BB2465016C966CAD7DAD64
:101970008EAD9FAD6C976E157F058007910728F49B
:10198000B1E0AB2EB12CC12CD12CDA01C9018A19DE
:101990009B09AC09BD098DAB9EABAFABB8AFE98A73
:1019A000FA8A0B8B1C8B6DA87EA88FA898AC6D8AC9
:1019B0007E8A8F8A988E2E2D3A894B895C896DA9F3
:1019C0006AC267968FAF6797A6019501082E04C07B
:1019D000220F331F441F551F0A94D2F7A0E2AA2EEC
:1019E000A81A6696AFAE6697D201C10104C0B6953B
:1019F000A79597958795AA94D2F76C017D01C22A85
:101A0000D32AE42AF52AC9A6DAA6EBA6FCA6820107
:101A1000710167960FAC679704C0EE0CFF1C001FA6
:101A2000111F0A94D2F7EDA2FEA20FA318A764011A
:101A3000530166960FAC669704C0D694C794B794CA
:101A4000A7940A94D2F7A401930167960FAC679705
:101A500004C0220F331F441F551F0A94D2F76C96FF
:101A60008CAD9DADAEADBFAD6C9766960FAC669775
:101A700004C0B695A795979587950A94D2F73C012F
:101A80004D01622A732A842A952A69A27AA28BA21E
:101A90009CA26C96ECACFDAC0EAD1FAD6C9767963E
:101AA0000FAC679704C0EE0CFF1C001F111F0A94B7
:101AB000D2F7ED8EFE8E0F8F18A349A55AA56BA500
:101AC0007CA53B0188249924607070702D964CAFE2
:101AD0005DAF6EAF7FAF2D97C601B501A401930135
:101AE0000E94DF387B018C01C601B501A40193017E
:101AF0000E94DF38C901DA011C012D01C201B101C8
:101B00002D962CAD3DAD4EAD5FAD2D970E94A0380A
:101B10009B01AC018701FF24EE24A9A0BAA0CBA0B1
:101B2000DCA0C601AA27BB2757016801A82AB92A49
:101B3000CA2ADB2AA216B306C406D50600F5089405
:101B40002108310841085108E9A4FAA40BA51CA5F5
:101B5000AE0CBF1CC01ED11EAE14BF04C006D10601
:101B600070F0A216B306C406D50648F408942108FE
:101B7000310841085108AE0CBF1CC01ED11EA21A6C
:101B8000B30AC40AD50AC601B501A40193010E9493
:101B9000DF387B018C01C601B501A40193010E94CD
:101BA000DF38C901DA013C014D01C401B3012D96B2
:101BB0002CAD3DAD4EAD5FAD2D970E94A0389B0181
:101BC000AC018701FF24EE2489A19AA1ABA1BCA19D
:101BD000A070B07057016801A82AB92ACA2ADB2A66
:101BE000A216B306C406D50600F50894610871086C
:101BF0008108910869A57AA58BA59CA5A60EB71E9C
:101C0000C81ED91EA616B706C806D90670F0A216B9
:101C1000B306C406D50648F4089461087108810823
:101C20009108A60EB71EC81ED91ED601C501821B7B
:101C3000930BA40BB50B898F9A8FAB8FBC8FD101FF
:101C40009927882784017301E82AF92A0A2B1B2B7C
:101C50004FEFA42E4FEFB42EC12CD12CAE20BF20BD
:101C6000C022D1227801002711276DA07EA08FA06D
:101C700098A44FEF5FEF60E070E064227522862247
:101C800097228DA19EA1AFA1B8A5BD018827992754
:101C900065966CAF7DAF8EAF9FAF6597C601B501FE
:101CA000A40193010E94A03861966CAF7DAF8EAF06
:101CB0009FAF6197C601B50165962CAD3DAD4EADA8
:101CC0005FAD65970E94A0381B012C01C801B701C8
:101CD000A40193010E94A0385B016C01C801B70107
:101CE00065962CAD3DAD4EAD5FAD65970E94A038B9
:101CF0007B018C01A6019501220D331D441D551D4C
:101D000061966CAC7DAC8EAC9FAC6197C401AA2788
:101D1000BB27280F391F4A1F5B1F2A153B054C059F
:101D20005D0548F4812C912CE1E0AE2EB12CE80C3D
:101D3000F91C0A1D1B1DCA01AA27BB2757016801F0
:101D4000A80EB91ECA1EDB1EA901332722276196E1
:101D50008CAD9DADAEADBFAD6197A070B070280FDA
:101D6000391F4A1F5B1FE98CFA8C0B8D1C8DEA14FE
:101D7000FB040C051D0570F0AE14BF04C006D106AF
:101D800069F56D8D7E8D8F8D98A16217730784071D
:101D9000950720F5DA01C9016DA07EA08FA098A457
:101DA00086199709A809B909E9A4FAA40BA51CA5E5
:101DB000AE18BF08C00AD10AEE24FF2487012817F5
:101DC00039074A075B0728F421E0E22EF12C012DA8
:101DD000112DAE18BF08C00AD10A02C0DA01C9012C
:101DE0006D8C7E8C8F8C98A0681A790A8A0A9B0A5F
:101DF000498D5A8D6B8D7C8D4A195B096C097D0963
:101E00005A016B012224332421016D8D7E8D8F8D2B
:101E100098A1661577058805990528F481E0282E94
:101E2000312C412C512C86017501E218F30804096C
:101E30001509A801970166960FAC669704C0220F9A
:101E4000331F441F551F0A94D2F7D401C30167966C
:101E50000FAC679704C0B695A795979587950A9498
:101E6000D2F7282B392B4A2B5B2B298B3A8B4B8BA8
:101E70005C8B67960FAC679704C016950795F7942F
:101E8000E7940A94D2F7ED8AFE8A0F8B188F3A896D
:101E90004B895C896E2D7E898F89988DC55ADF4F5D
:101EA000E2E10C943839A0E0B0E0E9E5FFE00C9401
:101EB0001C39DC012B01FA019C91923008F439C1E4
:101EC000EB018881823008F433C1943069F48430A6
:101ED00009F02FC111969C9111978981981709F4E7
:101EE00028C1ACEDB0E025C1843009F421C18230B5
:101EF000A9F4923009F01DC19A01AD0188E0EA0110
:101F00000990AE01E90109929E018150C1F7E201F9
:101F1000898111969C918923818308C1923009F4AB
:101F200007C112962D903C901397EB018A819B81FB
:101F30001496AD90BD90CD90DC901797EC80FD800D
:101F40000E811F819101281B390BB90137FF04C095
:101F500066277727621B730B603271050CF061C036
:101F6000121613066CF537014801062E04C096942C
:101F70008794779467940A94D2F721E030E040E0A8
:101F800050E004C0220F331F441F551F6A95D2F73B
:101F900021503040404050402E213F2140235123CA
:101FA000211531054105510521F021E030E040E0E7
:101FB00050E079018A01E628F728082919293CC050
:101FC000232BD1F1260E371E35014601062E04C003
:101FD00096948794779467940A94D2F721E030E03E
:101FE00040E050E004C0220F331F441F551F6A9584
:101FF000D2F721503040404050402A213B214C2113
:102000005D21211531054105510521F021E030E028
:1020100040E050E059016A01A628B728C828D9280D
:102020000BC0821593052CF01C01AA24BB2465016A
:1020300003C0EE24FF24870111969C91D2011196D2
:102040008C91981709F445C0992339F0A80197019C
:102050002A193B094C095D0906C0A60195012E19F4
:102060003F09400B510B57FD08C011823382228279
:1020700024833583468357831DC081E08183338267
:10208000228288279927DC01821B930BA40BB50BB6
:1020900084839583A683B7830DC0220F331F441F0B
:1020A000551F24833583468357838281938101970B
:1020B000938382832481358146815781DA01C90166
:1020C0000197A109B1098F5F9F4FAF4FBF4328F31D
:1020D0000BC0918333822282EA0CFB1C0C1D1D1D58
:1020E000E482F5820683178383E08083248135812F
:1020F0004681578157FF1AC0C901AA2797FDA095AD
:10210000BA2F81709070A070B07056954795379532
:102110002795822B932BA42BB52B84839583A683A1
:10212000B78382819381019693838283DF0101C00B
:10213000D201CD01CDB7DEB7E2E10C943839A0E28F
:10214000B0E0E5EAF0E10C94283969837A838B8367
:102150009C832D833E834F835887E9E0EE2EF12C3C
:10216000EC0EFD1ECE010196B7010E9454158E01A2
:102170000F5E1F4FCE010596B8010E9454158A8943
:1021800091E089278A8BC701B801AE01475E5F4F96
:102190000E94530F0E947F14A096E6E00C944439ED
:1021A000A0E2B0E0E6EDF0E10C94283969837A838F
:1021B0008B839C832D833E834F835887F9E0EF2EDA
:1021C000F12CEC0EFD1ECE010196B7010E945415B4
:1021D0008E010F5E1F4FCE010596B8010E94541567
:1021E000C701B801AE01475E5F4F0E94530F0E94C6
:1021F0007F14A096E6E00C944439A0E2B0E0E3E05E
:10220000F1E10C941C3969837A838B839C832D8341
:102210003E834F835887CE010196BE01675F7F4F93
:102220000E945415CE010596BE016F5E7F4F0E943D
:1022300054159985923088F089898230C8F094309D
:1022400019F4823051F404C0843029F4923081F4BE
:102250008CED90E0C6C0923049F420E09A858A89DE
:10226000981321E02A87CE010996BBC0823049F439
:1022700020E09A858A89981321E02A8BCE01419625
:10228000B0C02D843E844F8458886D887E888F88A6
:10229000988CEE24FF248701AA24BB24650140E02A
:1022A00050E060E070E0E0E0F0E0C101817090702B
:1022B000892BE9F0E60CF71C081D191D9A01AB01EA
:1022C0002A0D3B1D4C1D5D1D80E090E0A0E0B0E0BC
:1022D000E614F7040805190520F481E090E0A0E079
:1022E000B0E0BA01A901480F591F6A1F7B1FAA0C51
:1022F000BB1CCC1CDD1C97FE08C081E090E0A0E078
:10230000B0E0A82AB92ACA2ADB2A3196E032F105C0
:1023100049F0660C771C881C991C56944794379496
:102320002794C3CFFA85EA892B893C898B859C85C4
:10233000280F391F2E5F3F4F17C0CA018170907060
:10234000892B61F016950795F794E79480E090E06B
:10235000A0E0B0E8E82AF92A0A2B1B2B76956795AE
:10236000579547952F5F3F4F77FDE7CF0CC0440F40
:10237000551F661F771F17FD4160EE0CFF1C001FE5
:10238000111F21503040403090E0590790E069071C
:1023900090E4790760F32B8F3C8FDB01CA018F77C4
:1023A0009070A070B07080349105A105B10561F402
:1023B00047FD0AC0E114F1040105110529F0405C54
:1023C0005F4F6F4F7F4F40781A8EFE1711F081E0FC
:1023D0008A8F4D8F5E8F6F8F78A383E0898FCE01B8
:1023E00049960E947F14A096E2E10C943839A8E146
:1023F000B0E0EDEFF1E10C94243969837A838B83AB
:102400009C832D833E834F835887B9E0EB2EF12CBC
:10241000EC0EFD1ECE010196B7010E9454158E01EF
:102420000F5E1F4FCE010596B8010E9454152985F5
:10243000223008F47EC03989323010F4B8017CC0F3
:102440008A859A8989278A87243011F0223031F4CD
:10245000231709F06EC06CED70E06EC0343039F4B3
:102460001D861E861F86188A1C861B8604C0323075
:1024700021F484E08987B7015FC02B853C858B8977
:102480009C89281B390B3C872B87ED84FE840F85A4
:102490001889AD88BE88CF88D88CEA14FB040C0557
:1024A0001D0540F4EE0CFF1C001F111F2150304091
:1024B0003C872B8720E030E040E050E080E090E077
:1024C000A0E0B0E460E070E0EA14FB040C051D0538
:1024D00040F0282B392B4A2B5B2BEA18FB080C0900
:1024E0001D09B695A79597958795EE0CFF1C001FC3
:1024F000111F6F5F7F4F6F31710531F7DA01C9012D
:102500008F779070A070B07080349105A105B105EF
:1025100061F427FD0AC0E114F1040105110529F059
:10252000205C3F4F4F4F5F4F20782D873E874F876E
:10253000588BBE01675F7F4FCB010E947F14689666
:10254000EAE00C944039A8E1B0E0E9EAF2E10C9449
:10255000283969837A838B839C832D833E834F83C1
:10256000588789E0E82EF12CEC0EFD1ECE01019675
:10257000B7010E9454158E010F5E1F4FCE010596C4
:10258000B8010E9454158985823040F089898230D3
:1025900028F0C701B8010E94CC1501C081E06896FF
:1025A000E6E00C944439A8E1B0E0E9EDF2E10C94E6
:1025B000283969837A838B839C832D833E834F8361
:1025C000588789E0E82EF12CEC0EFD1ECE01019615
:1025D000B7010E9454158E010F5E1F4FCE01059664
:1025E000B8010E9454158985823040F08989823073
:1025F00028F0C701B8010E94CC1501C08FEF689682
:10260000E6E00C944439A8E1B0E0E9E0F3E10C9491
:10261000283969837A838B839C832D833E834F8300
:10262000588789E0E82EF12CEC0EFD1ECE010196B4
:10263000B7010E9454158E010F5E1F4FCE01059603
:10264000B8010E9454158985823040F08989823012
:1026500028F0C701B8010E94CC1501C08FEF689621
:10266000E6E00C944439A8E1B0E0E9E3F3E10C942E
:10267000283969837A838B839C832D833E834F83A0
:10268000588789E0E82EF12CEC0EFD1ECE01019654
:10269000B7010E9454158E010F5E1F4FCE010596A3
:1026A000B8010E9454158985823040F089898230B2
:1026B00028F0C701B8010E94CC1501C081E06896DE
:1026C000E6E00C944439ACE0B0E0E9E6F3E10C94C8
:1026D0002C3969837A838B839C83CE010196BE015A
:1026E0006B5F7F4F0E9454158D81823061F1823083
:1026F00050F1843021F48E81882351F12EC02F8136
:10270000388537FD20C06E812F3131051CF06623DE
:10271000F9F023C08EE190E0821B930B29853A8566
:102720004B855C8504C056954795379527958A95C6
:10273000D2F76623B1F050954095309521953F4FE3
:102740004F4F5F4F0EC020E030E040E050E009C046
:102750002FEF3FEF4FEF5FE704C020E030E040E0B5
:1027600050E8B901CA012C96E2E00C944839A8E07F
:10277000B0E0EDEBF3E10C9424397B018C016115A1
:1027800071058105910519F482E0898360C083E0B9
:1027900089838EE1C82ED12CDC82CB82ED82FE8231
:1027A0000F831887C801B7010E943014FC013197CC
:1027B000F7FF3BC0222733272E1B3F0B5701680131
:1027C000022E04C0D694C794B794A7940A94D2F763
:1027D00040E050E060E070E081E090E0A0E0B0E038
:1027E00004C0880F991FAA1FBB1F2A95D2F7019713
:1027F000A109B1098E219F21A023B1230097A10532
:10280000B10521F041E050E060E070E04A295B2929
:102810006C297D294D835E836F8378878EE190E0FC
:102820008E1B9F0B9C838B8312C0309781F00E2EE2
:1028300004C0EE0CFF1C001F111F0A94D2F7ED829A
:10284000FE820F831887CE1ADF0ADC82CB821A82BF
:10285000CE0101960E947F142896EAE00C9440393C
:10286000EF92FF920F931F937B018C0180E0E8169B
:1028700080E0F80681E0080780E0180788F48FEF11
:10288000E816F1040105110531F028F088E090E028
:10289000A0E0B0E017C080E090E0A0E0B0E012C09F
:1028A00080E0E81680E0F80680E0080781E018077D
:1028B00028F088E190E0A0E0B0E004C080E190E082
:1028C000A0E0B0E020E230E040E050E0281B390B0F
:1028D0004A0B5B0B04C016950795F794E7948A950D
:1028E000D2F7F701EC51FF4F8081281B31094109D4
:1028F0005109C9011F910F91FF90EF900895DF9248
:10290000EF92FF920F931F93FC01E480F580068104
:102910001781D1808081823048F480E090E0A0E18E
:10292000B0E0E82AF92A0A2B1B2BA5C0843009F451
:102930009FC0823021F4EE24FF24870105C0E114FA
:10294000F1040105110519F4E0E0F0E096C06281A0
:1029500073819FEF623879070CF05BC022E83FEF8C
:10296000261B370B2A3131052CF020E030E040E007
:1029700050E02AC0B801A701022E04C076956795E1
:10298000579547950A94D2F781E090E0A0E0B0E037
:1029900004C0880F991FAA1FBB1F2A95D2F7019761
:1029A000A109B1098E219F21A023B1230097A10580
:1029B000B10521F081E090E0A0E0B0E09A01AB0128
:1029C000282B392B4A2B5B2BDA01C9018F779070AA
:1029D000A070B07080349105A105B10539F427FFCE
:1029E00009C0205C3F4F4F4F5F4F04C0215C3F4FF9
:1029F0004F4F5F4FE0E0F0E02030A0E03A07A0E06A
:102A00004A07A0E45A0710F0E1E0F0E079018A01FA
:102A100027C06038710564F5FB01E158FF4FD8010C
:102A2000C7018F779070A070B07080349105A105B8
:102A3000B10539F4E7FE0DC080E490E0A0E0B0E01D
:102A400004C08FE390E0A0E0B0E0E80EF91E0A1F9A
:102A50001B1F17FF05C016950795F794E79431964D
:102A600087E016950795F794E7948A95D1F705C006
:102A7000EE24FF248701EFEFF0E06E2F67956627C5
:102A80006795902F9F77D794DD24D7948E2F8695C6
:102A9000492F462B582F5D29B701CA011F910F916D
:102AA000FF90EF90DF900895FC01DB0140815181A0
:102AB0002281622F6F7770E0221F2227221F9381CD
:102AC000892F880F822B282F30E0991F9927991F73
:102AD00011969C93119721153105A9F541155105C2
:102AE0006105710511F482E037C082E89FEF13960B
:102AF0009C938E9312979A01AB0167E0220F331FCC
:102B0000441F551F6A95D1F783E08C930DC0220FA7
:102B1000331F441F551F12968D919C911397019757
:102B200013969C938E931297203080E0380780E0B4
:102B3000480780E4580758F314962D933D934D931E
:102B40005C93179708952F3F310579F4411551058E
:102B50006105710519F484E08C93089564FF03C046
:102B600081E08C9312C01C9210C02F5730401396F6
:102B70003C932E93129783E08C9387E0440F551F6C
:102B8000661F771F8A95D1F7706414964D935D93F5
:102B90006D937C93179708951F93DC01FB019C9123
:102BA000923008F447C08081823008F443C09430EA
:102BB00051F411961C91843099F58181682F70E051
:102BC000611B71093FC0843021F0923031F48230B2
:102BD000B9F18181882389F12DC011961C9111973B
:102BE0008230F1F081811817D9F412962D913C9121
:102BF0001397828193818217930794F028173907DE
:102C0000BCF014968D919D910D90BC91A02D2481C6
:102C1000358146815781281739074A075B0718F421
:102C2000112341F00AC082179307A407B50740F4A7
:102C3000112319F061E070E005C06FEF7FEF02C073
:102C400060E070E0CB011F910895DF93CF93CDB783
:102C5000DEB780919203CF91DF910895DF93CF93F8
:102C600000D000D0CDB7DEB769837A838B839C8395
:102C7000E0E4F0E080E88083EAE2F0E01082A0E4A3
:102C8000B0E0E0E4F0E090818A81892B8C93A0E4AD
:102C9000B0E0E0E4F0E090818C81892B8C938B8113
:102CA000803241F4A0E4B0E0E0E4F0E080818062B2
:102CB0008C9311C08B81803371F4A0E4B0E0E0E428
:102CC000F0E0808180618C93A0E4B0E0E0E4F0E08B
:102CD000808180628C93E9E2F0E089818083AAE2BE
:102CE000B0E0EAE2F0E0808188608C93AAE2B0E094
:102CF000EAE2F0E0808180618C93AAE2B0E0EAE24F
:102D0000F0E0808180688C930F900F900F900F906F
:102D1000CF91DF9108951F920F920FB60F92112459
:102D20008F939F93EF93FF93DF93CF930F92CDB742
:102D3000DEB7ECE2F0E08081898380919003882FF8
:102D400090E0FC01E755FC4F8981808380919003DE
:102D50008F5F8093900380919003853610F01092DE
:102D60009003809192038F5F8093920380919203EE
:102D7000853618F084E6809392030F90CF91DF910F
:102D8000FF91EF919F918F910F900FBE0F901F9029
:102D90001895DF93CF930F92CDB7DEB78091910353
:102DA000882F90E0FC01E755FC4F8081898380915A
:102DB0009203882329F0809192038150809392039B
:102DC000809191038F5F8093910380919103853669
:102DD00010F01092910389810F90CF91DF910895A7
:102DE000DF93CF930F92CDB7DEB78983EBE2F0E0AC
:102DF0008081829586958770882F90E08170907091
:102E00000097A1F3ECE2F0E0898180830F90CF91ED
:102E1000DF910895DF93CF9300D0CDB7DEB79A83CB
:102E200089830AC0E981FA8180810E94F016898134
:102E30009A8101969A838983E981FA818081882326
:102E400089F70F900F90CF91DF910895DF93CF9383
:102E500000D000D00F92CDB7DEB79C838B836D83FB
:102E60001A8219820FC029813A818B819C81FC01D1
:102E7000E20FF31F80810E94F01689819A810196EA
:102E80009A8389838D81282F30E089819A818217E6
:102E900093074CF30F900F900F900F900F90CF91DE
:102EA000DF910895EF92FF920F931F93DF93CF93DB
:102EB000CDB7DEB728970FB6F894DEBF0FBECDBFF3
:102EC00098878F8360E074E284EF90E00E9405377A
:102ED0001E821D820E944B37AA2797FDA095BA2F0C
:102EE00089839A83AB83BC8389819A81AB81BC81BE
:102EF0000F2EF0EDEF2EF7E0FF2EF0E00F2FF0E0B9
:102F00001F2FF02DE80EF91E0A1F1B1F0E944B37C2
:102F1000AA2797FDA095BA2FE816F9060A071B07FE
:102F200004F11AC02D813E818F8198858C01020F9A
:102F3000131F0E94C916F80180832D813E818F8165
:102F40009885FC01E20FF31F8081882329F08D8191
:102F50009E8101969E838D8380919203882311F731
:102F6000C3CF8D819E812F813885F901E80FF91F2C
:102F7000108228960FB6F894DEBF0FBECDBFCF915A
:102F8000DF911F910F91FF90EF900895DF93CF9302
:102F900000D00F92CDB7DEB789838981282F30E02A
:102FA0003B832A838A819B818130910599F12A8113
:102FB0003B81223031052CF48A819B81009761F09E
:102FC00047C02A813B8122303105A9F08A819B814B
:102FD0008330910571F13CC0A3E5B0E0E3E5F0E09A
:102FE0008081877F8C93A3E5B0E0E3E5F0E080810A
:102FF0008F7B8C933BC0A3E5B0E0E3E5F0E08081FC
:103000008F7B8C93A3E5B0E0E3E5F0E080818860FE
:103010008C932CC0A3E5B0E0E3E5F0E08081806410
:103020008C93A3E5B0E0E3E5F0E08081877F8C93AB
:103030001DC0A3E5B0E0E3E5F0E0808180648C93FF
:10304000A3E5B0E0E3E5F0E0808188608C930EC0FA
:10305000A3E5B0E0E3E5F0E08081877F8C93A3E512
:10306000B0E0E3E5F0E080818F7B8C930F900F90D0
:103070000F90CF91DF910895DF93CF9300D00F92FF
:10308000CDB7DEB789838981282F30E03B832A833F
:103090008A819B818230910509F45DC02A813B8140
:1030A000233031055CF48A819B810097C1F02A812D
:1030B0003B812130310509F43FC06BC08A819B817F
:1030C0008430910551F12A813B81243031050CF483
:1030D00051C08A819B818530910581F05AC0A3E55A
:1030E000B0E0E3E5F0E080818F7E8C93A3E5B0E073
:1030F000E3E5F0E080818F7D8C9359C0A3E5B0E0DB
:10310000E3E5F0E080818F7E8C93A3E5B0E0E3E51A
:10311000F0E0808180628C934AC0A3E5B0E0E3E5F3
:10312000F0E0808180618C93A3E5B0E0E3E5F0E01E
:10313000808180628C933BC0A3E5B0E0E3E5F0E0E2
:10314000808180618C93A3E5B0E0E3E5F0E08081CD
:103150008F7D8C932CC0A3E5B0E0E3E5F0E08081A7
:103160008F7E8C93A3E5B0E0E3E5F0E080818062A0
:103170008C931DC0A3E5B0E0E3E5F0E080818061C1
:103180008C93A3E5B0E0E3E5F0E0808180628C936E
:103190000EC0A3E5B0E0E3E5F0E080818F7E8C9384
:1031A000A3E5B0E0E3E5F0E080818F7D8C930F90A4
:1031B0000F900F90CF91DF910895DF93CF9300D0C0
:1031C00000D00F92CDB7DEB749835A836B837C83DF
:1031D0008D8389810E94C6178A810E943C188C8148
:1031E000882F90E08130910541F4A9E5B0E0E9E550
:1031F000F0E0808181608C9307C0A9E5B0E0E9E54B
:10320000F0E080818E7F8C938D81882F90E08130DB
:10321000910541F4A9E5B0E0E9E5F0E08081826044
:103220008C9307C0A9E5B0E0E9E5F0E080818D7FEF
:103230008C930F900F900F900F900F90CF91DF9184
:103240000895DF93CF930F92CDB7DEB78983A3E5BF
:10325000B0E0E3E5F0E08081887F8C93A3E5B0E007
:10326000E3E5F0E090818981892B8C930F90CF91D9
:10327000DF910895DF93CF93CDB7DEB7A3E5B0E03C
:10328000E3E5F0E08081887F8C93CF91DF91089512
:10329000DF93CF9300D000D00F92CDB7DEB7E2E539
:1032A000F0E080818D838D81282F30E040E050E078
:1032B00080919303882F90E0982F8827AA2797FD65
:1032C000A095BA2F820F931FA41FB51F89839A83DD
:1032D000AB83BC8389819A81AB81BC81BC01CD0168
:1032E0000F900F900F900F900F90CF91DF91089556
:1032F000DF93CF93CDB7DEB729970FB6F894DEBF33
:103300000FBECDBF6B837C838D839E834F83A3E5EC
:10331000B0E0E3E5F0E0808180648C93A3E5B0E069
:10332000E3E5F0E0808188608C93A3E5B0E0E3E51D
:10333000F0E080818F7E8C93A3E5B0E0E3E5F0E0E0
:10334000808180628C93ECE5F0E08F81882F90E0A3
:10335000982F882724E630E0B9010E94CB38CB01B2
:1033600080838B819C81AD81BE812227382F492F9C
:103370005A2F80E094E2A4EFB0E0BC01CD010E949E
:10338000DF38DA01C9019A83898369817A81798773
:103390006887888599858034910539F168857985B4
:1033A0006134710558F4888599858130910599F0CB
:1033B000688579856830710599F025C0888599857B
:1033C00021E080309207B1F06885798584E0603033
:1033D0007807A9F018C081E090E09A83898313C030
:1033E00082E090E09A8389830EC083E090E09A8324
:1033F000898309C084E090E09A83898304C085E0D2
:1034000090E09A83898389819A8182309105F8F0CE
:1034100089819A8188309105D0F489819A81AC01A3
:103420004150504028E030E089819A81B901681B01
:10343000790BCB018417950728F081E090E09A83FF
:10344000898373C082E090E09A8389836EC089810A
:103450009A8189309105F8F089819A8180349105AB
:10346000D0F489819A81AC014850504020E430E08A
:1034700089819A81B901681B790BCB018417950763
:1034800028F082E090E09A8389834FC083E090E047
:103490009A8389834AC089819A818134910500F198
:1034A00089819A818F3F910509F0D0F489819A81B1
:1034B000AC014054504020E031E089819A81B9014B
:1034C000681B790BCB018417950728F083E090E007
:1034D0009A8389832AC084E090E09A83898325C0F7
:1034E00089819A8171E081309707F8F089819A810A
:1034F00024E080309207C8F489819A81AC01405061
:10350000514020E034E089819A81B901681B790B30
:10351000CB018417950728F084E090E09A83898393
:1035200004C085E090E09A83898389810E942119F3
:1035300029960FB6F894DEBF0FBECDBFCF91DF91B5
:103540000895DF93CF93CDB7DEB729970FB6F894E0
:10355000DEBF0FBECDBF6B837C838D839E834F8385
:10356000A3E5B0E0E3E5F0E0808180648C93A3E51F
:10357000B0E0E3E5F0E08081877F8C93A3E5B0E0E5
:10358000E3E5F0E0808180618C93A3E5B0E0E3E5C2
:10359000F0E0808180628C93ECE5F0E08F81282F51
:1035A00030E084E690E0AC01421B530B9A018EEFB1
:1035B00091E0BC01269FC001279F900D369F900D82
:1035C000112428EC30E0B9010E94CB38CB01808374
:1035D0008B819C81AD81BE812EEF31E040E050E0D7
:1035E000BC01CD010E94A0389B01AC0180E094E2B7
:1035F000A4EFB0E0BC01CD010E94DF38DA01C901BF
:103600009A83898389819A81998788874885598592
:103610004034510539F1688579856134710558F474
:10362000888599858130910599F04885598548307C
:10363000510599F025C06885798581E0603078076B
:10364000B1F04885598564E040305607A9F018C0AC
:1036500081E090E09A83898313C082E090E09A83AE
:1036600089830EC083E090E09A83898309C084E057
:1036700090E09A83898304C085E090E09A838983EF
:1036800089819A8182309105F8F089819A81883008
:103690009105D0F489819A81AC014150504028E0D5
:1036A00030E089819A81B901681B790BCB018417BD
:1036B000950728F081E090E09A83898373C082E0C7
:1036C00090E09A8389836EC089819A8189309105BF
:1036D000F8F089819A8180349105D0F489819A81AA
:1036E000AC014850504020E430E089819A81B90112
:1036F000681B790BCB018417950728F082E090E0D6
:103700009A8389834FC083E090E09A8389834AC07B
:1037100089819A818134910500F189819A818F3F55
:10372000910509F0D0F489819A81AC014054504050
:1037300020E031E089819A81B901681B790BCB01C6
:103740008417950728F083E090E09A8389832AC044
:1037500084E090E09A83898325C089819A8171E011
:1037600081309707F8F089819A8124E080309207B0
:10377000C8F489819A81AC014050514020E034E086
:1037800089819A81B901681B790BCB018417950750
:1037900028F084E090E09A83898304C085E090E07B
:1037A0009A83898389810E94211929960FB6F894FA
:1037B000DEBF0FBECDBFCF91DF9108952F923F9214
:1037C0004F925F926F927F928F929F92AF92BF9231
:1037D000CF92DF92EF92FF920F931F93DF93CF93DD
:1037E000CDB7DEB7C255D0400FB6F894DEBF0FBEDE
:1037F000CDBF69A37AA38BA39CA35EA34DA380E452
:1038000089871A861B861C861D861E861F86188A37
:1038100089A19AA1ABA1BCA128EE33E040E050E021
:10382000BC01CD010E94A038DC01CB015C016D011F
:10383000EE24FF2487012A2D3B2D4C2D5D2D6E2D6E
:103840007F2D802F912FA984BA84CB84DC84ED84D2
:10385000FE840F8518890E946E02A22EB32EC42EFC
:10386000D52EE62EF72E082F192FA982BA82CB82E9
:10387000DC82ED82FE820F8318878885882359F5C4
:103880008885882311F58F81882329F58F818823E6
:10389000E1F48E818823F9F48E818823B1F48D813F
:1038A0008823C9F48D81882381F48C81882399F43D
:1038B0008C81882351F48B81882369F48B81882340
:1038C00021F48A81882339F48A81E2E5F0E0898154
:1038D0008195808365C229813A814B815C816D81AC
:1038E0007E818F8198850F2EF0EAAF2EF02D0F2E5E
:1038F000F6E8BF2EF02DCC24C394DD24EE24FF2463
:1039000000E010E00E944900222E332E442E552E56
:10391000662E772E882E992EA22CB32CC42CD52C53
:10392000E62CF72C082D192D2A2D3B2D4C2D5D2D25
:103930006E2D7F2D802F912F08E00E944401A22E32
:10394000B32EC42ED52EE62EF72E082F192FA98EB2
:10395000BA8ECB8EDC8EED8EFE8E0F8F18A3A98CC7
:10396000BA8CCB8CDC8CED8CFE8C0F8D18A12A2DA3
:103970003B2D4C2D5D2D6E2D7F2D802F912F0F2EE9
:10398000F0EAAF2EF02D0F2EF6E8BF2EF02DCC244E
:10399000C394DD24EE24FF2400E010E00E94E3083D
:1039A000A22EB32EC42ED52EE62EF72E082F192FB9
:1039B000A98ABA8ACB8ADC8AED8AFE8A0F8B188F95
:1039C00029893A894B895C896D897E898F89988D8F
:1039D00008E00E94C301A22EB32EC42ED52EE62EDF
:1039E000F72E082F192FA98ABA8ACB8ADC8AED8A8A
:1039F000FE8A0F8B188FA988BA88CB88DC88ED885F
:103A0000FE880F89188D2A2D3B2D4C2D5D2D6E2D96
:103A10007F2D802F912F0F2EF0EAAF2EF02D0F2E3D
:103A2000F6E8BF2EF02DCC24C394DD24EE24FF2431
:103A300000E010E00E946E02A22EB32EC42ED52EFE
:103A4000E62EF72E082F192FA98ABA8ACB8ADC8A8C
:103A5000ED8AFE8A0F8B188FA98CBA8CCB8CDC8CEC
:103A6000ED8CFE8C0F8D18A12A2D3B2D4C2D5D2D3C
:103A70006E2D7F2D802F912F0F2EF0EAAF2EF02D7F
:103A80000F2EF6E8BF2EF02DCC24C394DD24EE24B7
:103A9000FF2400E010E00E946E02A22EB32EC42E7E
:103AA000D52EE62EF72E082F192FA98EBA8ECB8E83
:103AB000DC8EED8EFE8E0F8F18A3E2E5F0E0898993
:103AC00081958083998D98A78A8D89A79B8D9AA7C8
:103AD0008C8D8BA79D8D9CA78E8D8DA79F8D9EA76E
:103AE00088A18FA791E098AB19AA1AAA1BAA1CAAB1
:103AF0001DAA1EAA1FAA88A598A9890F88AF81E0D0
:103B000021968FAF219798AD88A5981718F0219628
:103B10001FAE219799A589A9980F99AF91E0229698
:103B20009FAF229789AD99A5891718F022961FAEED
:103B3000229721968FAD219799AD890F23968FAF4C
:103B4000239781E024968FAF249723969FAD2397E8
:103B500089AD981718F024961FAE249722969FAD32
:103B6000229724968FAD2497982B22969FAF229769
:103B700023969FAD239799AF8AA59AA9890F8AAFFB
:103B800081E025968FAF25979AAD8AA5981718F0F2
:103B900025961FAE259722969FAD22978AAD980F46
:103BA00026969FAF269791E027969FAF2797269658
:103BB0008FAD26979AAD891718F027961FAE2797D5
:103BC00025968FAD259727969FAD2797892B25960C
:103BD0008FAF259726968FAD26978AAF9BA58BA989
:103BE000980F9BAF91E028969FAF28978BAD9BA530
:103BF000891718F028961FAE289725968FAD259720
:103C00009BAD890F29968FAF299781E02A968FAFB8
:103C10002A9729969FAD29978BAD981718F02A9669
:103C20001FAE2A9728969FAD28972A968FAD2A9780
:103C3000982B28969FAF289729969FAD29979BAFE1
:103C40008CA59CA9890F8CAF81E02B968FAF2B9709
:103C50009CAD8CA5981718F02B961FAE2B97289625
:103C60009FAD28978CAD980F2C969FAF2C9791E025
:103C70002D969FAF2D972C968FAD2C979CAD8917C5
:103C800018F02D961FAE2D972B968FAD2B972D9656
:103C90009FAD2D97892B2B968FAF2B972C968FADA1
:103CA0002C978CAF9DA58DA9980F9DAF91E02E9676
:103CB0009FAF2E978DAD9DA5891718F02E961FAE3C
:103CC0002E972B968FAD2B979DAD890F2F968FAF8B
:103CD0002F9781E060968FAF60972F969FAD2F97BB
:103CE0008DAD981718F060961FAE60972E969FAD19
:103CF0002E9760968FAD6097982B2E969FAF2E973C
:103D00002F969FAD2F979DAF8EA59EA9890F8EAF41
:103D100081E061968FAF61979EAD8EA5981718F0E0
:103D200061961FAE61972E969FAD2E978EAD980F20
:103D300062969FAF629791E063969FAF639762969A
:103D40008FAD62979EAD891718F063961FAE63978B
:103D500061968FAD619763969FAD6397892B61964E
:103D60008FAF619762968FAD62978EAF9FA58FA937
:103D7000980F9FAF61968FAD61979FAD890F8FAF01
:103D800088AD898F99AD9A8F8AAD8B8F9BAD9C8FB3
:103D90008CAD8D8F9DAD9E8F8EAD8F8F9FAD98A377
:103DA0002DA13EA180E0B9010E947F1F80E00E940A
:103DB000CB1FA3E5B0E0E3E5F0E08081877F8C9343
:103DC000A3E5B0E0E3E5F0E080818F7B8C9385E0B4
:103DD0000E942119898D9A8DAB8DBC8DBC01CD01BE
:103DE000CE5ADF4F0FB6F894DEBF0FBECDBFCF91D6
:103DF000DF911F910F91FF90EF90DF90CF90BF90D8
:103E0000AF909F908F907F906F905F904F903F907A
:103E10002F900895DF93CF9300D0CDB7DEB789837D
:103E20006A8385E00E94CB1F82E00E94CB1F8A81BB
:103E30000E94491F89810E94221F0F900F90CF91ED
:103E4000DF910895DF93CF930F92CDB7DEB78983CB
:103E5000AEE4B0E0EEE4F0E08081887D8C93AEE4E7
:103E6000B0E0EEE4F0E090818981892B8C930F9093
:103E7000CF91DF910895DF93CF93CDB7DEB7AEE456
:103E8000B0E0EEE4F0E08081887D8C93CF91DF910B
:103E90000895DF93CF9300D00F92CDB7DEB789831B
:103EA0008981282F30E03B832A838A819B81009778
:103EB00031F02A813B812130310549F00FC0AEE459
:103EC000B0E0EEE4F0E080818F7B8C9307C0AEE43D
:103ED000B0E0EEE4F0E0808180648C930F900F906E
:103EE0000F90CF91DF910895DF93CF93CDB7DEB7D9
:103EF000E6E4F0E080819181CF91DF910895DF9336
:103F0000CF9300D000D00F92CDB7DEB789837B83EB
:103F10006A838981282F30E03D832C838C819D81A9
:103F200081309105E1F02C813D81223031052CF466
:103F30008C819D81009761F026C02C813D812230CB
:103F40003105D9F08C819D818530910579F01BC0B8
:103F50008A819B81909396038093950314C08A81F4
:103F60009B8190939803809397030DC08A819B81D6
:103F70009093A00380939F0306C08A819B819093B6
:103F80009A03809399030F900F900F900F900F90CA
:103F9000CF91DF910895DF93CF9300D00F92CDB7EB
:103FA000DEB789838981282F30E03B832A838A8189
:103FB0009B818330910509F441C02A813B812430E3
:103FC00031057CF48A819B818130910539F12A8108
:103FD0003B812230310554F58A819B810097B1F0F5
:103FE00054C02A813B8125303105C1F18A819B81F2
:103FF000853091055CF12A813B8126303105B1F194
:104000008A819B8187309105C9F13FC0A9E5B0E065
:10401000E9E5F0E0808181608C9337C0A9E5B0E0EC
:10402000E9E5F0E0808182608C932FC0A9E5B0E0E3
:10403000E9E5F0E0808184608C9327C0A9E5B0E0D9
:10404000E9E5F0E0808180618C931FC0A9E5B0E0D4
:10405000E9E5F0E0808188608C9317C0A9E5B0E0C5
:10406000E9E5F0E0808180628C930FC0A9E5B0E0C3
:10407000E9E5F0E0808180648C9307C0A9E5B0E0B9
:10408000E9E5F0E0808180688C930F900F900F90AD
:10409000CF91DF910895DF93CF9300D00F92CDB7EA
:1040A000DEB789838981282F30E03B832A838A8188
:1040B0009B818330910509F441C02A813B812430E2
:1040C00031057CF48A819B818130910539F12A8107
:1040D0003B812230310554F58A819B810097B1F0F4
:1040E00054C02A813B8125303105C1F18A819B81F1
:1040F000853091055CF12A813B8126303105B1F193
:104100008A819B8187309105C9F13FC0A9E5B0E064
:10411000E9E5F0E080818E7F8C9337C0A9E5B0E0BF
:10412000E9E5F0E080818D7F8C932FC0A9E5B0E0B8
:10413000E9E5F0E080818B7F8C9327C0A9E5B0E0B2
:10414000E9E5F0E080818F7E8C931FC0A9E5B0E0A7
:10415000E9E5F0E08081877F8C9317C0A9E5B0E0A6
:10416000E9E5F0E080818F7D8C930FC0A9E5B0E098
:10417000E9E5F0E080818F7B8C9307C0A9E5B0E092
:10418000E9E5F0E080818F778C930F900F900F908E
:10419000CF91DF9108951F920F920FB60F921124C5
:1041A0002F933F934F935F936F937F938F939F933F
:1041B000AF93BF93EF93FF93DF93CF93CDB7DEB76A
:1041C0008091950390919603009729F0E0919503D3
:1041D000F09196030995CF91DF91FF91EF91BF91F7
:1041E000AF919F918F917F916F915F914F913F918F
:1041F0002F910F900FBE0F901F9018951F920F9246
:104200000FB60F9211242F933F934F935F936F93A9
:104210007F938F939F93AF93BF93EF93FF93DF931E
:10422000CF93CDB7DEB78091970390919803009715
:1042300029F0E0919703F09198030995CF91DF91D0
:10424000FF91EF91BF91AF919F918F917F916F916E
:104250005F914F913F912F910F900FBE0F901F9044
:1042600018951F920F920FB60F9211242F933F9320
:104270004F935F936F937F938F939F93AF93BF936E
:10428000EF93FF93DF93CF93CDB7DEB780919F037A
:104290009091A003009729F0E0919F03F091A00373
:1042A0000995CF91DF91FF91EF91BF91AF919F91D0
:1042B0008F917F916F915F914F913F912F910F90CF
:1042C0000FBE0F901F9018951F920F920FB60F926E
:1042D00011242F933F934F935F936F937F938F930B
:1042E0009F93AF93BF93EF93FF93DF93CF93CDB79C
:1042F000DEB78091990390919A03009729F0E0919D
:104300009903F0919A030995CF91DF91FF91EF9175
:10431000BF91AF919F918F917F916F915F914F91DD
:104320003F912F910F900FBE0F901F901895DF9324
:10433000CF93CDB7DEB727970FB6F894DEBF0FBE89
:10434000CDBF9D838C838C819D81009709F4BDC373
:104350001982B7C38981882F90E09C01220F331FF7
:10436000220F331F8C819D81FC01E20FF31F80819E
:104370009AE0692F0E94BF38892F8B838981882F0B
:1043800090E09C01220F331F220F331F8C819D81EF
:10439000FC01E20FF31F80819AE0692F0E94BF3871
:1043A0008A838A81282F30E03F832E838E819F81EC
:1043B0008230910509F4F3C02E813F81233031050D
:1043C00034F48E819F818130910571F077C32E8105
:1043D0003F812330310509F4BDC18E819F81843036
:1043E000910509F492C26AC38981882F90E09C01EB
:1043F000220F331F220F331F8C819D81FC01E20F9E
:10440000F31F8281813009F05CC0AAE3B0E0EAE3E7
:10441000F0E08081482F8B81282F30E081E090E010
:1044200002C0880F991F2A95E2F7842B8C9389810B
:10443000882F90E09C01220F331F220F331F8C81A5
:104440009D81FC01E20FF31F81818130A1F4ABE378
:10445000B0E0EBE3F0E08081482F8B81282F30E043
:1044600081E090E0022E02C0880F991F0A94E2F7C3
:10447000842B8C9323C38981882F90E09C01220F89
:10448000331F220F331F8C819D81FC01E20FF31F2C
:104490008181882309F012C3ABE3B0E0EBE3F0E0E5
:1044A0008081482F8B81282F30E081E090E0022E20
:1044B00002C0880F991F0A94E2F7809584238C9399
:1044C000FDC28981882F90E09C01220F331F220FAB
:1044D000331F8C819D81FC01E20FF31F82818823B1
:1044E00009F0ECC2AAE3B0E0EAE3F0E08081482FF3
:1044F0008B81282F30E081E090E002C0880F991F67
:104500002A95E2F7809584238C938981882F90E007
:104510009C01220F331F220F331F8C819D81FC01D0
:10452000E20FF31F83818823A9F4ABE3B0E0EBE350
:10453000F0E08081482F8B81282F30E081E090E0EF
:10454000022E02C0880F991F0A94E2F780958423F7
:104550008C93B4C28981882F90E09C01220F331F75
:10456000220F331F8C819D81FC01E20FF31F838199
:10457000813009F0A3C2ABE3B0E0EBE3F0E080816F
:10458000482F8B81282F30E081E090E0022E02C07E
:10459000880F991F0A94E2F7842B8C938FC289812C
:1045A000882F90E09C01220F331F220F331F8C8134
:1045B0009D81FC01E20FF31F8281813009F05CC014
:1045C000A7E3B0E0E7E3F0E08081482F8B81282F5C
:1045D00030E081E090E002C0880F991F2A95E2F751
:1045E000842B8C938981882F90E09C01220F331FAC
:1045F000220F331F8C819D81FC01E20FF31F81810B
:104600008130A1F4A8E3B0E0E8E3F0E08081482F36
:104610008B81282F30E081E090E0022E02C0880FCD
:10462000991F0A94E2F7842B8C9348C28981882FC2
:1046300090E09C01220F331F220F331F8C819D813C
:10464000FC01E20FF31F8181882309F037C2A8E340
:10465000B0E0E8E3F0E08081482F8B81282F30E044
:1046600081E090E0022E02C0880F991F0A94E2F7C1
:10467000809584238C9322C28981882F90E09C01AD
:10468000220F331F220F331F8C819D81FC01E20F0B
:10469000F31F8281882309F011C2A7E3B0E0E7E3AA
:1046A000F0E08081482F8B81282F30E081E090E07E
:1046B00002C0880F991F2A95E2F7809584238C9376
:1046C0008981882F90E09C01220F331F220F331F16
:1046D0008C819D81FC01E20FF31F83818823A9F463
:1046E000A8E3B0E0E8E3F0E08081482F8B81282F39
:1046F00030E081E090E0022E02C0880F991F0A94FA
:10470000E2F7809584238C93D9C18981882F90E02A
:104710009C01220F331F220F331F8C819D81FC01CE
:10472000E20FF31F8381813009F0C8C1A8E3B0E034
:10473000E8E3F0E08081482F8B81282F30E081E092
:1047400090E0022E02C0880F991F0A94E2F7842B92
:104750008C93B4C18981882F90E09C01220F331F74
:10476000220F331F8C819D81FC01E20FF31F828198
:10477000813009F05CC0A4E3B0E0E4E3F0E08081C4
:10478000482F8B81282F30E081E090E002C0880F15
:10479000991F2A95E2F7842B8C938981882F90E0CA
:1047A0009C01220F331F220F331F8C819D81FC013E
:1047B000E20FF31F81818130A1F4A5E3B0E0E5E3CE
:1047C000F0E08081482F8B81282F30E081E090E05D
:1047D000022E02C0880F991F0A94E2F7842B8C9353
:1047E0006DC18981882F90E09C01220F331F220F19
:1047F000331F8C819D81FC01E20FF31F818188238F
:1048000009F05CC1A5E3B0E0E5E3F0E08081482F6A
:104810008B81282F30E081E090E0022E02C0880FCB
:10482000991F0A94E2F7809584238C9347C189816C
:10483000882F90E09C01220F331F220F331F8C81A1
:104840009D81FC01E20FF31F8281882309F036C1AC
:10485000A4E3B0E0E4E3F0E08081482F8B81282FCF
:1048600030E081E090E002C0880F991F2A95E2F7BE
:10487000809584238C938981882F90E09C01220F5E
:10488000331F220F331F8C819D81FC01E20FF31F28
:1048900083818823A9F4A5E3B0E0E5E3F0E080811B
:1048A000482F8B81282F30E081E090E0022E02C05B
:1048B000880F991F0A94E2F7809584238C93FEC099
:1048C0008981882F90E09C01220F331F220F331F14
:1048D0008C819D81FC01E20FF31F8381813009F0FF
:1048E000EDC0A5E3B0E0E5E3F0E08081482F8B81E7
:1048F000282F30E081E090E0022E02C0880F991F3F
:104900000A94E2F7842B8C93D9C08981882F90E098
:104910009C01220F331F220F331F8C819D81FC01CC
:10492000E20FF31F8281813009F05CC0A1E3B0E0A7
:10493000E1E3F0E08081482F8B81282F30E081E097
:1049400090E002C0880F991F2A95E2F7842B8C9380
:104950008981882F90E09C01220F331F220F331F83
:104960008C819D81FC01E20FF31F81818130A1F4D4
:10497000A2E3B0E0E2E3F0E08081482F8B81282FB2
:1049800030E081E090E0022E02C0880F991F0A9467
:10499000E2F7842B8C9392C08981882F90E09C0150
:1049A000220F331F220F331F8C819D81FC01E20FE8
:1049B000F31F8181882309F081C0A2E3B0E0E2E324
:1049C000F0E08081482F8B81282F30E081E090E05B
:1049D000022E02C0880F991F0A94E2F78095842363
:1049E0008C936CC08981882F90E09C01220F331F2B
:1049F000220F331F8C819D81FC01E20FF31F828106
:104A0000882309F05BC0A1E3B0E0E1E3F0E080813E
:104A1000482F8B81282F30E081E090E002C0880F82
:104A2000991F2A95E2F7809584238C938981882F9A
:104A300090E09C01220F331F220F331F8C819D8138
:104A4000FC01E20FF31F83818823A9F4A2E3B0E005
:104A5000E2E3F0E08081482F8B81282F30E081E075
:104A600090E0022E02C0880F991F0A94E2F7809509
:104A700084238C9323C08981882F90E09C01220F8E
:104A8000331F220F331F8C819D81FC01E20FF31F26
:104A90008381813099F4A2E3B0E0E2E3F0E0808129
:104AA000482F8B81282F30E081E090E0022E02C059
:104AB000880F991F0A94E2F7842B8C9389818F5F6A
:104AC000898389818A3108F445CC27960FB6F894FA
:104AD000DEBF0FBECDBFCF91DF910895DF93CF939F
:104AE000CDB7DEB77894CF91DF910895DF93CF9360
:104AF000CDB7DEB7F894CF91DF910895DF93CF93D0
:104B000000D000D000D0CDB7DEB78C838C819AE086
:104B1000692F0E94BF38892F8B838C819AE0692F7F
:104B20000E94BF388A838A81282F30E03E832D83FC
:104B30004D815E814230510541F18D819E818330EE
:104B4000910534F42D813E812130310561F052C050
:104B50004D815E814330510551F18D819E818430BC
:104B60009105B9F147C0E9E3F0E08081282F30E0FA
:104B70008B81882F90E0A90102C0559547958A95B1
:104B8000E2F7CA018170898335C0E6E3F0E08081F5
:104B9000282F30E08B81882F90E0A90102C0559525
:104BA00047958A95E2F7CA018170898323C0E3E3C0
:104BB000F0E08081282F30E08B81882F90E0A901E0
:104BC00002C0559547958A95E2F7CA01817089839D
:104BD00011C0E0E3F0E08081282F30E08B81882F46
:104BE00090E0A90102C0559547958A95E2F7CA0160
:104BF00081708983898126960FB6F894DEBF0FBE37
:104C0000CDBFCF91DF910895DF93CF93CDB7DEB7BE
:104C100028970FB6F894DEBF0FBECDBF8B836C8391
:104C20008B819AE0692F0E94BF38892F8A838B81FC
:104C30009AE0692F0E94BF3889838C81813009F006
:104C400070C08981282F30E038872F838F81988525
:104C50008230910551F12F8138852330310534F4AC
:104C60008F8198858130910561F0D3C02F8138857F
:104C70002330310571F18F81988584309105E9F1F8
:104C8000C8C0ABE3B0E0EBE3F0E08081482F8A815D
:104C9000282F30E081E090E0022E02C0880F991F9B
:104CA0000A94E2F7842B8C93B4C0A8E3B0E0E8E365
:104CB000F0E08081482F8A81282F30E081E090E069
:104CC000022E02C0880F991F0A94E2F7842B8C935E
:104CD000A0C0A5E3B0E0E5E3F0E08081482F8A8141
:104CE000282F30E081E090E0022E02C0880F991F4B
:104CF0000A94E2F7842B8C938CC0A2E3B0E0E2E349
:104D0000F0E08081482F8A81282F30E081E090E018
:104D1000022E02C0880F991F0A94E2F7842B8C930D
:104D200078C08C81882309F074C08981282F30E0F5
:104D30003E832D838D819E818230910561F12D818D
:104D40003E812330310534F48D819E81813091057F
:104D500069F05FC02D813E812330310589F18D815D
:104D60009E818430910509F440C053C0ABE3B0E0AC
:104D7000EBE3F0E08081482F8A81282F30E081E04A
:104D800090E0022E02C0880F991F0A94E2F78095E6
:104D900084238C933EC0A8E3B0E0E8E3F0E0808198
:104DA000482F8A81282F30E081E090E0022E02C057
:104DB000880F991F0A94E2F7809584238C9329C069
:104DC000A5E3B0E0E5E3F0E08081482F8A81282F59
:104DD00030E081E090E0022E02C0880F991F0A9413
:104DE000E2F7809584238C9314C0A2E3B0E0E2E361
:104DF000F0E08081482F8A81282F30E081E090E028
:104E0000022E02C0880F991F0A94E2F7809584232E
:104E10008C9328960FB6F894DEBF0FBECDBFCF910E
:104E2000DF910895DF93CF9300D000D0CDB7DEB7E8
:104E30008A838A81282F30E03C832B838B819C815D
:104E400082309105D9F02B813C812330310534F437
:104E50008B819C818130910561F01EC02B813C814A
:104E60002330310581F08B819C818430910581F064
:104E700013C0EBE3F0E0808189830EC0E8E3F0E04B
:104E80008081898309C0E5E3F0E08081898304C0E3
:104E9000E2E3F0E08081898389810F900F900F9089
:104EA0000F90CF91DF910895DF93CF9300D000D082
:104EB000CDB7DEB789836A838981282F30E03C83B0
:104EC0002B838B819C8182309105D9F02B813C8191
:104ED0002330310534F48B819C818130910561F060
:104EE0001EC02B813C812330310581F08B819C8158
:104EF0008430910581F013C0EBE3F0E08A81808378
:104F00000EC0E8E3F0E08A81808309C0E5E3F0E0C9
:104F10008A81808304C0E2E3F0E08A8180830F907D
:104F20000F900F900F90CF91DF910895DF93CF9363
:104F300000D000D00F92CDB7DEB78B838B819AE083
:104F4000692F0E94BF38892F8A838B819AE0692F4D
:104F50000E94BF3889838981282F30E03D832C83CC
:104F60008C819D818230910551F12C813D812330CE
:104F7000310534F48C819D818130910561F05AC0F6
:104F80002C813D812330310571F18C819D818430EC
:104F90009105E9F14FC0ABE3B0E0EBE3F0E08081D5
:104FA000482F8A81282F30E081E090E0022E02C055
:104FB000880F991F0A94E2F784278C933BC0A8E3DB
:104FC000B0E0E8E3F0E08081482F8A81282F30E0CC
:104FD00081E090E0022E02C0880F991F0A94E2F748
:104FE00084278C9327C0A5E3B0E0E5E3F0E080815F
:104FF000482F8A81282F30E081E090E0022E02C005
:10500000880F991F0A94E2F784278C9313C0A2E3B8
:10501000B0E0E2E3F0E08081482F8A81282F30E081
:1050200081E090E0022E02C0880F991F0A94E2F7F7
:1050300084278C930F900F900F900F900F90CF912B
:10504000DF910895DF93CF9300D000D00F92CDB7BA
:10505000DEB749835A836B837C838D83A7E2B0E0FC
:10506000E7E2F0E08081282F8091A703882F90E06D
:10507000880F991F82959295907F9827807F982717
:10508000822B8C93A7E2B0E0E7E2F0E08081282F4A
:105090008981882F90E000249695879507949695AE
:1050A00087950794982F802D822B8C93A6E2B0E0F1
:1050B000E6E2F0E08081282F8A81882F90E0880F37
:1050C000991F82959295907F9827807F9827822BB1
:1050D0008C93A6E2B0E0E6E2F0E08081282F8B819D
:1050E000882F90E0880F991F880F991F880F991FAC
:1050F000822B8C93A6E2B0E0E6E2F0E08081887F2C
:105100008C93A6E2B0E0E6E2F0E090818C81892BFE
:105110008C93A0E5B0E0E0E5F0E080818F708C93A7
:10512000A0E5B0E0E0E5F0E08081282F8D81882FB8
:1051300090E0880F991F82959295907F9827807FA5
:105140009827822B8C93A6E2B0E0E6E2F0E0808123
:1051500080688C930F900F900F900F900F90CF91CD
:10516000DF910895DF93CF93CDB7DEB7A6E2B0E02D
:10517000E6E2F0E0808180648C93CF91DF91089526
:10518000DF93CF9300D000D000D0CDB7DEB78983B6
:105190007B836A83A7E2B0E0E7E2F0E08081807E73
:1051A0008C93A7E2B0E0E7E2F0E090818981892B5F
:1051B0008C93E6E2F0E0808182958F70882F90E0FA
:1051C00081709070009711F41E824FC0A6E2B0E08B
:1051D000E6E2F0E0808180618C938091A703282F24
:1051E00030E03D832C838C819D81009711F12C81CF
:1051F0003D8121303105B9F5E4E2F0E08081882F6E
:1052000090E0EA81FB8191838083EA81FB812081A8
:105210003181E5E2F0E08081882F90E0880F991FCE
:10522000880F991F822B932BEA81FB8191838083C6
:105230001AC0E4E2F0E08081882F90E0EA81FB81EF
:1052400091838083EA81FB8120813181E5E2F0E076
:105250008081882F90E0982F8827822B932BEA81DA
:10526000FB819183808331E03E838E8126960FB649
:10527000F894DEBF0FBECDBFCF91DF910895DF93CD
:10528000CF9300D00F92CDB7DEB789837B836A833B
:10529000A7E2B0E0E7E2F0E08081807E8C93A7E2B5
:1052A000B0E0E7E2F0E090818981892B8C938A81DC
:1052B0009B819093A6038093A5030F900F900F906E
:1052C000CF91DF9108951F920F920FB60F92112484
:1052D0002F933F934F935F936F937F938F939F93FE
:1052E000AF93BF93EF93FF93DF93CF93CDB7DEB729
:1052F0008091A5039091A603009729F0E091A50362
:10530000F091A6030995CF91DF91FF91EF91BF91A5
:10531000AF919F918F917F916F915F914F913F914D
:105320002F910F900FBE0F901F901895DF93CF9382
:10533000CDB7DEB7CC56D0400FB6F894DEBF0FBE67
:10534000CDBFFE01EA59FF4F20833183428353834F
:10535000648375838683FE01EA59FF4F8081282F7D
:1053600030E000D000D000D0EDB7FEB73196CE01CE
:1053700002969183808380E690E0938382833583D5
:1053800024830E94F0398DB79EB706960FB6F89425
:105390009EBF0FBE8DBFCE0102962EE034E0B90154
:1053A00040ED57E00E946B2A8983FE01EA59FF4FC6
:1053B00021813281FE01EA59FF4F438154818DB72B
:1053C0009EB708970FB6F8949EBF0FBE8DBFEDB77E
:1053D000FEB73196CE010296918380838FE690E0EE
:1053E0009383828335832483578346830E94F039D5
:1053F0008DB79EB708960FB6F8949EBF0FBE8DBFAF
:10540000CE0102962EE034E0B90140ED57E00E9453
:105410006B2A8983C459DF4F0FB6F894DEBF0FBEE5
:10542000CDBFCF91DF910895DF93CF930F92CDB78A
:10543000DEB784E890E02EE034E0B90140ED57E0BB
:105440000E946B2A898382E990E02EE034E0B90162
:1054500040ED57E00E946B2A89830F90CF91DF9136
:105460000895DF93CF9300D000D00F92CDB7DEB771
:105470009C838B831A8219821EC029813A818B8179
:105480009C81FC01E20FF31F80818F3479F48981C4
:105490009A819C012F5F3F4F8B819C81FC01E20F21
:1054A000F31F80818B3411F41D820CC089819A8195
:1054B00001969A83898389819A8185369105ECF2D8
:1054C00081E08D838D810F900F900F900F900F9042
:1054D000CF91DF910895EF92FF920F931F93DF9387
:1054E000CF93CDB7DEB72D970FB6F894DEBF0FBEC2
:1054F000CDBF98878F837A8769875C874B8760E009
:1055000074E284EF90E00E9405378F8198850E94B5
:105510000A171E821D820E944B37DC01CB01898352
:105520009A83AB83BC8389819A81AB81BC81805390
:10553000984FAF4FBF4F7C018D010E944B37DC016C
:10554000CB01E816F9060A071B0700F11AC02D81E6
:105550003E8189859A858C01020F131F0E94C9160E
:10556000F80180832D813E8189859A85FC01E20FB7
:10557000F31F8081882329F08D819E8101969E836F
:105580008D8380919203882311F7CDCF2D813E81A9
:1055900089859A85FC01E20FF31F10828D819E811F
:1055A000009719F4F2E0FD8705C089859A850E946D
:1055B000312A8D878D852D960FB6F894DEBF0FBEEC
:1055C000CDBFCF91DF911F910F91FF90EF90089584
:1055D000DF93CF9300D000D000D0CDB7DEB79D834E
:1055E0008C838C819D8123EA30E0B9010E94863949
:1055F0009B838A838A819B81009799F08A819B8112
:10560000FC0133968081805389838981882319F432
:1056100082E08E8307C08981813019F481E08E8316
:1056200001C01E828E8126960FB6F894DEBF0FBE93
:10563000CDBFCF91DF910895DF93CF93CDB7DEB784
:105640004091E9015091EA016091EB017091EC0108
:105650008091ED010E942228CF91DF910895DF9380
:10566000CF93CDB7DEB7C355D0400FB6F894DEBFA9
:105670000FBECDBFFE01EF5AFF4F80831E8E1D8EE1
:105680001C8EDFC00E94B2280BC0FE01EF5AFF4FF4
:105690009E01295D3F4F8081B9010E94C0288E8FF5
:1056A0008E8D882391F32C8D3D8D8FA198A5482F49
:1056B000CE018996FC01E20FF31F408380E090E069
:1056C000A8ECB2E48D8B9E8BAF8BB88F6D897E89F1
:1056D0008F89988D2BEA3AEA4AEA50E40E94FD103D
:1056E000DC01CB01898B9A8BAB8BBC8B69897A8966
:1056F0008B899C8920E030E040E85FE30E9433130F
:1057000088231CF481E0888B91C069897A898B8910
:105710009C8920E030E04FE753E40E94D312181632
:105720000CF07BC06D897E898F89988D20E030E0F8
:105730004AE754E40E94F711DC01CB018C879D8776
:10574000AE87BF876C857D858E859F8520E030E0A4
:105750004AE755E40E94FD10DC01CB018887998758
:10576000AA87BB87688579858A859B8520E030E09C
:1057700040E85FE30E94331388232CF481E090E03B
:105780009F838E833FC0688579858A859B8520E0CD
:105790003FEF4FE757E40E94D31218164CF56C8583
:1057A0007D858E859F8520E030E040E251E40E94B7
:1057B000FD10DC01CB01BC01CD010E944202DC01E5
:1057C000CB019F838E830FC080E991E09D838C8302
:1057D0008C819D810197F1F79D838C838E819F81C0
:1057E00001979F838E838E819F81009769F724C0E4
:1057F000688579858A859B850E944202DC01CB0100
:105800009F838E838E819F819B838A838A819B81E4
:105810000197F1F79B838A830FC069897A898B8905
:105820009C890E944202DC01CB01888B8889898394
:1058300089818A95F1F789838C8D9D8D01969D8F45
:105840008C8F8C8D9D8D883291050CF41BCF1D8E15
:105850001C8E56C01B8E1A8E42C02A8D3B8DCE01E7
:105860008996FC01E20FF31F40818A8D9B8D9C017C
:105870002F5F3F4FCE018996FC01E20FF31F80811D
:10588000841740F52A8D3B8DCE018996FC01E20FED
:10589000F31F8081898F4A8D5B8D8A8D9B8D9C0142
:1058A0002F5F3F4FCE018996FC01E20FF31F20814D
:1058B000CE018996FC01E40FF51F20838A8D9B8D14
:1058C0009C012F5F3F4FCE018996FC01E20FF31F31
:1058D000898D80838A8D9B8D01969B8F8A8F27E28D
:1058E00030E08A8D9B8D281B390B8A8D9B8D82170A
:1058F00093070CF4B2CF8C8D9D8D01969D8F8C8F6C
:105900008C8D9D8D883291050CF4A4CF8DAD282F00
:1059100030E08CAD882F90E0820F931F64969FAF8C
:105920008EAF649764968EAD9FAD649799234CF4C7
:1059300064968EAD9FAD6497019664969FAF8EAFCF
:10594000649764968EAD9FAD64979595879598A75B
:105950008FA38FA198A5CC01A0E0B0E0BC01CD0140
:105960000E94B713DC01CB01BC01CD0120E030E483
:105970004CE950E40E94FD10DC01CB018BA39CA3F9
:10598000ADA3BEA36BA17CA18DA19EA120E030E8B8
:1059900049E054E40E94A312882349F480E090E097
:1059A000A0E0B0E08F8F98A3A9A3BAA310C06BA109
:1059B0007CA18DA19EA120E030E040E251E40E9454
:1059C000F711DC01CB018F8F98A3A9A3BAA36F8D28
:1059D00078A189A19AA10E944202DC01CB01CD5A93
:1059E000DF4F0FB6F894DEBF0FBECDBFCF91DF9172
:1059F0000895DF93CF93CDB7DEB74091E401509186
:105A0000E5016091E6017091E7018091E8010E9453
:105A10002228CF91DF910895DF93CF93CDB7DEB7E2
:105A2000E9970FB6F894DEBF0FBECDBF89AF1E8ECB
:105A30001D8E1C8EE0C00E94B22808C09E012D5D04
:105A40003F4F89ADB9010E94C0288E8F8E8D88236B
:105A5000A9F38C8D9D8D4BA15CA19C01220F331F5E
:105A6000CE010196820F931FFC01B49651834083AF
:105A700080E090E0A8ECB2E48D8B9E8BAF8BB88F6A
:105A80006D897E898F89988D2BEA3AEA4AEA50E43B
:105A90000E94FD10DC01CB01898B9A8BAB8BBC8BF8
:105AA00069897A898B899C8920E030E040E85FE34E
:105AB0000E94331388231CF481E0888B91C069898C
:105AC0007A898B899C8920E030E04FE753E40E947B
:105AD000D31218160CF07BC06D897E898F89988D42
