:100000000C942A000C9447000C9447000C94470071
:100010000C9447000C9447000C9447000C94B51EB8
:100020000C9447000C9447000C9447000C94470034
:100030000C9447000C94AD070C9447000C944700B7
:100040000C947C100C9447000C9447000C944700CF
:100050000C94470011241FBECFE5D8E0DEBFCDBF12
:1000600014E0A0E6B0E0ECEEF6E402C005900D92DC
:10007000AE33B107D9F715E0AEE3B4E001C01D928D
:10008000A331B107E1F70E949D1F0C9474230C94D7
:100090000000EF92FF920F931F937B018C0120E0F1
:1000A00030E040E05FE40E94250488238CF0C80122
:1000B000B70120E030E040E05FE40E94C1010E940F
:1000C00085049B01AC01205030404040504806C0A0
:1000D000C801B7010E9485049B01AC01B901CA01A6
:1000E0001F910F91FF90EF900895A0E0B0E0EBE733
:1000F000F0E00C948220DC012B01FA019C919230FB
:1001000008F439C1EB018881823008F433C194309E
:1001100069F4843009F02FC111969C91119789815F
:10012000981709F428C1AAE8B1E025C1843009F480
:1001300021C18230A9F4923009F01DC19A01AD01AC
:1001400088E0EA010990AE01E90109929E0181501F
:10015000C1F7E201898111969C918923818308C1AD
:10016000923009F407C112962D903C901397EB0141
:100170008A819B811496AD90BD90CD90DC901797AD
:10018000EC80FD800E811F819101281B390BB90184
:1001900037FF04C066277727621B730B6032710537
:1001A0000CF061C0121613066CF537014801062EDB
:1001B00004C096948794779467940A94D2F721E0C8
:1001C00030E040E050E004C0220F331F441F551FB1
:1001D0006A95D2F721503040404050402E213F21B7
:1001E00040235123211531054105510521F021E01E
:1001F00030E040E050E079018A01E628F72808293C
:1002000019293CC0232BD1F1260E371E350146019A
:10021000062E04C096948794779467940A94D2F734
:1002200021E030E040E050E004C0220F331F441FC3
:10023000551F6A95D2F721503040404050402A2146
:100240003B214C215D21211531054105510521F04E
:1002500021E030E040E050E059016A01A628B728CB
:10026000C828D9280BC0821593052CF01C01AA249C
:10027000BB24650103C0EE24FF24870111969C91E5
:10028000D20111968C91981709F445C0992339F041
:10029000A80197012A193B094C095D0906C0A6016E
:1002A00095012E193F09400B510B57FD08C01182D3
:1002B0003382228224833583468357831DC081E0A5
:1002C00081833382228288279927DC01821B930B4A
:1002D000A40BB50B84839583A683B7830DC0220F2F
:1002E000331F441F551F24833583468357838281E0
:1002F000938101979383828324813581468157813D
:10030000DA01C9010197A109B1098F5F9F4FAF4F72
:10031000BF4328F30BC0918333822282EA0CFB1C7B
:100320000C1D1D1DE482F5820683178383E0808304
:10033000248135814681578157FF1AC0C901AA27F8
:1003400097FDA095BA2F81709070A070B0705695EF
:10035000479537952795822B932BA42BB52B848318
:100360009583A683B7838281938101969383828349
:10037000DF0101C0D201CD01CDB7DEB7E2E10C94BF
:100380009E20A0E2B0E0E7ECF1E00C948E206983BF
:100390007A838B839C832D833E834F835887E9E048
:1003A000EE2EF12CEC0EFD1ECE010196B7010E943F
:1003B00076068E010F5E1F4FCE010596B8010E9492
:1003C00076068A8991E089278A8BC701B801AE0138
:1003D000475E5F4F0E9475000E94A105A096E6E06F
:1003E0000C94AA20A0E2B0E0E8EFF1E00C948E209B
:1003F00069837A838B839C832D833E834F835887C5
:10040000F9E0EF2EF12CEC0EFD1ECE010196B701A6
:100410000E9476068E010F5E1F4FCE010596B80131
:100420000E947606C701B801AE01475E5F4F0E9489
:1004300075000E94A105A096E6E00C94AA20A0E217
:10044000B0E0E5E2F2E00C94822069837A838B834A
:100450009C832D833E834F835887CE010196BE0136
:10046000675F7F4F0E947606CE010596BE016F5EE4
:100470007F4F0E9476069985923088F08989823074
:10048000C8F0943019F4823051F404C0843029F457
:10049000923081F48AE891E0C6C0923049F420E0BD
:1004A0009A858A89981321E02A87CE010996BBC0D4
:1004B000823049F420E09A858A89981321E02A8BBA
:1004C000CE014196B0C02D843E844F8458886D88FB
:1004D0007E888F88988CEE24FF248701AA24BB2471
:1004E000650140E050E060E070E0E0E0F0E0C10174
:1004F00081709070892BE9F0E60CF71C081D191D1E
:100500009A01AB012A0D3B1D4C1D5D1D80E090E062
:10051000A0E0B0E0E614F7040805190520F481E036
:1005200090E0A0E0B0E0BA01A901480F591F6A1F8E
:100530007B1FAA0CBB1CCC1CDD1C97FE08C081E0F5
:1005400090E0A0E0B0E0A82AB92ACA2ADB2A3196B6
:10055000E032F10549F0660C771C881C991C569412
:10056000479437942794C3CFFA85EA892B893C892D
:100570008B859C85280F391F2E5F3F4F17C0CA01FE
:1005800081709070892B61F016950795F794E79428
:1005900080E090E0A0E0B0E8E82AF92A0A2B1B2BC3
:1005A00076956795579547952F5F3F4F77FDE7CF36
:1005B0000CC0440F551F661F771F17FD4160EE0CDE
:1005C000FF1C001F111F21503040403090E05907A0
:1005D00090E0690790E4790760F32B8F3C8FDB0193
:1005E000CA018F779070A070B07080349105A1051A
:1005F000B10561F447FD0AC0E114F10401051105DC
:1006000029F0405C5F4F6F4F7F4F40781A8EFE1786
:1006100011F081E08A8F4D8F5E8F6F8F78A383E01A
:10062000898FCE0149960E94A105A096E2E10C9423
:100630009E20A8E1B0E0EFE1F3E00C948A2069830A
:100640007A838B839C832D833E834F835887B9E0C5
:10065000EB2EF12CEC0EFD1ECE010196B7010E948F
:1006600076068E010F5E1F4FCE010596B8010E94DF
:1006700076062985223008F47EC03989323010F49C
:10068000B8017CC08A859A8989278A87243011F02D
:10069000223031F4231709F06EC06AE871E06EC0B1
:1006A000343039F41D861E861F86188A1C861B86E8
:1006B00004C0323021F484E08987B7015FC02B8504
:1006C0003C858B899C89281B390B3C872B87ED84C3
:1006D000FE840F851889AD88BE88CF88D88CEA142F
:1006E000FB040C051D0540F4EE0CFF1C001F111F40
:1006F000215030403C872B8720E030E040E050E044
:1007000080E090E0A0E0B0E460E070E0EA14FB0478
:100710000C051D0540F0282B392B4A2B5B2BEA18C2
:10072000FB080C091D09B695A79597958795EE0CC2
:10073000FF1C001F111F6F5F7F4F6F31710531F775
:10074000DA01C9018F779070A070B0708034910584
:10075000A105B10561F427FD0AC0E114F10401050A
:10076000110529F0205C3F4F4F4F5F4F20782D87B8
:100770003E874F87588BBE01675F7F4FCB010E943A
:10078000A1056896EAE00C94A620A8E1B0E0EBECA5
:10079000F3E00C948E2069837A838B839C832D8372
:1007A0003E834F83588789E0E82EF12CEC0EFD1E26
:1007B000CE010196B7010E9476068E010F5E1F4F93
:1007C000CE010596B8010E9476068985823040F0F8
:1007D0008989823028F0C701B8010E94EE0601C065
:1007E00081E06896E6E00C94AA20A8E1B0E0EBEF87
:1007F000F3E00C948E2069837A838B839C832D8312
:100800003E834F83588789E0E82EF12CEC0EFD1EC5
:10081000CE010196B7010E9476068E010F5E1F4F32
:10082000CE010596B8010E9476068985823040F097
:100830008989823028F0C701B8010E94EE0601C004
:100840008FEF6896E6E00C94AA20A8E1B0E0EBE216
:10085000F4E00C948E2069837A838B839C832D83B0
:100860003E834F83588789E0E82EF12CEC0EFD1E65
:10087000CE010196B7010E9476068E010F5E1F4FD2
:10088000CE010596B8010E9476068985823040F037
:100890008989823028F0C701B8010E94EE0601C0A4
:1008A0008FEF6896E6E00C94AA20A8E1B0E0EBE5B3
:1008B000F4E00C948E2069837A838B839C832D8350
:1008C0003E834F83588789E0E82EF12CEC0EFD1E05
:1008D000CE010196B7010E9476068E010F5E1F4F72
:1008E000CE010596B8010E9476068985823040F0D7
:1008F0008989823028F0C701B8010E94EE0601C044
:1009000081E06896E6E00C94AA20ACE0B0E0EBE869
:10091000F4E00C94922069837A838B839C83CE01CC
:100920000196BE016B5F7F4F0E9476068D818230FB
:1009300061F1823050F1843021F48E81882351F1AD
:100940002EC02F81388537FD20C06E812F313105B3
:100950001CF06623F9F023C08EE190E0821B930B1C
:1009600029853A854B855C8504C056954795379512
:1009700027958A95D2F76623B1F05095409530952A
:1009800021953F4F4F4F5F4F0EC020E030E040E0D9
:1009900050E009C02FEF3FEF4FEF5FE704C020E0CA
:1009A00030E040E050E8B901CA012C96E2E00C9436
:1009B000AE20A8E0B0E0EFEDF4E00C948A207B01DB
:1009C0008C01611571058105910519F482E0898317
:1009D00060C083E089838EE1C82ED12CDC82CB827B
:1009E000ED82FE820F831887C801B7010E9452056D
:1009F000FC013197F7FF3BC0222733272E1B3F0B0B
:100A000057016801022E04C0D694C794B794A794E6
:100A10000A94D2F740E050E060E070E081E090E0BE
:100A2000A0E0B0E004C0880F991FAA1FBB1F2A9541
:100A3000D2F70197A109B1098E219F21A023B123EB
:100A40000097A105B10521F041E050E060E070E0C1
:100A50004A295B296C297D294D835E836F837887C2
:100A60008EE190E08E1B9F0B9C838B8312C030978E
:100A700081F00E2E04C0EE0CFF1C001F111F0A9403
:100A8000D2F7ED82FE820F831887CE1ADF0ADC824E
:100A9000CB821A82CE0101960E94A1052896EAE037
:100AA0000C94A620EF92FF920F931F937B018C0171
:100AB00080E0E81680E0F80681E0080780E018078B
:100AC00088F48FEFE816F1040105110531F028F0E4
:100AD00088E090E0A0E0B0E017C080E090E0A0E007
:100AE000B0E012C080E0E81680E0F80680E0080779
:100AF00081E0180728F088E190E0A0E0B0E004C0B1
:100B000080E190E0A0E0B0E020E230E040E050E0A2
:100B1000281B390B4A0B5B0B04C016950795F794FD
:100B2000E7948A95D2F7F701EE56FE4F8081281B95
:100B3000310941095109C9011F910F91FF90EF90AF
:100B40000895DF92EF92FF920F931F93FC01E480D0
:100B5000F58006811781D1808081823048F480E061
:100B600090E0A0E1B0E0E82AF92A0A2B1B2BA5C0EF
:100B7000843009F49FC0823021F4EE24FF248701E1
:100B800005C0E114F1040105110519F4E0E0F0E0FD
:100B900096C0628173819FEF623879070CF05BC069
:100BA00022E83FEF261B370B2A3131052CF020E0DD
:100BB00030E040E050E02AC0B801A701022E04C096
:100BC00076956795579547950A94D2F781E090E01E
:100BD000A0E0B0E004C0880F991FAA1FBB1F2A9590
:100BE000D2F70197A109B1098E219F21A023B1233A
:100BF0000097A105B10521F081E090E0A0E0B0E010
:100C00009A01AB01282B392B4A2B5B2BDA01C90146
:100C10008F779070A070B07080349105A105B105F8
:100C200039F427FF09C0205C3F4F4F4F5F4F04C08E
:100C3000215C3F4F4F4F5F4FE0E0F0E02030A0E0FD
:100C40003A07A0E04A07A0E45A0710F0E1E0F0E01C
:100C500079018A0127C06038710564F5FB01E1580C
:100C6000FF4FD801C7018F779070A070B0708034AB
:100C70009105A105B10539F4E7FE0DC080E490E0CF
:100C8000A0E0B0E004C08FE390E0A0E0B0E0E80EA8
:100C9000F91E0A1F1B1F17FF05C016950795F7942D
:100CA000E794319687E016950795F794E7948A952F
:100CB000D1F705C0EE24FF248701EFEFF0E06E2F9F
:100CC000679566276795902F9F77D794DD24D794F3
:100CD0008E2F8695492F462B582F5D29B701CA01C3
:100CE0001F910F91FF90EF90DF900895FC01DB01C1
:100CF000408151812281622F6F7770E0221F22276D
:100D0000221F9381892F880F822B282F30E0991F73
:100D10009927991F11969C93119721153105A9F5D3
:100D2000411551056105710511F482E037C082E873
:100D30009FEF13969C938E9312979A01AB0167E0F5
:100D4000220F331F441F551F6A95D1F783E08C9300
:100D50000DC0220F331F441F551F12968D919C9179
:100D60001397019713969C938E931297203080E0EF
:100D7000380780E0480780E4580758F314962D930D
:100D80003D934D935C93179708952F3F310579F468
:100D9000411551056105710519F484E08C9308959E
:100DA00064FF03C081E08C9312C01C9210C02F57C7
:100DB000304013963C932E93129783E08C9387E0F8
:100DC000440F551F661F771F8A95D1F770641496DC
:100DD0004D935D936D937C93179708951F93DC015A
:100DE000FB019C91923008F447C08081823008F466
:100DF00043C0943051F411961C91843099F581814F
:100E0000682F70E0611B71093FC0843021F092307F
:100E100031F48230B9F18181882389F12DC0119696
:100E20001C9111978230F1F081811817D9F4129634
:100E30002D913C911397828193818217930794F0AF
:100E400028173907BCF014968D919D910D90BC9197
:100E5000A02D2481358146815781281739074A07FB
:100E60005B0718F4112341F00AC082179307A40707
:100E7000B50740F4112319F061E070E005C06FEF91
:100E80007FEF02C060E070E0CB011F910895DF9317
:100E9000CF93CDB7DEB780914004CF91DF91089515
:100EA000DF93CF9300D000D0CDB7DEB769837A83CC
:100EB0008B839C83E0E4F0E080E88083EAE2F0E06A
:100EC0001082A0E4B0E0E0E4F0E090818A81892B18
:100ED0008C93A0E4B0E0E0E4F0E090818C81892B79
:100EE0008C938B81803241F4A0E4B0E0E0E4F0E048
:100EF000808180628C9311C08B81803371F4A0E477
:100F0000B0E0E0E4F0E0808180618C93A0E4B0E0A8
:100F1000E0E4F0E0808180628C93E9E2F0E0898196
:100F20008083AAE2B0E0EAE2F0E0808188608C93FE
:100F3000AAE2B0E0EAE2F0E0808180618C93AAE26C
:100F4000B0E0EAE2F0E0808180688C930F900F902F
:100F50000F900F90CF91DF9108951F920F920FB6CF
:100F60000F9211248F939F93EF93FF93DF93CF936F
:100F70000F92CDB7DEB7ECE2F0E0808189838091FB
:100F80003E04882F90E0FC01EA5BFB4F898180835F
:100F900080913E048F5F80933E0480913E048536AD
:100FA00010F010923E04809140048F5F80934004C3
:100FB00080914004853618F084E6809340040F90B9
:100FC000CF91DF91FF91EF919F918F910F900FBE85
:100FD0000F901F901895DF93CF930F92CDB7DEB788
:100FE00080913F04882F90E0FC01EA5BFB4F8081F9
:100FF000898380914004882329F0809140048150A6
:101000008093400480913F048F5F80933F048091E0
:101010003F04853610F010923F0489810F90CF91E4
:10102000DF910895DF93CF930F92CDB7DEB7898319
:10103000EBE2F0E08081829586958770882F90E0C2
:10104000817090700097A1F3ECE2F0E089818083D9
:101050000F90CF91DF910895DF93CF9300D0CDB75C
:10106000DEB79A8389830AC0E981FA8180810E9470
:10107000120889819A8101969A838983E981FA818C
:101080008081882389F70F900F90CF91DF91089589
:10109000DF93CF9300D000D00F92CDB7DEB79C8303
:1010A0008B836D831A8219820FC029813A818B81CB
:1010B0009C81FC01E20FF31F80810E94120889814C
:1010C0009A8101969A8389838D81282F30E08981C6
:1010D0009A81821793074CF30F900F900F900F9007
:1010E0000F90CF91DF9108950F931F93DF93CF93CC
:1010F00000D000D0CDB7DEB79C838B831A821982D3
:101100001AC029813A818B819C818C01020F131FA7
:101110000E94EB07F801808329813A818B819C81B1
:10112000FC01E20FF31F8081882329F089819A81D5
:1011300001969A83898380914004882311F78981DD
:101140009A812B813C81F901E80FF91F10820F90E1
:101150000F900F900F90CF91DF911F910F910895F5
:10116000DF93CF93CDB7DEB727970FB6F894DEBFE6
:101170000FBECDBF9D838C838C819D81009709F428
:10118000BDC31982B7C38981882F90E09C01220FCB
:10119000331F220F331F8C819D81FC01E20FF31F4F
:1011A00080819AE0692F0E943920892F8B83898161
:1011B000882F90E09C01220F331F220F331F8C8158
:1011C0009D81FC01E20FF31F80819AE0692F0E944C
:1011D00039208A838A81282F30E03F832E838E81B5
:1011E0009F818230910509F4F3C02E813F81233025
:1011F000310534F48E819F818130910571F077C380
:101200002E813F812330310509F4BDC18E819F813C
:101210008430910509F492C26AC38981882F90E0D5
:101220009C01220F331F220F331F8C819D81FC01F3
:10123000E20FF31F8281813009F05CC0AAE3B0E0C5
:10124000EAE3F0E08081482F8B81282F30E081E0B5
:1012500090E002C0880F991F2A95E2F7842B8C93A7
:101260008981882F90E09C01220F331F220F331FAA
:101270008C819D81FC01E20FF31F81818130A1F4FB
:10128000ABE3B0E0EBE3F0E08081482F8B81282FC7
:1012900030E081E090E0022E02C0880F991F0A948E
:1012A000E2F7842B8C9323C38981882F90E09C01E3
:1012B000220F331F220F331F8C819D81FC01E20F0F
:1012C000F31F8181882309F012C3ABE3B0E0EBE3A5
:1012D000F0E08081482F8B81282F30E081E090E082
:1012E000022E02C0880F991F0A94E2F7809584238A
:1012F0008C93FDC28981882F90E09C01220F331FBF
:10130000220F331F8C819D81FC01E20FF31F82812C
:10131000882309F0ECC2AAE3B0E0EAE3F0E08081C0
:10132000482F8B81282F30E081E090E002C0880FA9
:10133000991F2A95E2F7809584238C938981882FC1
:1013400090E09C01220F331F220F331F8C819D815F
:10135000FC01E20FF31F83818823A9F4ABE3B0E023
:10136000EBE3F0E08081482F8B81282F30E081E093
:1013700090E0022E02C0880F991F0A94E2F7809530
:1013800084238C93B4C28981882F90E09C01220F22
:10139000331F220F331F8C819D81FC01E20FF31F4D
:1013A0008381813009F0A3C2ABE3B0E0EBE3F0E06E
:1013B0008081482F8B81282F30E081E090E0022E41
:1013C00002C0880F991F0A94E2F7842B8C938FC276
:1013D0008981882F90E09C01220F331F220F331F39
:1013E0008C819D81FC01E20FF31F8281813009F025
:1013F0005CC0A7E3B0E0E7E3F0E08081482F8B8199
:10140000282F30E081E090E002C0880F991F2A95D4
:10141000E2F7842B8C938981882F90E09C01220F26
:10142000331F220F331F8C819D81FC01E20FF31FBC
:1014300081818130A1F4A8E3B0E0E8E3F0E08081AD
:10144000482F8B81282F30E081E090E0022E02C0EF
:10145000880F991F0A94E2F7842B8C9348C28981E4
:10146000882F90E09C01220F331F220F331F8C81A5
:101470009D81FC01E20FF31F8181882309F037C2AF
:10148000A8E3B0E0E8E3F0E08081482F8B81282FCB
:1014900030E081E090E0022E02C0880F991F0A948C
:1014A000E2F7809584238C9322C28981882F90E073
:1014B0009C01220F331F220F331F8C819D81FC0161
:1014C000E20FF31F8281882309F011C2A7E3B0E085
:1014D000E7E3F0E08081482F8B81282F30E081E026
:1014E00090E002C0880F991F2A95E2F78095842327
:1014F0008C938981882F90E09C01220F331F220F4B
:10150000331F8C819D81FC01E20FF31F83818823AF
:10151000A9F4A8E3B0E0E8E3F0E08081482F8B81F4
:10152000282F30E081E090E0022E02C0880F991F42
:101530000A94E2F7809584238C93D9C18981882FFE
:1015400090E09C01220F331F220F331F8C819D815D
:10155000FC01E20FF31F8381813009F0C8C1A8E3C9
:10156000B0E0E8E3F0E08081482F8B81282F30E065
:1015700081E090E0022E02C0880F991F0A94E2F7E2
:10158000842B8C93B4C18981882F90E09C01220F19
:10159000331F220F331F8C819D81FC01E20FF31F4B
:1015A0008281813009F05CC0A4E3B0E0E4E3F0E0C4
:1015B0008081482F8B81282F30E081E090E002C0AD
:1015C000880F991F2A95E2F7842B8C938981882FA5
:1015D00090E09C01220F331F220F331F8C819D81CD
:1015E000FC01E20FF31F81818130A1F4A5E3B0E09B
:1015F000E5E3F0E08081482F8B81282F30E081E007
:1016000090E0022E02C0880F991F0A94E2F7842B03
:101610008C936DC18981882F90E09C01220F331F2C
:10162000220F331F8C819D81FC01E20FF31F81810A
:10163000882309F05CC1A5E3B0E0E5E3F0E0808138
:10164000482F8B81282F30E081E090E0022E02C0ED
:10165000880F991F0A94E2F7809584238C9347C1E1
:101660008981882F90E09C01220F331F220F331FA6
:101670008C819D81FC01E20FF31F8281882309F098
:1016800036C1A4E3B0E0E4E3F0E08081482F8B8131
:10169000282F30E081E090E002C0880F991F2A9542
:1016A000E2F7809584238C938981882F90E09C01B8
:1016B000220F331F220F331F8C819D81FC01E20F0B
:1016C000F31F83818823A9F4A5E3B0E0E5E3F0E00C
:1016D0008081482F8B81282F30E081E090E0022E1E
:1016E00002C0880F991F0A94E2F7809584238C9397
:1016F000FEC08981882F90E09C01220F331F220FAA
:10170000331F8C819D81FC01E20FF31F83818130A7
:1017100009F0EDC0A5E3B0E0E5E3F0E08081482FFB
:101720008B81282F30E081E090E0022E02C0880FEC
:10173000991F0A94E2F7842B8C93D9C08981882F52
:1017400090E09C01220F331F220F331F8C819D815B
:10175000FC01E20FF31F8281813009F05CC0A1E33C
:10176000B0E0E1E3F0E08081482F8B81282F30E06A
:1017700081E090E002C0880F991F2A95E2F7842B40
:101780008C938981882F90E09C01220F331F220FB8
:10179000331F8C819D81FC01E20FF31F8181813019
:1017A000A1F4A2E3B0E0E2E3F0E08081482F8B8176
:1017B000282F30E081E090E0022E02C0880F991FB0
:1017C0000A94E2F7842B8C9392C08981882F90E051
:1017D0009C01220F331F220F331F8C819D81FC013E
:1017E000E20FF31F8181882309F081C0A2E3B0E0FA
:1017F000E2E3F0E08081482F8B81282F30E081E008
:1018000090E0022E02C0880F991F0A94E2F780959B
:1018100084238C936CC08981882F90E09C01220FD7
:10182000331F220F331F8C819D81FC01E20FF31FB8
:101830008281882309F05BC0A1E3B0E0E1E3F0E03E
:101840008081482F8B81282F30E081E090E002C01A
:10185000880F991F2A95E2F7809584238C938981BC
:10186000882F90E09C01220F331F220F331F8C81A1
:101870009D81FC01E20FF31F83818823A9F4A2E379
:10188000B0E0E2E3F0E08081482F8B81282F30E048
:1018900081E090E0022E02C0880F991F0A94E2F7BF
:1018A000809584238C9323C08981882F90E09C01AC
:1018B000220F331F220F331F8C819D81FC01E20F09
:1018C000F31F8381813099F4A2E3B0E0E2E3F0E01A
:1018D0008081482F8B81282F30E081E090E0022E1C
:1018E00002C0880F991F0A94E2F7842B8C93898198
:1018F0008F5F89838981893108F445CC27960FB69B
:10190000F894DEBF0FBECDBFCF91DF910895DF9376
:10191000CF93CDB7DEB77894CF91DF910895DF9361
:10192000CF93CDB7DEB7F894CF91DF910895DF93D1
:10193000CF9300D000D000D0CDB7DEB78C838C81A0
:101940009AE0692F0E943920892F8B838C819AE03D
:10195000692F0E9439208A838A81282F30E03E83B4
:101960002D834D815E814230510541F18D819E81F3
:101970008330910534F42D813E812130310561F0B1
:1019800052C04D815E814330510551F18D819E8160
:1019900084309105B9F147C0E9E3F0E08081282F58
:1019A00030E08B81882F90E0A90102C055954795C2
:1019B0008A95E2F7CA018170898335C0E6E3F0E0D9
:1019C0008081282F30E08B81882F90E0A90102C010
:1019D000559547958A95E2F7CA018170898323C09E
:1019E000E3E3F0E08081282F30E08B81882F90E0C6
:1019F000A90102C0559547958A95E2F7CA01817001
:101A0000898311C0E0E3F0E08081282F30E08B81F2
:101A1000882F90E0A90102C0559547958A95E2F775
:101A2000CA0181708983898126960FB6F894DEBF3A
:101A30000FBECDBFCF91DF910895DF93CF93CDB788
:101A4000DEB728970FB6F894DEBF0FBECDBF8B83ED
:101A50006C838B819AE0692F0E943920892F8A83B9
:101A60008B819AE0692F0E94392089838C81813093
:101A700009F070C08981282F30E038872F838F814B
:101A800098858230910551F12F81388523303105B9
:101A900034F48F8198858130910561F0D3C02F8116
:101AA00038852330310571F18F8198858430910517
:101AB000E9F1C8C0ABE3B0E0EBE3F0E08081482F90
:101AC0008A81282F30E081E090E0022E02C0880F4A
:101AD000991F0A94E2F7842B8C93B4C0A8E3B0E07A
:101AE000E8E3F0E08081482F8A81282F30E081E010
:101AF00090E0022E02C0880F991F0A94E2F7842B0F
:101B00008C93A0C0A5E3B0E0E5E3F0E08081482F2E
:101B10008A81282F30E081E090E0022E02C0880FF9
:101B2000991F0A94E2F7842B8C938CC0A2E3B0E057
:101B3000E2E3F0E08081482F8A81282F30E081E0C5
:101B400090E0022E02C0880F991F0A94E2F7842BBE
:101B50008C9378C08C81882309F074C08981282FE8
:101B600030E03E832D838D819E818230910561F12D
:101B70002D813E812330310534F48D819E81813069
:101B8000910569F05FC02D813E812330310589F1D7
:101B90008D819E818430910509F440C053C0ABE330
:101BA000B0E0EBE3F0E08081482F8A81282F30E01D
:101BB00081E090E0022E02C0880F991F0A94E2F79C
:101BC000809584238C933EC0A8E3B0E0E8E3F0E086
:101BD0008081482F8A81282F30E081E090E0022E1A
:101BE00002C0880F991F0A94E2F7809584238C9392
:101BF00029C0A5E3B0E0E5E3F0E08081482F8A81C9
:101C0000282F30E081E090E0022E02C0880F991F5B
:101C10000A94E2F7809584238C9314C0A2E3B0E089
:101C2000E2E3F0E08081482F8A81282F30E081E0D4
:101C300090E0022E02C0880F991F0A94E2F7809567
:101C400084238C9328960FB6F894DEBF0FBECDBFC9
:101C5000CF91DF910895DF93CF9300D000D0CDB71F
:101C6000DEB78A838A81282F30E03C832B838B81E7
:101C70009C8182309105D9F02B813C812330310544
:101C800034F48B819C818130910561F01EC02B81E1
:101C90003C812330310581F08B819C81843091051A
:101CA00081F013C0EBE3F0E0808189830EC0E8E3AC
:101CB000F0E08081898309C0E5E3F0E080818983D9
:101CC00004C0E2E3F0E08081898389810F900F9066
:101CD0000F900F90CF91DF910895DF93CF9300D0B5
:101CE00000D0CDB7DEB789836A838981282F30E0A1
:101CF0003C832B838B819C8182309105D9F02B8191
:101D00003C812330310534F48B819C8181309105F5
:101D100061F01EC02B813C812330310581F08B8125
:101D20009C818430910581F013C0EBE3F0E08A815F
:101D300080830EC0E8E3F0E08A81808309C0E5E398
:101D4000F0E08A81808304C0E2E3F0E08A8180834E
:101D50000F900F900F900F90CF91DF910895DF9328
:101D6000CF9300D000D00F92CDB7DEB78B838B819D
:101D70009AE0692F0E943920892F8A838B819AE00B
:101D8000692F0E94392089838981282F30E03D8383
:101D90002C838C819D818230910551F12C813D8174
:101DA0002330310534F48C819D818130910561F0BF
:101DB0005AC02C813D812330310571F18C819D8188
:101DC00084309105E9F14FC0ABE3B0E0EBE3F0E024
:101DD0008081482F8A81282F30E081E090E0022E18
:101DE00002C0880F991F0A94E2F784278C933BC0A6
:101DF000A8E3B0E0E8E3F0E08081482F8A81282F53
:101E000030E081E090E0022E02C0880F991F0A9412
:101E1000E2F784278C9327C0A5E3B0E0E5E3F0E088
:101E20008081482F8A81282F30E081E090E0022EC7
:101E300002C0880F991F0A94E2F784278C9313C07D
:101E4000A2E3B0E0E2E3F0E08081482F8A81282F0E
:101E500030E081E090E0022E02C0880F991F0A94C2
:101E6000E2F784278C930F900F900F900F900F90B4
:101E7000CF91DF910895DF93CF9300D000D00F92E0
:101E8000CDB7DEB749835A836B837C838D83A7E20A
:101E9000B0E0E7E2F0E08081282F80914304882FB2
:101EA00090E0880F991F82959295907F9827807F68
:101EB0009827822B8C93A7E2B0E0E7E2F0E08081E4
:101EC000282F8981882F90E0002496958795079484
:101ED000969587950794982F802D822B8C93A6E258
:101EE000B0E0E6E2F0E08081282F8A81882F90E040
:101EF000880F991F82959295907F9827807F9827C9
:101F0000822B8C93A6E2B0E0E6E2F0E08081282FFD
:101F10008B81882F90E0880F991F880F991F880F59
:101F2000991F822B8C93A6E2B0E0E6E2F0E080817C
:101F3000887F8C93A6E2B0E0E6E2F0E090818C81AD
:101F4000892B8C93A0E5B0E0E0E5F0E080818F7014
:101F50008C93A0E5B0E0E0E5F0E08081282F8D8152
:101F6000882F90E0880F991F82959295907F9827EF
:101F7000807F9827822B8C93A6E2B0E0E6E2F0E027
:101F8000808180688C930F900F900F900F900F902E
:101F9000CF91DF910895DF93CF93CDB7DEB7A6E25F
:101FA000B0E0E6E2F0E0808180648C93CF91DF9135
:101FB0000895DF93CF9300D000D000D0CDB7DEB727
:101FC00089837B836A83A7E2B0E0E7E2F0E0808167
:101FD000807E8C93A7E2B0E0E7E2F0E09081898117
:101FE000892B8C93E6E2F0E0808182958F70882FB8
:101FF00090E081709070009711F41E824FC0A6E2AD
:10200000B0E0E6E2F0E0808180618C93809143044F
:10201000282F30E03D832C838C819D81009711F126
:102020002C813D8121303105B9F5E4E2F0E0808179
:10203000882F90E0EA81FB8191838083EA81FB8194
:1020400020813181E5E2F0E08081882F90E0880FE7
:10205000991F880F991F822B932BEA81FB81918313
:1020600080831AC0E4E2F0E08081882F90E0EA816A
:10207000FB8191838083EA81FB8120813181E5E2CC
:10208000F0E08081882F90E0982F8827822B932B77
:10209000EA81FB819183808331E03E838E812696A5
:1020A0000FB6F894DEBF0FBECDBFCF91DF9108957C
:1020B000DF93CF9300D00F92CDB7DEB789837B83B8
:1020C0006A83A7E2B0E0E7E2F0E08081807E8C9353
:1020D000A7E2B0E0E7E2F0E090818981892B8C9360
:1020E0008A819B8190934204809341040F900F90CA
:1020F0000F90CF91DF9108951F920F920FB60F921C
:1021000011242F933F934F935F936F937F938F93FC
:102110009F93AF93BF93EF93FF93DF93CF93CDB78D
:10212000DEB78091410490914204009729F0E0913C
:102130004104F09142040995CF91DF91FF91EF9115
:10214000BF91AF919F918F917F916F915F914F91CF
:102150003F912F910F900FBE0F901F901895DF9316
:10216000CF93CDB7DEB7C45AD0400FB6F894DEBFD8
:102170000FBECDBFFE01E256FF4F20833183428365
:1021800053836483758386838091C6029091C702CE
:10219000A091C802B091C902BC01CD010E945007B4
:1021A000FE01E256FF4F8081282F30E000D000D0A2
:1021B00000D0EDB7FEB73196CE01CA9691838083E9
:1021C00080E690E093838283358324830E94D3202A
:1021D0008DB79EB706960FB6F8949EBF0FBE8DBF03
:1021E000CE01CA962BEA34E0B90140ED57E00E94D7
:1021F000AB1489AF89AD882309F079C00E94631BB5
:102200008FE690E00E947E1B80E090E0AAEFB4E4AD
:102210008DAB9EABAFABB8AF6DA97EA98FA998ADC2
:1022200020E030E04AE755E40E941F02DC01CB01C8
:1022300089AB9AABABABBCAB69A97AA98BA99CA9BA
:1022400020E030E040E85FE30E94550488232CF44E
:1022500081E090E098AB8FA73FC069A97AA98BA9CC
:102260009CA920E03FEF4FE757E40E94F5031816C2
:102270004CF56DA97EA98FA998AD20E030E040E231
:1022800051E40E941F02DC01CB01BC01CD010E9480
:102290004900DC01CB0198AB8FA70FC080E991E02A
:1022A0009EA78DA78DA59EA50197F1F79EA78DA747
:1022B0008FA598A9019798AB8FA78FA598A900978C
:1022C00069F7A1C069A97AA98BA99CA90E944900B4
:1022D000DC01CB0198AB8FA78FA598A99CA78BA7F2
:1022E0008BA59CA50197F1F79CA78BA78CC089AD06
:1022F000813009F07FC00E94631B81E890E00E945A
:102300007E1B80E090E0AAEFB4E48FA398A7A9A772
:10231000BAA76FA178A589A59AA520E030E04AE781
:1023200055E40E941F02DC01CB018BA39CA3ADA34B
:10233000BEA36BA17CA18DA19EA120E030E040E86E
:102340005FE30E94550488232CF481E090E09AA377
:1023500089A33FC06BA17CA18DA19EA120E03FEF8E
:102360004FE757E40E94F50318164CF56FA178A5C6
:1023700089A59AA520E030E040E251E40E941F02C6
:10238000DC01CB01BC01CD010E944900DC01CB0185
:102390009AA389A30FC080E991E098A38F8F8F8DB6
:1023A00098A10197F1F798A38F8F89A19AA101971E
:1023B0009AA389A389A19AA1009769F714C06BA178
:1023C0007CA18DA19EA10E944900DC01CB019AA3B2
:1023D00089A389A19AA19E8F8D8F8D8D9E8D019746
:1023E000F1F79E8F8D8F0E94631B8BEA94E00E9411
:1023F0007E1B09C089AD823031F40E94631B89E9DC
:1024000090E00E947E1BFE01E256FF4F2181328147
:10241000FE01E256FF4F438154818DB79EB7089766
:102420000FB6F8949EBF0FBE8DBFEDB7FEB73196C5
:10243000CE01CA969183808382EB90E0938382835E
:1024400035832483578346830E94D3208DB79EB75C
:1024500008960FB6F8949EBF0FBE8DBFCE01CA96E8
:102460002BEA34E0B90140ED57E00E94AB1489AF8C
:1024700089AD882309F079C00E94631B87EC90E046
:102480000E947E1B80E090E0AAEFB4E4898F9A8FCF
:10249000AB8FBC8F698D7A8D8B8D9C8D20E030E069
:1024A0004AE755E40E941F02DC01CB018D8B9E8B15
:1024B000AF8BB88F6D897E898F89988D20E030E051
:1024C00040E85FE30E94550488232CF481E090E00B
:1024D0009C8B8B8B3FC06D897E898F89988D20E086
:1024E0003FEF4FE757E40E94F50318164CF5698D4E
:1024F0007A8D8B8D9C8D20E030E040E251E40E948B
:102500001F02DC01CB01BC01CD010E944900DC01AE
:10251000CB019C8B8B8B0FC080E991E09A8B898BD0
:1025200089899A890197F1F79A8B898B8B899C8984
:1025300001979C8B8B8B8B899C89009769F7A1C035
:102540006D897E898F89988D0E944900DC01CB01BD
:102550009C8B8B8B8B899C89988B8F878F85988997
:102560000197F1F7988B8F878CC089AD813009F086
:102570007FC00E94631B8EED90E00E947E1B80E076
:1025800090E0AAEFB4E48B879C87AD87BE876B850C
:102590007C858D859E8520E030E04AE755E40E94E9
:1025A0001F02DC01CB018F839887A987BA876F81CF
:1025B000788589859A8520E030E040E85FE30E94D5
:1025C000550488232CF481E090E09E838D833FC0E6
:1025D0006F81788589859A8520E03FEF4FE757E442
:1025E0000E94F50318164CF56B857C858D859E85BC
:1025F00020E030E040E251E40E941F02DC01CB0108
:10260000BC01CD010E944900DC01CB019E838D837A
:102610000FC080E991E09C838B838B819C81019723
:10262000F1F79C838B838D819E8101979E838D839F
:102630008D819E81009769F714C06F8178858985A7
:102640009A850E944900DC01CB019E838D838D8198
:102650009E819A83898389819A810197F1F79A8370
:1026600089830E94631B8BEA94E00E947E1B09C051
:1026700089AD823031F40E94631B86EF90E00E94A6
:102680007E1BCC55DF4F0FB6F894DEBF0FBECDBF1B
:10269000CF91DF910895DF93CF93CDB7DEB76D97DC
:1026A0000FB6F894DEBF0FBECDBF8FE091E02BEAEE
:1026B00034E0B90140ED57E00E94AB148D8F8DE1FD
:1026C00091E02BEA34E0B90140ED57E00E94AB14F1
:1026D0008D8F8D8D882309F079C00E94631B8EE257
:1026E00091E00E947E1B80E090E0AAEFB4E4898F25
:1026F0009A8FAB8FBC8F698D7A8D8B8D9C8D20E0EE
:1027000030E04AE755E40E941F02DC01CB018D8BCB
:102710009E8BAF8BB88F6D897E898F89988D20E0D5
:1027200030E040E85FE30E94550488232CF481E008
:1027300090E09C8B8B8B3FC06D897E898F89988DB3
:1027400020E03FEF4FE757E40E94F50318164CF5E1
:10275000698D7A8D8B8D9C8D20E030E040E251E4D4
:102760000E941F02DC01CB01BC01CD010E94490087
:10277000DC01CB019C8B8B8B0FC080E991E09A8BA5
:10278000898B89899A890197F1F79A8B898B8B8933
:102790009C8901979C8B8B8B8B899C89009769F70F
:1027A00097C06D897E898F89988D0E944900DC01D0
:1027B000CB019C8B8B8B8B899C89988B8F878F858A
:1027C00098890197F1F7988B8F8782C08D8D813022
:1027D00009F07EC00E94631B81E491E00E947E1B91
:1027E00080E090E0AAEFB4E48B879C87AD87BE873A
:1027F0006B857C858D859E8520E030E04AE755E439
:102800000E941F02DC01CB018F839887A987BA87BA
:102810006F81788589859A8520E030E040E85FE324
:102820000E94550488232CF481E090E09E838D83E0
:102830003FC06F81788589859A8520E03FEF4FE71B
:1028400057E40E94F50318164CF56B857C858D8541
:102850009E8520E030E040E251E40E941F02DC014E
:10286000CB01BC01CD010E944900DC01CB019E835C
:102870008D830FC080E991E09C838B838B819C8149
:102880000197F1F79C838B838D819E8101979E83B5
:102890008D838D819E81009769F714C06F81788543
:1028A00089859A850E944900DC01CB019E838D8336
:1028B0008D819E819A83898389819A810197F1F71D
:1028C0009A8389830E94631B8BEA94E00E947E1B9B
:1028D0006D960FB6F894DEBF0FBECDBFCF91DF91DE
:1028E0000895DF93CF9300D000D00F92CDB7DEB71D
:1028F0009C838B831A8219821EC029813A818B8125
:102900009C81FC01E20FF31F80818F3479F489816F
:102910009A819C012F5F3F4F8B819C81FC01E20FCC
:10292000F31F80818B3411F41D820CC089819A8140
:1029300001969A83898389819A8185369105ECF283
:1029400081E08D838D810F900F900F900F900F90ED
:10295000CF91DF910895EF92FF920F931F93DF9332
:10296000CF93CDB7DEB72D970FB6F894DEBF0FBE6D
:10297000CDBF98878F837A8769875C874B8760E0B4
:1029800074E284EF90E00E94E01E8F8198850E949F
:102990002C081E821D820E94261FDC01CB01898328
:1029A0009A83AB83BC8389819A81AB81BC8180533C
:1029B000984FAF4FBF4F7C018D010E94261FDC0155
:1029C000CB01E816F9060A071B0700F11AC02D8192
:1029D0003E8189859A858C01020F131F0E94EB07A7
:1029E000F80180832D813E8189859A85FC01E20F63
:1029F000F31F8081882329F08D819E8101969E831B
:102A00008D8380914004882311F7CDCF2D813E81A5
:102A100089859A85FC01E20FF31F10828D819E81CA
:102A2000009719F4F2E0FD8705C089859A850E9418
:102A300071148D878D852D960FB6F894DEBF0FBE6D
:102A4000CDBFCF91DF911F910F91FF90EF9008952F
:102A5000DF93CF9300D000D000D0CDB7DEB79D83F9
:102A60008C838C819D8124E531E0B9010E94B920DD
:102A70009B838A838A819B81009799F08A819B81BD
:102A8000FC0133968081805389838981882319F4DE
:102A900082E08E8307C08981813019F481E08E83C2
:102AA00001C01E828E8126960FB6F894DEBF0FBE3F
:102AB000CDBFCF91DF910895DF93CF9300D00F92D8
:102AC000CDB7DEB79A8389830E944707882331F008
:102AD00089819A810E9474081B8202C081E08B83E5
:102AE0008B810F900F900F90CF91DF910895DF931E
:102AF000CF93CDB7DEB74091B3025091B40260914D
:102B0000B5027091B6028091B7020E943B0FCF913F
:102B1000DF910895DF93CF93CDB7DEB7C355D04093
:102B20000FB6F894DEBF0FBECDBFFE01EF5AFF4FC8
:102B300080831E8E1D8E1C8EDFC00E94CB0F0BC0AB
:102B4000FE01EF5AFF4F9E01295D3F4F8081B90181
:102B50000E94D90F8E8F8E8D882391F32C8D3D8D01
:102B60008FA198A5482FCE018996FC01E20FF31F93
:102B7000408380E090E0A8ECB2E48D8B9E8BAF8B1D
:102B8000B88F6D897E898F89988D2BEA3AEA4AEA57
:102B900050E40E941F02DC01CB01898B9A8BAB8B26
:102BA000BC8B69897A898B899C8920E030E040E878
:102BB0005FE30E94550488231CF481E0888B91C058
:102BC00069897A898B899C8920E030E04FE753E45A
:102BD0000E94F50318160CF07BC06D897E898F89E1
:102BE000988D20E030E04AE754E40E941903DC01AC
:102BF000CB018C879D87AE87BF876C857D858E8551
:102C00009F8520E030E04AE755E40E941F02DC0186
:102C1000CB0188879987AA87BB87688579858A854C
:102C20009B8520E030E040E85FE30E945504882364
:102C30002CF481E090E09F838E833FC06885798586
:102C40008A859B8520E03FEF4FE757E40E94F5031C
:102C500018164CF56C857D858E859F8520E030E0CB
:102C600040E251E40E941F02DC01CB01BC01CD0116
:102C70000E944900DC01CB019F838E830FC080E955
:102C800091E09D838C838C819D810197F1F79D83D9
:102C90008C838E819F8101979F838E838E819F81FC
:102CA000009769F724C0688579858A859B850E948D
:102CB0004900DC01CB019F838E838E819F819B83A2
:102CC0008A838A819B810197F1F79B838A830FC056
:102CD00069897A898B899C890E944900DC01CB0132
:102CE000888B8889898389818A95F1F789838C8D7E
:102CF0009D8D01969D8F8C8F8C8D9D8D8832910539
:102D00000CF41BCF1D8E1C8E56C01B8E1A8E42C01B
:102D10002A8D3B8DCE018996FC01E20FF31F408185
:102D20008A8D9B8D9C012F5F3F4FCE018996FC01C0
:102D3000E20FF31F8081841740F52A8D3B8DCE0171
:102D40008996FC01E20FF31F8081898F4A8D5B8D8C
:102D50008A8D9B8D9C012F5F3F4FCE018996FC0190
:102D6000E20FF31F2081CE018996FC01E40FF51FCD
:102D700020838A8D9B8D9C012F5F3F4FCE018996CA
:102D8000FC01E20FF31F898D80838A8D9B8D019654
:102D90009B8F8A8F27E230E08A8D9B8D281B390B11
:102DA0008A8D9B8D821793070CF4B2CF8C8D9D8DED
:102DB00001969D8F8C8F8C8D9D8D883291050CF4A2
:102DC000A4CF8DAD282F30E08CAD882F90E0820FFE
:102DD000931F64969FAF8EAF649764968EAD9FAD40
:102DE000649799234CF464968EAD9FAD64970196D9
:102DF00064969FAF8EAF649764968EAD9FAD6497D7
:102E00009595879598A78FA38FA198A5CC01A0E051
:102E1000B0E0BC01CD010E94D904DC01CB01BC01B2
:102E2000CD0120E030E44CE950E40E941F02DC01B7
:102E3000CB018BA39CA3ADA3BEA36BA17CA18DA151
:102E40009EA120E030E849E054E40E94C5038823B5
:102E500049F480E090E0A0E0B0E08F8F98A3A9A3B0
:102E6000BAA310C06BA17CA18DA19EA120E030E08F
:102E700040E251E40E941903DC01CB018F8F98A33B
:102E8000A9A3BAA36F8D78A189A19AA10E94490034
:102E9000DC01CB01CD5ADF4F0FB6F894DEBF0FBE79
:102EA000CDBFCF91DF910895DF93CF93CDB7DEB73C
:102EB0004091AE025091AF026091B0027091B102A8
:102EC0008091B2020E943B0FCF91DF910895DF9372
:102ED000CF93CDB7DEB7E9970FB6F894DEBF0FBE3C
:102EE000CDBF89AF1E8E1D8E1C8EE0C00E94CB0F01
:102EF00008C09E012D5D3F4F89ADB9010E94D90FD9
:102F00008E8F8E8D8823A9F38C8D9D8D4BA15CA116
:102F10009C01220F331FCE010196820F931FFC01EB
:102F2000B4965183408380E090E0A8ECB2E48D8BAE
:102F30009E8BAF8BB88F6D897E898F89988D2BEA98
:102F40003AEA4AEA50E40E941F02DC01CB01898B75
:102F50009A8BAB8BBC8B69897A898B899C8920E0A1
:102F600030E040E85FE30E94550488231CF481E0D0
:102F7000888B91C069897A898B899C8920E030E0AF
:102F80004FE753E40E94F50318160CF07BC06D89DF
:102F90007E898F89988D20E030E04AE754E40E94D2
:102FA0001903DC01CB018C879D87AE87BF876C85B9
:102FB0007D858E859F8520E030E04AE755E40E94BC
:102FC0001F02DC01CB0188879987AA87BB876885A8
:102FD00079858A859B8520E030E040E85FE30E94A8
:102FE000550488232CF481E090E09F838E833FC0BA
:102FF000688579858A859B8520E03FEF4FE757E418
:103000000E94F50318164CF56C857D858E859F858D
:1030100020E030E040E251E40E941F02DC01CB01DD
:10302000BC01CD010E944900DC01CB019F838E834E
:103030000FC080E991E09D838C838C819D810197F5
:10304000F1F79D838C838E819F8101979F838E836F
:103050008E819F81009769F724C0688579858A856C
:103060009B850E944900DC01CB019F838E838E816A
:103070009F819B838A838A819B810197F1F79B8340
:103080008A830FC069897A898B899C890E9449004B
:10309000DC01CB01888B8889898389818A95F1F746
:1030A00089838C8D9D8D01969D8F8C8F8C8D9D8DB0
:1030B0008A3091050CF41ACF1D8E1C8E72C01B8EA7
:1030C0001A8E5EC08A8D9B8D9C01220F331FCE010C
:1030D0000196820F931FFC01B496408151818A8D25
:1030E0009B8D01969C01220F331FCE010196820F0A
:1030F000931FFC01B4968081918184179507D8F5C0
:103100008A8D9B8D9C01220F331FCE010196820F69
:10311000931FFC01B49680819181898F6A8D7B8D8C
:103120008A8D9B8D01969C01220F331FCE01019643
:10313000820F931FFC01B496408151819B01220FA5
:10314000331FCE010196820F931FFC01B496518369
:1031500040838A8D9B8D9C012F5F3F4F898D482F27
:1031600050E0220F331FCE010196820F931FFC0106
:10317000B496518340838A8D9B8D01969B8F8A8F55
:1031800029E030E08A8D9B8D281B390B8A8D9B8D21
:10319000821793070CF496CF8C8D9D8D01969D8F91
:1031A0008C8F8C8D9D8D8A3091050CF488CF2FA546
:1031B00038A98DA59EA5820F931F969587959CA3F0
:1031C0008BA38BA19CA1CC01A0E0B0E0BC01CD0100
:1031D0000E94D904DC01CB01BC01CD0120E030E428
:1031E0004CE950E40E941F02DC01CB018F8F98A3B1
:1031F000A9A3BAA36F8D78A189A19AA10E944900C1
:10320000DC01CB01E9960FB6F894DEBF0FBECDBF4F
:10321000CF91DF910895DF93CF930F92CDB7DEB7B3
:10322000898389810E941D1989818295807F0E94EE
:103230001D190F90CF91DF910895DF93CF93CDB7F4
:10324000DEB7EF970FB6F894DEBF0FBECDBF8FAFDE
:103250008FAD982F991F9927991F88E1692F0E9498
:103260001D0D8FAD8295869586958370982F9170F0
:1032700086E1692F0E941D0D8FAD8295869587701E
:10328000982F917085E1692F0E941D0D8FAD829559
:103290008F70982F917084E1692F0E941D0D8CE032
:1032A00060E00E941D0D80E090E0A0E2B1E48BAFF1
:1032B0009CAFADAFBEAF6BAD7CAD8DAD9EAD2BEA1F
:1032C0003AEA4AEA50E40E941F02DC01CB018FABCC
:1032D00098AFA9AFBAAF6FA978AD89AD9AAD20E02C
:1032E00030E040E85FE30E94550488231CF481E04D
:1032F0008EAB91C06FA978AD89AD9AAD20E030E07A
:103300004FE753E40E94F50318160CF07BC06BAD39
:103310007CAD8DAD9EAD20E030E04AE754E40E94E4
:103320001903DC01CB018AAB9BABACABBDAB6AA98B
:103330007BA98CA99DA920E030E04AE755E40E94D2
:103340001F02DC01CB018EA79FA7A8ABB9AB6EA56E
:103350007FA588A999A920E030E040E85FE30E94BA
:10336000550488232CF481E090E09DA78CA73FC0F2
:103370006EA57FA588A999A920E03FEF4FE757E404
:103380000E94F50318164CF56AA97BA98CA99DA982
:1033900020E030E040E251E40E941F02DC01CB015A
:1033A000BC01CD010E944900DC01CB019DA78CA787
:1033B0000FC080E991E09BA78AA78AA59BA50197EA
:1033C000F1F79BA78AA78CA59DA501979DA78CA720
:1033D0008CA59DA5009769F724C06EA57FA588A937
:1033E00099A90E944900DC01CB019DA78CA78CA55F
:1033F0009DA599A788A788A599A50197F1F799A7F1
:1034000088A70FC06FA978AD89AD9AAD0E94490019
:10341000DC01CB018EAB8EA98FA38FA18A95F1F72A
:103420008FA38CE061E00E941D0D80E090E0A8EC8D
:10343000B2E48BA39CA3ADA3BEA36BA17CA18DA181
:103440009EA12BEA3AEA4AEA50E40E941F02DC01FC
:10345000CB018F8F98A3A9A3BAA36F8D78A189A15F
:103460009AA120E030E040E85FE30E945504882301
:103470001CF481E08E8F91C06F8D78A189A19AA1F3
:1034800020E030E04FE753E40E94F50318160CF0FB
:103490007BC06BA17CA18DA19EA120E030E04AE71A
:1034A00054E40E941903DC01CB018A8F9B8FAC8FFF
:1034B000BD8F6A8D7B8D8C8D9D8D20E030E04AE73D
:1034C00055E40E941F02DC01CB018E8B9F8BA88FDD
:1034D000B98F6E897F89888D998D20E030E040E832
:1034E0005FE30E94550488232CF481E090E09D8BDB
:1034F0008C8B3FC06E897F89888D998D20E03FEF4E
:103500004FE757E40E94F50318164CF56A8D7B8D42
:103510008C8D9D8D20E030E040E251E40E941F023E
:10352000DC01CB01BC01CD010E944900DC01CB01D3
:103530009D8B8C8B0FC080E991E09B8B8A8B8A8955
:103540009B890197F1F79B8B8A8B8C899D890197C9
:103550009D8B8C8B8C899D89009769F724C06E891F
:103560007F89888D998D0E944900DC01CB019D8B5C
:103570008C8B8C899D89998B888B888999890197F7
:10358000F1F7998B888B0FC06F8D78A189A19AA1D3
:103590000E944900DC01CB018E8F8E8D8F878F8535
:1035A0008A95F1F78F878CE060E00E941D0D80E026
:1035B00090E0A0E8BFE38B879C87AD87BE876B85D3
:1035C0007C858D859E8520E030E04AE755E40E94A9
:1035D0001F02DC01CB018F839887A987BA876F818F
:1035E000788589859A8520E030E040E85FE30E9495
:1035F000550488232CF481E090E09E838D833FC0A6
:103600006F81788589859A8520E03FEF4FE757E401
:103610000E94F50318164CF56B857C858D859E857B
:1036200020E030E040E251E40E941F02DC01CB01C7
:10363000BC01CD010E944900DC01CB019E838D833A
:103640000FC080E991E09C838B838B819C810197E3
:10365000F1F79C838B838D819E8101979E838D835F
:103660008D819E81009769F714C06F817885898567
:103670009A850E944900DC01CB019E838D838D8158
:103680009E819A83898389819A810197F1F79A8330
:103690008983EF960FB6F894DEBF0FBECDBFCF91F2
:1036A000DF910895DF93CF930F92CDB7DEB7898373
:1036B0008DE060E00E941D0D89810E940B190F9022
:1036C000CF91DF910895DF93CF93CDB7DEB781E03F
:1036D0000E94521BCF91DF910895DF93CF930F92F9
:1036E000CDB7DEB789838DE061E00E941D0D898131
:1036F0000E940B190F90CF91DF910895DF93CF9324
:1037000000D000D0CDB7DEB79C838B831A8219829C
:1037100019C029813A818B819C81FC01E20FF31F42
:1037200080818823A1F029813A818B819C81FC01D1
:10373000E20FF31F80810E946D1B89819A8101969F
:103740009A83898389819A818436910514F30F9035
:103750000F900F900F90CF91DF9108950F931F93CB
:10376000DF93CF93CDB7DEB762970FB6F894DEBF85
:103770000FBECDBF6F87788B898B9A8B1C821B8283
:103780002FC00B811C818F859889A989BA892AE06D
:1037900030E040E050E0BC01CD010E946720DC0138
:1037A000CB01282F205DCE010596FC01E00FF11F13
:1037B00020838F859889A989BA892AE030E040E082
:1037C00050E0BC01CD010E946720DA01C9018F875A
:1037D000988BA98BBA8B8B819C8101969C838B8360
:1037E0008F859889A989BA890097A105B10549F6FD
:1037F0002B813C81CE010596FC01E20FF31F108264
:103800008B819C8101979A8389830FC029813A819A
:10381000CE010596FC01E20FF31F80810E946D1B13
:1038200089819A8101979A83898389819A819923D1
:103830006CF762960FB6F894DEBF0FBECDBFCF9186
:10384000DF911F910F9108950F931F93DF93CF93F3
:10385000CDB7DEB7C754D0400FB6F894DEBF0FBE69
:10386000CDBFFE01ED5BFF4F80E090E0A8E4B2E445
:1038700080839183A283B3838E01015C1F4FFE017D
:10388000ED5BFF4F608171818281938120E030E0A8
:103890004AE755E40E941F02DC01CB01F801808356
:1038A0009183A283B383FE01FF966081718182813F
:1038B000938120E030E040E85FE30E9455048823D4
:1038C0002CF481E090E09EAF8DAF46C0FE01FF96E4
:1038D000608171818281938120E03FEF4FE757E45F
:1038E0000E94F503181664F5FE01ED5BFF4F608141
:1038F00071818281938120E030E040E251E40E94B6
:103900001F02DC01CB01BC01CD010E944900DC019A
:10391000CB019EAF8DAF0FC080E991E09CAF8BAF24
:103920008BAD9CAD0197F1F79CAF8BAF8DAD9EAD8C
:1039300001979EAF8DAF8DAD9EAD009769F716C014
:10394000FE01FF9660817181828193810E9449000E
:10395000DC01CB019EAF8DAF8DAD9EAD9AAF89AF2F
:1039600089AD9AAD0197F1F79AAF89AF8CE060E02D
:103970000E941D0D8DE060E00E941D0D80E20E94FE
:103980001D1980E20E941D1980E30E941D1980E02C
:1039900090E0A0E8BFE38DAB9EABAFABB8AF6DA935
:1039A0007EA98FA998AD20E030E04AE755E40E9457
:1039B0001F02DC01CB0189AB9AABABABBCAB69A9F5
:1039C0007AA98BA99CA920E030E040E85FE30E943F
:1039D000550488232CF481E090E098AB8FA73FC07A
:1039E00069A97AA98BA99CA920E03FEF4FE757E48A
:1039F0000E94F50318164CF56DA97EA98FA998AD04
:103A000020E030E040E251E40E941F02DC01CB01E3
:103A1000BC01CD010E944900DC01CB0198AB8FA70E
:103A20000FC080E991E09EA78DA78DA59EA5019767
:103A3000F1F79EA78DA78FA598A9019798AB8FA79F
:103A40008FA598A9009769F714C069A97AA98BA9CD
:103A50009CA90E944900DC01CB0198AB8FA78FA5E0
:103A600098A99CA78BA78BA59CA50197F1F79CA76C
:103A70008BA7FE01E95BFF4F1082DE01A95BBF4F00
:103A8000FE01E95BFF4F808184608C93FE01E95B5E
:103A9000FF4F808188600E94521B80E090E0A0E888
:103AA000BFE38FA398A7A9A7BAA76FA178A589A5F7
:103AB0009AA520E030E04AE755E40E941F02DC01AD
:103AC000CB018BA39CA3ADA3BEA36BA17CA18DA1B5
:103AD0009EA120E030E040E85FE30E945504882387
:103AE0002CF481E090E09AA389A33FC06BA17CA154
:103AF0008DA19EA120E03FEF4FE757E40E94F50320
:103B000018164CF56FA178A589A59AA520E030E09C
:103B100040E251E40E941F02DC01CB01BC01CD0157
:103B20000E944900DC01CB019AA389A30FC080E960
:103B300091E098A38F8F8F8D98A10197F1F798A3AB
:103B40008F8F89A19AA101979AA389A389A19AA18C
:103B5000009769F714C06BA17CA18DA19EA10E9462
:103B60004900DC01CB019AA389A389A19AA19E8F68
:103B70008D8F8D8D9E8D0197F1F79E8F8D8F81E0BA
:103B80000E94521B80E090E0A0E4B0E4898F9A8FFD
:103B9000AB8FBC8F698D7A8D8B8D9C8D20E030E052
:103BA0004AE755E40E941F02DC01CB018D8B9E8BFE
:103BB000AF8BB88F6D897E898F89988D20E030E03A
:103BC00040E85FE30E94550488232CF481E090E0F4
:103BD0009C8B8B8B3FC06D897E898F89988D20E06F
:103BE0003FEF4FE757E40E94F50318164CF5698D37
:103BF0007A8D8B8D9C8D20E030E040E251E40E9474
:103C00001F02DC01CB01BC01CD010E944900DC0197
:103C1000CB019C8B8B8B0FC080E991E09A8B898BB9
:103C200089899A890197F1F79A8B898B8B899C896D
:103C300001979C8B8B8B8B899C89009769F714C0AB
:103C40006D897E898F89988D0E944900DC01CB01A6
:103C50009C8B8B8B8B899C89988B8F878F85988980
:103C60000197F1F7988B8F8786E00E94521B80E0C6
:103C700090E0A0E4B0E48B879C87AD87BE876B851E
:103C80007C858D859E8520E030E04AE755E40E94E2
:103C90001F02DC01CB018F839887A987BA876F81C8
:103CA000788589859A8520E030E040E85FE30E94CE
:103CB000550488232CF481E090E09E838D833FC0DF
:103CC0006F81788589859A8520E03FEF4FE757E43B
:103CD0000E94F50318164CF56B857C858D859E85B5
:103CE00020E030E040E251E40E941F02DC01CB0101
:103CF000BC01CD010E944900DC01CB019E838D8374
:103D00000FC080E991E09C838B838B819C8101971C
:103D1000F1F79C838B838D819E8101979E838D8398
:103D20008D819E81009769F714C06F8178858985A0
:103D30009A850E944900DC01CB019E838D838D8191
:103D40009E819A83898389819A810197F1F79A8369
:103D50008983C95BDF4F0FB6F894DEBF0FBECDBFBE
:103D6000CF91DF911F910F9108951F920F920FB67F
:103D70000F9211248F939F93AF93BF93DF93CF93B1
:103D8000CDB7DEB780910F0590911005A091110578
:103D9000B09112050196A11DB11D80930F0590935E
:103DA0001005A0931105B0931205CF91DF91BF913B
:103DB000AF919F918F910F900FBE0F901F9018950C
:103DC000DF93CF93CDB7DEB728970FB6F894DEBF59
:103DD0000FBECDBF6D837E838F8398878D819E813B
:103DE000AF81B88520E43FE140E050E0BC01CD0167
:103DF0000E944520DA01C90189839A83AB83BC8381
:103E0000AEE4B0E0EEE4F0E080818A608C93EBE415
:103E1000F0E089819A81AB81BC81892F9A2FAB2FE9
:103E2000BB278083EAE4F0E089818083A9E5B0E0E4
:103E3000E9E5F0E0808180618C9328960FB6F894D4
:103E4000DEBF0FBECDBFCF91DF910895DF93CF933B
:103E500000D000D000D0CDB7DEB71E820E94551F23
:103E600089830DC080910F0590911005A0911105D7
:103E7000B09112058A839B83AC83BD8319828981AB
:103E8000882381F7CE0106960E945E1F8A819B815E
:103E9000AC81BD81BC01CD0126960FB6F894DEBF82
:103EA0000FBECDBFCF91DF910895DF93CF93CDB7F4
:103EB000DEB7F89481E0CF91DF910895DF93CF933F
:103EC00000D0CDB7DEB79A83898378940F900F9096
:103ED000CF91DF910895DF93CF93CDB7DEB72091D7
:103EE000CA023091CB024091CC025091CD02609138
:103EF000CE027091CF028091D0020E94AF100E943A
:103F00004B13CF91DF910895DF93CF9300D00F92A1
:103F1000CDB7DEB79A83898389819A810E945C1527
:103F2000882311F41B8202C081E08B838B810F9068
:103F30000F900F90CF91DF910895DF93CF93CDB77E
:103F4000DEB72E970FB6F894DEBF0FBECDBF81ED62
:103F500092E00E94B0080E94241C84E791E00E9435
:103F60007E1B78940E946B1F80E090E0AAEFB4E47F
:103F70008B879C87AD87BE876B857C858D859E856D
:103F800020E030E04AE755E40E941F02DC01CB014B
:103F90008F839887A987BA876F81788589859A8565
:103FA00020E030E040E85FE30E94550488232CF4D1
:103FB00081E090E09E838D833FC06F817885898505
:103FC0009A8520E03FEF4FE757E40E94F50318166B
:103FD0004CF56B857C858D859E8520E030E040E248
:103FE00051E40E941F02DC01CB01BC01CD010E9403
:103FF0004900DC01CB019E838D830FC080E991E0F5
:104000009C838B838B819C810197F1F79C838B83AD
:104010008D819E8101979E838D838D819E810097E6
:1040200069F714C06F81788589859A850E94490057
:10403000DC01CB019E838D838D819E819A83898350
:1040400089819A810197F1F79A8389830E94631B82
:1040500089E791E00E947E1B8BEA94E00E94841F16
:104060008823D1F70E94631B8BEA94E00E947E1B99
:10407000F3CF991B79E004C0991F961708F0961B9F
:10408000881F7A95C9F780950895A1E21A2EAA1B78
:10409000BB1BFD010DC0AA1FBB1FEE1FFF1FA217F8
:1040A000B307E407F50720F0A21BB30BE40BF50BF5
:1040B000661F771F881F991F1A9469F7609570957E
:1040C000809590959B01AC01BD01CF01089597FBB0
:1040D000092E05260ED057FD04D0D7DF0AD0001CCC
:1040E00038F450954095309521953F4F4F4F5F4F95
:1040F0000895F6F790958095709561957F4F8F4F55
:104100009F4F08952F923F924F925F926F927F92AE
:104110008F929F92AF92BF92CF92DF92EF92FF92D7
:104120000F931F93CF93DF93CDB7DEB7CA1BDB0B83
:104130000FB6F894DEBF0FBECDBF09942A88398828
:1041400048885F846E847D848C849B84AA84B9842F
:10415000C884DF80EE80FD800C811B81AA81B9813B
:10416000CE0FD11D0FB6F894DEBF0FBECDBFED014F
:104170000895FB0151915523A9F0BF01DC014D9138
:1041800045174111E1F759F4CD010190002049F0A4
:104190004D9140154111C9F3FB014111EFCF81E071
:1041A00090E001970895AEE0B0E0E9EDF0E20C9404
:1041B00090200D891E8986E08C831A8309838FEFF6
:1041C0009FE79E838D839E01275E3F4FCE01019620
:1041D0006F89788DA9010E94F7202F813885020F01
:1041E000131FF80110822E96E4E00C94AC20ABE093
:1041F000B0E0EDEFF0E20C9482203C012B015A017B
:10420000FC0117821682838181FD03C06FEF7FEF6F
:10421000C6C19AE0892E1E010894211C311CF301AD
:104220002381F20123FD859123FF81912F018823B2
:1042300009F4B2C1853239F423FD859123FF8191C0
:104240002F01853229F490E0B3010E94EA22E7CFE2
:10425000982FFF24EE249924FFE1FF15D0F09B3224
:1042600069F09C3228F4903259F0933291F40EC0E8
:104270009D3249F0903369F441E024C052E0F52AC0
:1042800084E0F82A28C098E0F92A25C0E0E1FE2A57
:1042900022C0F7FC29C0892F80538A3070F4F6FEC3
:1042A00005C0989C902C1124980E15C0E89CE02C19
:1042B0001124E80EF0E2FF2A0EC09E3229F4F6FC2B
:1042C0006BC140E4F42A07C09C3619F450E8F52A83
:1042D00002C0983649F4F20123FD959123FF919194
:1042E0002F01992309F0B8CF892F8554833018F016
:1042F0008052833038F444E050E0A40EB51E5FE3F2
:1043000059830FC0933631F0933779F0933509F024
:1043100056C020C0F5018081898342E050E0A40EA0
:10432000B51E610101E010E012C0F501C080D1802E
:10433000F6FC03C06FEF7FEF02C0692D70E042E032
:1043400050E0A40EB51EC6010E94DF228C015FE77B
:10435000F52214C0F501C080D180F6FC03C06FEFD8
:104360007FEF02C0692D70E042E050E0A40EB51E60
:10437000C6010E94D4228C0150E8F52AF3FE07C042
:104380001AC080E290E0B3010E94EA22EA948E2DE6
:1043900090E008171907A8F30EC0F601F7FC859105
:1043A000F7FE81916F0190E0B3010E94EA22E110D3
:1043B000EA94015010400115110579F7EAC09436CE
:1043C00011F0993669F5F7FE08C0F50120813181B9
:1043D0004281538184E090E00AC0F501808191819F
:1043E0009C01442737FD4095542F82E090E0A80EB1
:1043F000B91E9FE6F92257FF09C0509540953095A8
:1044000021953F4F4F4F5F4FE0E8FE2ACA01B901A7
:10441000A1012AE030E00E941623D82ED21840C015
:10442000953729F41F2D1F7E2AE030E01DC01F2D77
:10443000197F9F3661F0903720F4983509F0ACC0B1
:104440000FC0903739F0983709F0A6C004C028E0B3
:1044500030E00AC0106114FD146020E130E004C0B7
:1044600014FD166020E132E017FF08C0F5016081FD
:1044700071818281938144E050E008C0F501808120
:104480009181BC0180E090E042E050E0A40EB51EB6
:10449000A1010E941623D82ED2188FE7F82EF12200
:1044A000F6FE0BC05EEFF522D91438F4F4FE07C017
:1044B000F2FC05C08FEEF82202C01D2D01C0192D9F
:1044C000F4FE0DC0FE01ED0DF11D8081803319F465
:1044D00099EEF92208C01F5FF2FE05C003C08F2DC0
:1044E000867809F01F5F0F2DF3FC14C0F0FE0FC09B
:1044F0001E1510F09D2C0BC09D2C9E0C911A1E2D8C
:1045000006C080E290E0B3010E94EA221F5F1E1500
:10451000C0F304C01E1510F4E11A01C0EE2404FF1C
:104520000FC080E390E0B3010E94EA2202FF1DC0A9
:1045300001FD03C088E790E00EC088E590E00BC065
:10454000802F867891F001FF02C08BE201C080E2EB
:10455000F7FC8DE290E0B3010E94EA2206C080E3FE
:1045600090E0B3010E94EA229A94D914C0F3DA943D
:10457000F101ED0DF11D808190E0B3010E94EA226E
:10458000DD20A9F706C080E290E0B3010E94EA2294
:10459000EA94EE20C1F743CEF30166817781CB0127
:1045A0002B96E2E10C949E20FC0105906150704036
:1045B0000110D8F7809590958E0F9F1F0895FC01EC
:1045C0006150704001900110D8F7809590958E0F42
:1045D0009F1F08950F931F93CF93DF938C01EB01DF
:1045E0008B8181FF1BC082FF0DC02E813F818C819A
:1045F0009D812817390764F4E881F9810193F983D3
:10460000E88306C0E885F985802F0995892B31F468
:104610008E819F8101969F838E8302C00FEF1FEFD3
:10462000C801DF91CF911F910F910895FA01AA2738
:10463000283051F1203181F1E8946F936E7F6E5FE5
:104640007F4F8F4F9F4FAF4FB1E03ED0B4E03CD093
:10465000670F781F891F9A1FA11D680F791F8A1F76
:10466000911DA11D6A0F711D811D911DA11D20D0DD
:1046700009F468943F912AE0269F11243019305D97
:104680003193DEF6CF010895462F4770405D419388
:10469000B3E00FD0C9F7F6CF462F4F70405D4A33D5
:1046A00018F0495D31FD4052419302D0A9F7EACF9D
:1046B000B4E0A6959795879577956795BA95C9F7CC
:1046C00000976105710508959B01AC010A2E0694BF
:1046D0005795479537952795BA95C9F7620F731F78
:0C46E000841F951FA01D0895F894FFCFC3
:1046EC0041542B43574D4F44453D25640D0A00570B
:1046FC00494649206D6F646520757064617465640A
:10470C000057494649206D6F64652075706461746B
:10471C0065206572726F72210057494649206D6F92
:10472C006465207570646174652074696D656F755E
:10473C00740041542B43574A41503D222573222C7F
:10474C00222573220D0A00574946492053534944E8
:10475C0020506173732075706461746564005749EF
:10476C004649205353494420757064617465206533
:10477C0072726F72210057494649205353494420A5
:10478C007570646174652074696D656F7574004132
:10479C00542B4349504D55583D310D0A0041542B73
:1047AC004349505345525645523D310D0A0054432E
:1047BC0050207365727665722073746172746564CF
:1047CC000054435020736572766572206661696C83
:1047DC006564210052454C007465737400313233AA
:1047EC003435363738003139322E3136382E312EB9
:1047FC0031303000746573740077616974696E6769
:10480C00206E657720757365720000000000000053
:10481C000000000102020303030304040404040463
:10482C00040405050505050505050505050505052E
:10483C00050506060606060606060606060606060E
:10484C0006060606060606060606060606060606FC
:10485C0006060707070707070707070707070707DE
:10486C0007070707070707070707070707070707CC
:10487C0007070707070707070707070707070707BC
:10488C0007070707070707070707070707070707AC
:10489C00070708080808080808080808080808088E
:1048AC00080808080808080808080808080808087C
:1048BC00080808080808080808080808080808086C
:1048CC00080808080808080808080808080808085C
:1048DC00080808080808080808080808080808084C
:1048EC00080808080808080808080808080808083C
:1048FC00080808080808080808080808080808082C
:10490C00080808080808080808080808080808081B
:10491C0008084C45440041004F4646003200000058
:10492C0046414E0041004F4E000032000000010095
:10493C000007000100000700000000010000020059
:10494C00000101000007088600000158015D0166A6
:10495C00010D0001002E0000010C000100140001EB
:10496C00001500010016000100180001001E0001D6
:10497C0000230000012200000121000001200000A2
:10498C00012F0001002E0001002D0001002B000161
:10499C0000100001000F0001000E0001001B0001BF
:1049AC0000170001001E0001001F0001002900017A
:1049BC00001E0000010D0001002E0000010C000182
:1049CC000014000100150001001600010018000180
:1049DC00001E000100230000012200000121000044
:1049EC0001200000012F0000002E0001002D00010D
:1049FC00002B000001100001000F0001000E00014F
:104A0C00001B0001000D0001002E0000010C000134
:104A1C00001400010015000100160001001800012F
:104A2C00001E0001002300000122000001210000F3
:104A3C0001200000012F0001002E0001002D0001BB
:104A4C00002B000100100001000F0001000E0001FE
:104A5C00001B00010017000100190001001A0001E1
:104A6C00000D0001002E0000010C000100140001DB
:104A7C00001500010016000100180001001E0001C5
:104A8C000023000001220000012100000120000091
:104A9C00012F0001002E0001002D0001002B000150
:104AAC0000100001000F0001000E0001001B0001AE
:0E4ABC000017000100190001001A000100009F
:00000001FF
