:100000000C942A000C9447000C9447000C94470071
:100010000C9447000C9447000C9447000C94062461
:100020000C9447000C9447000C94BA0C0C945B0C95
:100030000C9447000C940B080C9447000C94470058
:100040000C94B9140C9447000C9447000C9447008E
:100050000C94470011241FBECFE5D8E0DEBFCDBF12
:1000600014E0A0E6B0E0EAE3F9E502C005900D92E5
:10007000A23BB107D9F715E0A2EBB4E001C01D9295
:10008000AC39B107E1F70E947E270C949B2C0C94AD
:100090000000EF92FF920F931F937B018C0120E0F1
:1000A00030E040E05FE40E94250488238CF0C80122
:1000B000B70120E030E040E05FE40E94C1010E940F
:1000C000E3049B01AC01205030404040504806C042
:1000D000C801B7010E94E3049B01AC01B901CA0148
:1000E0001F910F91FF90EF900895A0E0B0E0EBE733
:1000F000F0E00C943C29DC012B01FA019C91923038
:1001000008F439C1EB018881823008F433C194309E
:1001100069F4843009F02FC111969C91119789815F
:10012000981709F428C1A0EDB1E025C1843009F485
:1001300021C18230A9F4923009F01DC19A01AD01AC
:1001400088E0EA010990AE01E90109929E0181501F
:10015000C1F7E201898111969C918923818308C1AD
:10016000923009F407C112962D903C901397EB0141
:100170008A819B811496AD90BD90CD90DC901797AD
:10018000EC80FD800E811F819101281B390BB90184
:1001900037FF04C066277727621B730B6032710537
:1001A0000CF061C0121613066CF537014801062EDB
:1001B00004C096948794779467940A94D2F721E0C8
:1001C00030E040E050E004C0220F331F441F551FB1
:1001D0006A95D2F721503040404050402E213F21B7
:1001E00040235123211531054105510521F021E01E
:1001F00030E040E050E079018A01E628F72808293C
:1002000019293CC0232BD1F1260E371E350146019A
:10021000062E04C096948794779467940A94D2F734
:1002200021E030E040E050E004C0220F331F441FC3
:10023000551F6A95D2F721503040404050402A2146
:100240003B214C215D21211531054105510521F04E
:1002500021E030E040E050E059016A01A628B728CB
:10026000C828D9280BC0821593052CF01C01AA249C
:10027000BB24650103C0EE24FF24870111969C91E5
:10028000D20111968C91981709F445C0992339F041
:10029000A80197012A193B094C095D0906C0A6016E
:1002A00095012E193F09400B510B57FD08C01182D3
:1002B0003382228224833583468357831DC081E0A5
:1002C00081833382228288279927DC01821B930B4A
:1002D000A40BB50B84839583A683B7830DC0220F2F
:1002E000331F441F551F24833583468357838281E0
:1002F000938101979383828324813581468157813D
:10030000DA01C9010197A109B1098F5F9F4FAF4F72
:10031000BF4328F30BC0918333822282EA0CFB1C7B
:100320000C1D1D1DE482F5820683178383E0808304
:10033000248135814681578157FF1AC0C901AA27F8
:1003400097FDA095BA2F81709070A070B0705695EF
:10035000479537952795822B932BA42BB52B848318
:100360009583A683B7838281938101969383828349
:10037000DF0101C0D201CD01CDB7DEB7E2E10C94BF
:100380005829A0E2B0E0E7ECF1E00C944829698339
:100390007A838B839C832D833E834F835887E9E048
:1003A000EE2EF12CEC0EFD1ECE010196B7010E943F
:1003B000D4068E010F5E1F4FCE010596B8010E9434
:1003C000D4068A8991E089278A8BC701B801AE01DA
:1003D000475E5F4F0E9475000E94FF05A096E6E011
:1003E0000C946429A0E2B0E0E8EFF1E00C94482915
:1003F00069837A838B839C832D833E834F835887C5
:10040000F9E0EF2EF12CEC0EFD1ECE010196B701A6
:100410000E94D4068E010F5E1F4FCE010596B801D3
:100420000E94D406C701B801AE01475E5F4F0E942B
:1004300075000E94FF05A096E6E00C946429A0E2F6
:10044000B0E0E5E2F2E00C943C2969837A838B8387
:100450009C832D833E834F835887CE010196BE0136
:10046000675F7F4F0E94D406CE010596BE016F5E86
:100470007F4F0E94D4069985923088F08989823016
:10048000C8F0943019F4823051F404C0843029F457
:10049000923081F480ED91E0C6C0923049F420E0C2
:1004A0009A858A89981321E02A87CE010996BBC0D4
:1004B000823049F420E09A858A89981321E02A8BBA
:1004C000CE014196B0C02D843E844F8458886D88FB
:1004D0007E888F88988CEE24FF248701AA24BB2471
:1004E000650140E050E060E070E0E0E0F0E0C10174
:1004F00081709070892BE9F0E60CF71C081D191D1E
:100500009A01AB012A0D3B1D4C1D5D1D80E090E062
:10051000A0E0B0E0E614F7040805190520F481E036
:1005200090E0A0E0B0E0BA01A901480F591F6A1F8E
:100530007B1FAA0CBB1CCC1CDD1C97FE08C081E0F5
:1005400090E0A0E0B0E0A82AB92ACA2ADB2A3196B6
:10055000E032F10549F0660C771C881C991C569412
:10056000479437942794C3CFFA85EA892B893C892D
:100570008B859C85280F391F2E5F3F4F17C0CA01FE
:1005800081709070892B61F016950795F794E79428
:1005900080E090E0A0E0B0E8E82AF92A0A2B1B2BC3
:1005A00076956795579547952F5F3F4F77FDE7CF36
:1005B0000CC0440F551F661F771F17FD4160EE0CDE
:1005C000FF1C001F111F21503040403090E05907A0
:1005D00090E0690790E4790760F32B8F3C8FDB0193
:1005E000CA018F779070A070B07080349105A1051A
:1005F000B10561F447FD0AC0E114F10401051105DC
:1006000029F0405C5F4F6F4F7F4F40781A8EFE1786
:1006100011F081E08A8F4D8F5E8F6F8F78A383E01A
:10062000898FCE0149960E94FF05A096E2E10C94C5
:100630005829A8E1B0E0EFE1F3E00C944429698384
:100640007A838B839C832D833E834F835887B9E0C5
:10065000EB2EF12CEC0EFD1ECE010196B7010E948F
:10066000D4068E010F5E1F4FCE010596B8010E9481
:10067000D4062985223008F47EC03989323010F43E
:10068000B8017CC08A859A8989278A87243011F02D
:10069000223031F4231709F06EC060ED71E06EC0B6
:1006A000343039F41D861E861F86188A1C861B86E8
:1006B00004C0323021F484E08987B7015FC02B8504
:1006C0003C858B899C89281B390B3C872B87ED84C3
:1006D000FE840F851889AD88BE88CF88D88CEA142F
:1006E000FB040C051D0540F4EE0CFF1C001F111F40
:1006F000215030403C872B8720E030E040E050E044
:1007000080E090E0A0E0B0E460E070E0EA14FB0478
:100710000C051D0540F0282B392B4A2B5B2BEA18C2
:10072000FB080C091D09B695A79597958795EE0CC2
:10073000FF1C001F111F6F5F7F4F6F31710531F775
:10074000DA01C9018F779070A070B0708034910584
:10075000A105B10561F427FD0AC0E114F10401050A
:10076000110529F0205C3F4F4F4F5F4F20782D87B8
:100770003E874F87588BBE01675F7F4FCB010E943A
:10078000FF056896EAE00C946029A8E1B0E0EBEC84
:10079000F3E00C94482969837A838B839C832D83AF
:1007A0003E834F83588789E0E82EF12CEC0EFD1E26
:1007B000CE010196B7010E94D4068E010F5E1F4F35
:1007C000CE010596B8010E94D4068985823040F09A
:1007D0008989823028F0C701B8010E944C0701C006
:1007E00081E06896E6E00C946429A8E1B0E0EBEFC4
:1007F000F3E00C94482969837A838B839C832D834F
:100800003E834F83588789E0E82EF12CEC0EFD1EC5
:10081000CE010196B7010E94D4068E010F5E1F4FD4
:10082000CE010596B8010E94D4068985823040F039
:100830008989823028F0C701B8010E944C0701C0A5
:100840008FEF6896E6E00C946429A8E1B0E0EBE253
:10085000F4E00C94482969837A838B839C832D83ED
:100860003E834F83588789E0E82EF12CEC0EFD1E65
:10087000CE010196B7010E94D4068E010F5E1F4F74
:10088000CE010596B8010E94D4068985823040F0D9
:100890008989823028F0C701B8010E944C0701C045
:1008A0008FEF6896E6E00C946429A8E1B0E0EBE5F0
:1008B000F4E00C94482969837A838B839C832D838D
:1008C0003E834F83588789E0E82EF12CEC0EFD1E05
:1008D000CE010196B7010E94D4068E010F5E1F4F14
:1008E000CE010596B8010E94D4068985823040F079
:1008F0008989823028F0C701B8010E944C0701C0E5
:1009000081E06896E6E00C946429A8E0B0E0EBE8AA
:10091000F4E00C9445299B01AC0183E08983DA0162
:10092000C9018827B7FD83959927AA27BB27B82E29
:10093000211531054105510519F482E089833AC03A
:100940008823A9F0203080E0380780E0480780E85D
:10095000580729F460E070E080E09FEC30C0EE249E
:10096000FF248701E21AF30A040B150B02C0790178
:100970008A018EE1C82ED12CDC82CB82ED82FE82F0
:100980000F831887C801B7010E94B0050197181698
:10099000190684F4082E04C0EE0CFF1C001F111F62
:1009A0000A94D2F7ED82FE820F831887C81AD90AFB
:1009B000DC82CB82BA82CE0101960E94FF05289686
:1009C000E9E00C946129ACE0B0E0E9EEF4E00C94CD
:1009D0004C2969837A838B839C83CE010196BE0167
:1009E0006B5F7F4F0E94D4068D81823061F182302F
:1009F00050F1843021F48E81882351F12EC02F8153
:100A0000388537FD20C06E812F3131051CF06623FB
:100A1000F9F023C08EE190E0821B930B29853A8583
:100A20004B855C8504C056954795379527958A95E3
:100A3000D2F76623B1F050954095309521953F4F00
:100A40004F4F5F4F0EC020E030E040E050E009C063
:100A50002FEF3FEF4FEF5FE704C020E030E040E0D2
:100A600050E8B901CA012C96E2E00C946829A8E08C
:100A7000B0E0EDE3F5E00C9444297B018C016115B5
:100A800071058105910519F482E0898360C083E0D6
:100A900089838EE1C82ED12CDC82CB82ED82FE824E
:100AA0000F831887C801B7010E94B005FC01319778
:100AB000F7FF3BC0222733272E1B3F0B570168014E
:100AC000022E04C0D694C794B794A7940A94D2F780
:100AD00040E050E060E070E081E090E0A0E0B0E055
:100AE00004C0880F991FAA1FBB1F2A95D2F7019730
:100AF000A109B1098E219F21A023B1230097A1054F
:100B0000B10521F041E050E060E070E04A295B2946
:100B10006C297D294D835E836F8378878EE190E019
:100B20008E1B9F0B9C838B8312C0309781F00E2EFF
:100B300004C0EE0CFF1C001F111F0A94D2F7ED82B7
:100B4000FE820F831887CE1ADF0ADC82CB821A82DC
:100B5000CE0101960E94FF052896EAE00C946029D8
:100B6000EF92FF920F931F937B018C0180E0E816B8
:100B700080E0F80681E0080780E0180788F48FEF2E
:100B8000E816F1040105110531F028F088E090E045
:100B9000A0E0B0E017C080E090E0A0E0B0E012C0BC
:100BA00080E0E81680E0F80680E0080781E018079A
:100BB00028F088E190E0A0E0B0E004C080E190E09F
:100BC000A0E0B0E020E230E040E050E0281B390B2C
:100BD0004A0B5B0B04C016950795F794E7948A952A
:100BE000D2F7F701E852FE4F8081281B31094109F5
:100BF0005109C9011F910F91FF90EF900895DF9265
:100C0000EF92FF920F931F93FC01E480F580068121
:100C10001781D1808081823048F480E090E0A0E1AB
:100C2000B0E0E82AF92A0A2B1B2BA5C0843009F46E
:100C30009FC0823021F4EE24FF24870105C0E11417
:100C4000F1040105110519F4E0E0F0E096C06281BD
:100C500073819FEF623879070CF05BC022E83FEFA9
:100C6000261B370B2A3131052CF020E030E040E024
:100C700050E02AC0B801A701022E04C076956795FE
:100C8000579547950A94D2F781E090E0A0E0B0E054
:100C900004C0880F991FAA1FBB1F2A95D2F701977E
:100CA000A109B1098E219F21A023B1230097A1059D
:100CB000B10521F081E090E0A0E0B0E09A01AB0145
:100CC000282B392B4A2B5B2BDA01C9018F779070C7
:100CD000A070B07080349105A105B10539F427FFEB
:100CE00009C0205C3F4F4F4F5F4F04C0215C3F4F16
:100CF0004F4F5F4FE0E0F0E02030A0E03A07A0E087
:100D00004A07A0E45A0710F0E1E0F0E079018A0117
:100D100027C06038710564F5FB01E158FF4FD80129
:100D2000C7018F779070A070B07080349105A105D5
:100D3000B10539F4E7FE0DC080E490E0A0E0B0E03A
:100D400004C08FE390E0A0E0B0E0E80EF91E0A1FB7
:100D50001B1F17FF05C016950795F794E79431966A
:100D600087E016950795F794E7948A95D1F705C023
:100D7000EE24FF248701EFEFF0E06E2F67956627E2
:100D80006795902F9F77D794DD24D7948E2F8695E3
:100D9000492F462B582F5D29B701CA011F910F918A
:100DA000FF90EF90DF900895FC01DB0140815181BD
:100DB0002281622F6F7770E0221F2227221F9381EA
:100DC000892F880F822B282F30E0991F9927991F90
:100DD00011969C93119721153105A9F541155105DF
:100DE0006105710511F482E037C082E89FEF139628
:100DF0009C938E9312979A01AB0167E0220F331FE9
:100E0000441F551F6A95D1F783E08C930DC0220FC4
:100E1000331F441F551F12968D919C911397019774
:100E200013969C938E931297203080E0380780E0D1
:100E3000480780E4580758F314962D933D934D933B
:100E40005C93179708952F3F310579F441155105AB
:100E50006105710519F484E08C93089564FF03C063
:100E600081E08C9312C01C9210C02F573040139613
:100E70003C932E93129783E08C9387E0440F551F89
:100E8000661F771F8A95D1F7706414964D935D9312
:100E90006D937C93179708951F93DC01FB019C9140
:100EA000923008F447C08081823008F443C0943007
:100EB00051F411961C91843099F58181682F70E06E
:100EC000611B71093FC0843021F0923031F48230CF
:100ED000B9F18181882389F12DC011961C91119758
:100EE0008230F1F081811817D9F412962D913C913E
:100EF0001397828193818217930794F028173907FB
:100F0000BCF014968D919D910D90BC91A02D2481E3
:100F1000358146815781281739074A075B0718F43E
:100F2000112341F00AC082179307A407B50740F4C4
:100F3000112319F061E070E005C06FEF7FEF02C090
:100F400060E070E0CB011F910895DF93CF93CDB7A0
:100F5000DEB78091B604CF91DF910895DF93CF93F0
:100F600000D000D0CDB7DEB769837A838B839C83B2
:100F7000E0E4F0E080E88083EAE2F0E01082A0E4C0
:100F8000B0E0E0E4F0E090818A81892B8C93A0E4CA
:100F9000B0E0E0E4F0E090818C81892B8C938B8130
:100FA000803241F4A0E4B0E0E0E4F0E080818062CF
:100FB0008C9311C08B81803371F4A0E4B0E0E0E445
:100FC000F0E0808180618C93A0E4B0E0E0E4F0E0A8
:100FD000808180628C93E9E2F0E089818083AAE2DB
:100FE000B0E0EAE2F0E0808188608C93AAE2B0E0B1
:100FF000EAE2F0E0808180618C93AAE2B0E0EAE26C
:10100000F0E0808180688C930F900F900F900F908C
:10101000CF91DF9108951F920F920FB60F92112476
:101020008F939F93EF93FF93DF93CF930F92CDB75F
:10103000DEB7ECE2F0E0808189838091B404882FF0
:1010400090E0FC01E553FB4F898180838091B404DB
:101050008F5F8093B4048091B404853610F01092B1
:10106000B4048091B6048F5F8093B6048091B60477
:10107000853618F084E68093B6040F90CF91DF9107
:10108000FF91EF919F918F910F900FBE0F901F9046
:101090001895DF93CF930F92CDB7DEB78091B5044B
:1010A000882F90E0FC01E553FB4F8081898380917C
:1010B000B604882329F08091B60481508093B60449
:1010C0008091B5048F5F8093B5048091B504853617
:1010D00010F01092B50489810F90CF91DF9108959F
:1010E000DF93CF930F92CDB7DEB78983EBE2F0E0C9
:1010F0008081829586958770882F90E081709070AE
:101100000097A1F3ECE2F0E0898180830F90CF910A
:10111000DF910895DF93CF9300D0CDB7DEB79A83E8
:1011200089830AC0E981FA8180810E9470088981DF
:101130009A8101969A838983E981FA818081882343
:1011400089F70F900F90CF91DF910895DF93CF93A0
:1011500000D000D00F92CDB7DEB79C838B836D8318
:101160001A8219820FC029813A818B819C81FC01EE
:10117000E20FF31F80810E94700889819A81019695
:101180009A8389838D81282F30E089819A81821703
:1011900093074CF30F900F900F900F900F90CF91FB
:1011A000DF9108950F931F93DF93CF9300D000D06A
:1011B000CDB7DEB79C838B831A8219821AC029812E
:1011C0003A818B819C818C01020F131F0E94490878
:1011D000F801808329813A818B819C81FC01E20F97
:1011E000F31F8081882329F089819A8101969A834F
:1011F00089838091B604882311F789819A812B8194
:101200003C81F901E80FF91F10820F900F900F90A9
:101210000F90CF91DF911F910F910895DF93CF939E
:1012200000D00F92CDB7DEB789836A834B838B8161
:101230008093BB04A3E5B0E0E3E5F0E08081887F24
:101240008C93A3E5B0E0E3E5F0E08081877D8C93AB
:10125000A3E5B0E0E3E5F0E090818981892B8C93F0
:10126000A3E5B0E0E3E5F0E080818F7C8C93A3E51B
:10127000B0E0E3E5F0E090818A81892B8C930F90B8
:101280000F900F90CF91DF910895DF93CF93CDB75B
:10129000DEB7A3E5B0E0E3E5F0E08081887F8C93E2
:1012A000E2E5F0E08091BF049091C0048083A3E563
:1012B000B0E0E3E5F0E090818091BB04892B8C9352
:1012C000CF91DF910895DF93CF93CDB7DEB7A3E53C
:1012D000B0E0E3E5F0E08081887F8C93CF91DF91EF
:1012E0000895AF92BF92CF92DF92EF92FF920F9349
:1012F0001F93DF93CF93CDB7DEB7E3970FB6F89484
:10130000DEBF0FBECDBF8091C1049091C204A091F9
:10131000C304B091C404BA2FA92F982F88279C0129
:10132000AD0160E070E080E090E029833A834B8378
:101330005C836D837E838F839887E2E5F0E0808114
:10134000082F10E020E030E040E050E060E070E086
:1013500009871A872B873C874D875E876F87788B35
:101360001981198B2A812A8B3B813B8B4C814C8BB9
:101370005D815D8B6E816E8B7F817F8B8885888F91
:1013800099890985900F998F11E019A3298D3989C1
:10139000231708F019A24A895A85450F4A8F61E040
:1013A0006AA37A8D8A89781708F01AA299A10A8D02
:1013B000900F9BA311E01CA32BA13A8D231708F0DB
:1013C0001CA24AA15CA1452B4AA36BA16A8F7B8911
:1013D0008B85780F7B8F91E09DA30B8D1B89011767
:1013E00008F01DA22AA13B8D230F2EA341E04FA39D
:1013F0005EA16B8D561708F01FA27DA18FA1782BDF
:101400007DA39EA19B8F0C891C85010F0C8F21E071
:1014100028A73C8D4C89341708F018A65DA16C8D67
:10142000560F59A771E07AA789A59C8D891708F0F6
:101430001AA608A51AA5012B08A729A52C8F3D8956
:101440004D85340F3D8F51E05BA76D8D7D8967170A
:1014500008F01BA688A59D8D890F8CA701E00DA71C
:101460001CA52D8D121708F01DA63BA54DA5342BEC
:101470003BA75CA55D8F6E897E85670F6E8F81E0CF
:101480008EA79E8D0E89901708F01EA61BA52E8D87
:10149000120F1FA731E038AB4FA55E8D451708F03E
:1014A00018AA6EA578A9672B6EA78FA58E8F9F8926
:1014B0000F85900F9F8F11E019AB2F8D3F89231758
:1014C00008F019AA4EA55F8D450F4AAB61E06BABE2
:1014D0007AA98F8D781708F01BAA99A90BA9902BD0
:1014E00099AB1AA91F8F288D3889230F28A389A9A2
:1014F00048A1840F88A3598D59836A8D6A837B8D97
:101500007B838C8D8C839D8D9D830E8D0E831F8D93
:101510001F8328A1288729813A814B815C816D81B5
:101520007E818F819885A22EB32EC42ED52EE62ED5
:10153000F72E082F192F2A2D3B2D4C2D5D2D6E2DAA
:101540007F2D802F912FE3960FB6F894DEBF0FBE4C
:10155000CDBFCF91DF911F910F91FF90EF90DF9062
:10156000CF90BF90AF900895DF93CF93CDB7DEB704
:101570002C970FB6F894DEBF0FBECDBF69877A8770
:101580008B879C878091BB04882F90E00197880F00
:10159000991F880F991FFC01E852FD4F80819181AE
:1015A000A281B381689413F8B695A795979587950E
:1015B0001694D1F78D839E83AF83B88789859A85EA
:1015C000AB85BC8528EE33E040E050E0BC01CD01A6
:1015D0000E94C028DC01CB012D813E814F815885BE
:1015E000BC01CD010E94FF28DA01C90189839A83D9
:1015F000AB83BC8389819A81AB81BC81892F9A2F6F
:10160000AB2FBB279093BE048093BD0489819A8140
:1016100090709093C0048093BF048091BF04909118
:10162000C004009749F08091BD049091BE040196DA
:101630009093BE048093BD048091BF049091C00438
:1016400029E031E0A901481B590BCA019093C0045D
:101650008093BF042C960FB6F894DEBF0FBECDBFAB
:10166000CF91DF9108950F931F93DF93CF93CDB761
:10167000DEB763970FB6F894DEBF0FBECDBF8F877E
:10168000488B598B6A8B7B8B1B861C861D861E861E
:101690001F82188619861A868FEF90E0A0E0B0E0CE
:1016A0008B839C83AD83BE831A82198286C0898115
:1016B0009A81880F991F880F991FFC01E852FD4FEE
:1016C00080819181A281B3812227382F492F5A2FFF
:1016D00080E094E2A4EFB0E0BC01CD010E94FF28BD
:1016E000DA01C9018B879C87AD87BE872B853C8536
:1016F0004D855E8588899989AA89BB898217930758
:10170000A407B50788F48B859C85AD85BE8528899F
:1017100039894A895B89821B930BA40BB50B8F8394
:101720009887A987BA872BC02B853C854D855E8518
:1017300088899989AA89BB89281739074A075B07CD
:1017400088F488899989AA89BB892B853C854D8530
:101750005E85821B930BA40BB50B8F839887A9879B
:10176000BA870DC02B853C854D855E858889998912
:10177000AA89BB89281739074A075B0721F12F81FE
:10178000388549855A858B819C81AD81BE8128171A
:1017900039074A075B0760F48F819885A985BA8568
:1017A0008B839C83AD83BE8389818F5F8093BB04D1
:1017B00089819A8101969A83898389819A8185306A
:1017C00091050CF474CF0CE510E08F85882F90E024
:1017D000AA2797FDA095BA2FBC01CD010E948504D0
:1017E000DC01CB01BC01CD012AE037ED43E25CE333
:1017F0000E941F02DC01CB01BC01CD0120E030E0E2
:1018000040E853E40E941F02DC01CB01BC01CD0182
:101810000E944900DC01CB01F8018083A3E5B0E020
:10182000E3E5F0E08081887F8C93A3E5B0E0E3E519
:10183000F0E090818091BB04892B8C9363960FB666
:10184000F894DEBF0FBECDBFCF91DF911F910F91F6
:101850000895DF93CF93CDB7DEB7A9E5B0E0E9E512
:10186000F0E0808181608C93CF91DF910895DF93C8
:10187000CF93CDB7DEB7A9E5B0E0E9E5F0E0808130
:101880008E6F8C93CF91DF910895DF93CF9300D02B
:10189000CDB7DEB79A83898389819A81009731F029
:1018A00089819A819093B8048093B7040F900F9028
:1018B000CF91DF9108951F920F920FB60F921124CE
:1018C0002F933F934F935F936F937F938F939F9348
:1018D000AF93BF93EF93FF93DF93CF93CDB7DEB773
:1018E0008091C5048F5F8093C5048091C504282F23
:1018F00030E08091BD049091BE0428173907A1F40F
:101900001092C504E2E5F0E08091BF049091C0041C
:1019100080838091B7049091B804009729F0E091FA
:10192000B704F091B80409958091C1049091C20464
:10193000A091C304B091C4040196A11DB11D809370
:10194000C1049093C204A093C304B093C404CF9184
:10195000DF91FF91EF91BF91AF919F918F917F9117
:101960006F915F914F913F912F910F900FBE0F900C
:101970001F9018951F920F920FB60F9211242F935C
:101980003F934F935F936F937F938F939F93AF9307
:10199000BF93EF93FF93DF93CF93CDB7DEB78091E3
:1019A000B9049091BA04009729F0E091B904F0913C
:1019B000BA040995CF91DF91FF91EF91BF91AF915B
:1019C0009F918F917F916F915F914F913F912F9157
:1019D0000F900FBE0F901F901895DF93CF93CDB748
:1019E000DEB727970FB6F894DEBF0FBECDBF9D833D
:1019F0008C838C819D81009709F4BDC31982B7C384
:101A00008981882F90E09C01220F331F220F331F02
:101A10008C819D81FC01E20FF31F80819AE0692F88
:101A20000E94DF28892F8B838981882F90E09C0179
:101A3000220F331F220F331F8C819D81FC01E20F87
:101A4000F31F80819AE0692F0E94DF288A838A81B0
:101A5000282F30E03F832E838E819F818230910535
:101A600009F4F3C02E813F812330310534F48E8197
:101A70009F818130910571F077C32E813F812330A2
:101A8000310509F4BDC18E819F818430910509F42F
:101A900092C26AC38981882F90E09C01220F331F74
:101AA000220F331F8C819D81FC01E20FF31F828185
:101AB000813009F05CC0AAE3B0E0EAE3F0E08081A5
:101AC000482F8B81282F30E081E090E002C0880F02
:101AD000991F2A95E2F7842B8C938981882F90E0B7
:101AE0009C01220F331F220F331F8C819D81FC012B
:101AF000E20FF31F81818130A1F4ABE3B0E0EBE3AF
:101B0000F0E08081482F8B81282F30E081E090E049
:101B1000022E02C0880F991F0A94E2F7842B8C933F
:101B200023C38981882F90E09C01220F331F220F4D
:101B3000331F8C819D81FC01E20FF31F818188237B
:101B400009F012C3ABE3B0E0EBE3F0E08081482F93
:101B50008B81282F30E081E090E0022E02C0880FB8
:101B6000991F0A94E2F7809584238C93FDC28981A2
:101B7000882F90E09C01220F331F220F331F8C818E
:101B80009D81FC01E20FF31F8281882309F0ECC2E2
:101B9000AAE3B0E0EAE3F0E08081482F8B81282FB0
:101BA00030E081E090E002C0880F991F2A95E2F7AB
:101BB000809584238C938981882F90E09C01220F4B
:101BC000331F220F331F8C819D81FC01E20FF31F15
:101BD00083818823A9F4ABE3B0E0EBE3F0E08081FC
:101BE000482F8B81282F30E081E090E0022E02C048
:101BF000880F991F0A94E2F7809584238C93B4C2CE
:101C00008981882F90E09C01220F331F220F331F00
:101C10008C819D81FC01E20FF31F8381813009F0EB
:101C2000A3C2ABE3B0E0EBE3F0E08081482F8B810F
:101C3000282F30E081E090E0022E02C0880F991F2B
:101C40000A94E2F7842B8C938FC28981882F90E0CD
:101C50009C01220F331F220F331F8C819D81FC01B9
:101C6000E20FF31F8281813009F05CC0A7E3B0E08E
:101C7000E7E3F0E08081482F8B81282F30E081E07E
:101C800090E002C0880F991F2A95E2F7842B8C936D
:101C90008981882F90E09C01220F331F220F331F70
:101CA0008C819D81FC01E20FF31F81818130A1F4C1
:101CB000A8E3B0E0E8E3F0E08081482F8B81282F93
:101CC00030E081E090E0022E02C0880F991F0A9454
:101CD000E2F7842B8C9348C28981882F90E09C0185
:101CE000220F331F220F331F8C819D81FC01E20FD5
:101CF000F31F8181882309F037C2A8E3B0E0E8E34D
:101D0000F0E08081482F8B81282F30E081E090E047
:101D1000022E02C0880F991F0A94E2F7809584234F
:101D20008C9322C28981882F90E09C01220F331F5F
:101D3000220F331F8C819D81FC01E20FF31F8281F2
:101D4000882309F011C2A7E3B0E0E7E3F0E0808167
:101D5000482F8B81282F30E081E090E002C0880F6F
:101D6000991F2A95E2F7809584238C938981882F87
:101D700090E09C01220F331F220F331F8C819D8125
:101D8000FC01E20FF31F83818823A9F4A8E3B0E0EC
:101D9000E8E3F0E08081482F8B81282F30E081E05C
:101DA00090E0022E02C0880F991F0A94E2F78095F6
:101DB00084238C93D9C18981882F90E09C01220FC4
:101DC000331F220F331F8C819D81FC01E20FF31F13
:101DD0008381813009F0C8C1A8E3B0E0E8E3F0E016
:101DE0008081482F8B81282F30E081E090E0022E07
:101DF00002C0880F991F0A94E2F7842B8C93B4C118
:101E00008981882F90E09C01220F331F220F331FFE
:101E10008C819D81FC01E20FF31F8281813009F0EA
:101E20005CC0A4E3B0E0E4E3F0E08081482F8B8164
:101E3000282F30E081E090E002C0880F991F2A959A
:101E4000E2F7842B8C938981882F90E09C01220FEC
:101E5000331F220F331F8C819D81FC01E20FF31F82
:101E600081818130A1F4A5E3B0E0E5E3F0E0808179
:101E7000482F8B81282F30E081E090E0022E02C0B5
:101E8000880F991F0A94E2F7842B8C936DC1898186
:101E9000882F90E09C01220F331F220F331F8C816B
:101EA0009D81FC01E20FF31F8181882309F05CC151
:101EB000A5E3B0E0E5E3F0E08081482F8B81282F97
:101EC00030E081E090E0022E02C0880F991F0A9452
:101ED000E2F7809584238C9347C18981882F90E015
:101EE0009C01220F331F220F331F8C819D81FC0127
:101EF000E20FF31F8281882309F036C1A4E3B0E02A
:101F0000E4E3F0E08081482F8B81282F30E081E0EE
:101F100090E002C0880F991F2A95E2F780958423EC
:101F20008C938981882F90E09C01220F331F220F10
:101F3000331F8C819D81FC01E20FF31F8381882375
:101F4000A9F4A5E3B0E0E5E3F0E08081482F8B81C0
:101F5000282F30E081E090E0022E02C0880F991F08
:101F60000A94E2F7809584238C93FEC08981882FA0
:101F700090E09C01220F331F220F331F8C819D8123
:101F8000FC01E20FF31F8381813009F0EDC0A5E36E
:101F9000B0E0E5E3F0E08081482F8B81282F30E02E
:101FA00081E090E0022E02C0880F991F0A94E2F7A8
:101FB000842B8C93D9C08981882F90E09C01220FBB
:101FC000331F220F331F8C819D81FC01E20FF31F11
:101FD0008281813009F05CC0A1E3B0E0E1E3F0E090
:101FE0008081482F8B81282F30E081E090E002C073
:101FF000880F991F2A95E2F7842B8C938981882F6B
:1020000090E09C01220F331F220F331F8C819D8192
:10201000FC01E20FF31F81818130A1F4A2E3B0E063
:10202000E2E3F0E08081482F8B81282F30E081E0CF
:1020300090E0022E02C0880F991F0A94E2F7842BC9
:102040008C9392C08981882F90E09C01220F331FCE
:10205000220F331F8C819D81FC01E20FF31F8181D0
:10206000882309F081C0A2E3B0E0E2E3F0E08081E0
:10207000482F8B81282F30E081E090E0022E02C0B3
:10208000880F991F0A94E2F7809584238C936CC083
:102090008981882F90E09C01220F331F220F331F6C
:1020A0008C819D81FC01E20FF31F8281882309F05E
:1020B0005BC0A1E3B0E0E1E3F0E08081482F8B81D9
:1020C000282F30E081E090E002C0880F991F2A9508
:1020D000E2F7809584238C938981882F90E09C017E
:1020E000220F331F220F331F8C819D81FC01E20FD1
:1020F000F31F83818823A9F4A2E3B0E0E2E3F0E0D8
:102100008081482F8B81282F30E081E090E0022EE3
:1021100002C0880F991F0A94E2F7809584238C935C
:1021200023C08981882F90E09C01220F331F220F4A
:10213000331F8C819D81FC01E20FF31F838181306D
:1021400099F4A2E3B0E0E2E3F0E08081482F8B81D4
:10215000282F30E081E090E0022E02C0880F991F06
:102160000A94E2F7842B8C9389818F5F898389811C
:102170008B3108F445CC27960FB6F894DEBF0FBE1E
:10218000CDBFCF91DF910895DF93CF93CDB7DEB769
:102190007894CF91DF910895DF93CF93CDB7DEB7D9
:1021A000F894CF91DF910895DF93CF9300D000D0C2
:1021B00000D0CDB7DEB78C838C819AE0692F0E9466
:1021C000DF28892F8B838C819AE0692F0E94DF287A
:1021D0008A838A81282F30E03E832D834D815E8162
:1021E0004230510541F18D819E818330910534F457
:1021F0002D813E812130310561F052C04D815E81DB
:102200004330510551F18D819E8184309105B9F1A2
:1022100047C0E9E3F0E08081282F30E08B81882FF0
:1022200090E0A90102C0559547958A95E2F7CA0149
:102230008170898335C0E6E3F0E08081282F30E0AB
:102240008B81882F90E0A90102C0559547958A950A
:10225000E2F7CA018170898323C0E3E3F0E0808163
:10226000282F30E08B81882F90E0A90102C055957E
:1022700047958A95E2F7CA018170898311C0E0E32E
:10228000F0E08081282F30E08B81882F90E0A90139
:1022900002C0559547958A95E2F7CA0181708983F6
:1022A000898126960FB6F894DEBF0FBECDBFCF91C1
:1022B000DF910895DF93CF93CDB7DEB728970FB6A0
:1022C000F894DEBF0FBECDBF8B836C838B819AE009
:1022D000692F0E94DF28892F8A838B819AE0692FDA
:1022E0000E94DF2889838C81813009F070C0898148
:1022F000282F30E038872F838F8198858230910591
:1023000051F12F8138852330310534F48F81988540
:102310008130910561F0D3C02F813885233031059C
:1023200071F18F81988584309105E9F1C8C0ABE3E4
:10233000B0E0EBE3F0E08081482F8A81282F30E085
:1023400081E090E0022E02C0880F991F0A94E2F704
:10235000842B8C93B4C0A8E3B0E0E8E3F0E0808184
:10236000482F8A81282F30E081E090E0022E02C0C1
:10237000880F991F0A94E2F7842B8C93A0C0A5E3E1
:10238000B0E0E5E3F0E08081482F8A81282F30E03B
:1023900081E090E0022E02C0880F991F0A94E2F7B4
:1023A000842B8C938CC0A2E3B0E0E2E3F0E0808168
:1023B000482F8A81282F30E081E090E0022E02C071
:1023C000880F991F0A94E2F7842B8C9378C08C8134
:1023D000882309F074C08981282F30E03E832D8343
:1023E0008D819E818230910561F12D813E81233066
:1023F000310534F48D819E818130910569F05FC093
:102400002D813E812330310589F18D819E8184307B
:10241000910509F440C053C0ABE3B0E0EBE3F0E05A
:102420008081482F8A81282F30E081E090E0022EC1
:1024300002C0880F991F0A94E2F7809584238C9339
:102440003EC0A8E3B0E0E8E3F0E08081482F8A8155
:10245000282F30E081E090E0022E02C0880F991F03
:102460000A94E2F7809584238C9329C0A5E3B0E019
:10247000E5E3F0E08081482F8A81282F30E081E079
:1024800090E0022E02C0880F991F0A94E2F780950F
:1024900084238C9314C0A2E3B0E0E2E3F0E08081F7
:1024A000482F8A81282F30E081E090E0022E02C080
:1024B000880F991F0A94E2F7809584238C932896BD
:1024C0000FB6F894DEBF0FBECDBFCF91DF91089558
:1024D000DF93CF9300D000D0CDB7DEB78A838A8157
:1024E000282F30E03C832B838B819C8182309105A7
:1024F000D9F02B813C812330310534F48B819C81D0
:102500008130910561F01EC02B813C812330310563
:1025100081F08B819C818430910581F013C0EBE3C5
:10252000F0E0808189830EC0E8E3F0E08081898358
:1025300009C0E5E3F0E08081898304C0E2E3F0E0D4
:102540008081898389810F900F900F900F90CF9198
:10255000DF910895DF93CF9300D000D0CDB7DEB7E1
:1025600089836A838981282F30E03C832B838B8188
:102570009C8182309105D9F02B813C81233031053B
:1025800034F48B819C818130910561F01EC02B81D8
:102590003C812330310581F08B819C818430910511
:1025A00081F013C0EBE3F0E08A8180830EC0E8E3A2
:1025B000F0E08A81808309C0E5E3F0E08A818083CE
:1025C00004C0E2E3F0E08A8180830F900F900F90C7
:1025D0000F90CF91DF910895DF93CF9300D000D07B
:1025E0000F92CDB7DEB78B838B819AE0692F0E9463
:1025F000DF28892F8A838B819AE0692F0E94DF2848
:1026000089838981282F30E03D832C838C819D81B3
:102610008230910551F12C813D812330310534F414
:102620008C819D818130910561F05AC02C813D8162
:102630002330310571F18C819D8184309105E9F160
:102640004FC0ABE3B0E0EBE3F0E08081482F8A813C
:10265000282F30E081E090E0022E02C0880F991F01
:102660000A94E2F784278C933BC0A8E3B0E0E8E348
:10267000F0E08081482F8A81282F30E081E090E0CF
:10268000022E02C0880F991F0A94E2F784278C93C8
:1026900027C0A5E3B0E0E5E3F0E08081482F8A8120
:1026A000282F30E081E090E0022E02C0880F991FB1
:1026B0000A94E2F784278C9313C0A2E3B0E0E2E32C
:1026C000F0E08081482F8A81282F30E081E090E07F
:1026D000022E02C0880F991F0A94E2F784278C9378
:1026E0000F900F900F900F900F90CF91DF91089562
:1026F000DF93CF9300D000D00F92CDB7DEB74983E0
:102700005A836B837C838D83A7E2B0E0E7E2F0E03D
:102710008081282F8091C804882F90E0880F991F0E
:1027200082959295907F9827807F9827822B8C9313
:10273000A7E2B0E0E7E2F0E08081282F8981882FCE
:1027400090E0002496958795079496958795079431
:10275000982F802D822B8C93A6E2B0E0E6E2F0E089
:102760008081282F8A81882F90E0880F991F829579
:102770009295907F9827807F9827822B8C93A6E252
:10278000B0E0E6E2F0E08081282F8B81882F90E096
:10279000880F991F880F991F880F991F822B8C9380
:1027A000A6E2B0E0E6E2F0E08081887F8C93A6E2CA
:1027B000B0E0E6E2F0E090818C81892B8C93A0E57B
:1027C000B0E0E0E5F0E080818F708C93A0E5B0E0B0
:1027D000E0E5F0E08081282F8D81882F90E0880F40
:1027E000991F82959295907F9827807F9827822BBA
:1027F0008C93A6E2B0E0E6E2F0E0808180688C9302
:102800000F900F900F900F900F90CF91DF91089540
:10281000DF93CF93CDB7DEB7A6E2B0E0E6E2F0E01B
:10282000808180648C93CF91DF910895DF93CF9363
:1028300000D000D000D0CDB7DEB789837B836A8318
:10284000A7E2B0E0E7E2F0E08081807E8C93A7E22F
:10285000B0E0E7E2F0E090818981892B8C93E6E299
:10286000F0E0808182958F70882F90E08170907069
:10287000009711F41E824FC0A6E2B0E0E6E2F0E05D
:10288000808180618C938091C804282F30E03D8343
:102890002C838C819D81009711F12C813D81213009
:1028A0003105B9F5E4E2F0E08081882F90E0EA811B
:1028B000FB8191838083EA81FB8120813181E5E284
:1028C000F0E08081882F90E0880F991F880F991F72
:1028D000822B932BEA81FB81918380831AC0E4E2EF
:1028E000F0E08081882F90E0EA81FB8191838083F2
:1028F000EA81FB8120813181E5E2F0E08081882F4F
:1029000090E0982F8827822B932BEA81FB8191837B
:10291000808331E03E838E8126960FB6F894DEBF29
:102920000FBECDBFCF91DF910895DF93CF9300D03D
:102930000F92CDB7DEB789837B836A83A7E2B0E0CD
:10294000E7E2F0E08081807E8C93A7E2B0E0E7E2EE
:10295000F0E090818981892B8C938A819B8190936F
:10296000C7048093C6040F900F900F90CF91DF9112
:1029700008951F920F920FB60F9211242F933F9339
:102980004F935F936F937F938F939F93AF93BF9377
:10299000EF93FF93DF93CF93CDB7DEB78091C6045B
:1029A0009091C704009729F0E091C604F091C70404
:1029B0000995CF91DF91FF91EF91BF91AF919F91D9
:1029C0008F917F916F915F914F913F912F910F90D8
:1029D0000FBE0F901F901895DF93CF93CDB7DEB742
:1029E000C45AD0400FB6F894DEBF0FBECDBFFE0173
:1029F000E256FF4F20833183428353836483758380
:102A000086838091200390912103A0912203B091AD
:102A10002303BC01CD010E94AE07FE01E256FF4F29
:102A20008081282F30E000D000D000D0EDB7FEB775
:102A30003196CE01CA969183808380E690E093839D
:102A40008283358324830E94EA298DB79EB7069638
:102A50000FB6F8949EBF0FBE8DBFCE01CA9620E37D
:102A600035E0B90140ED57E00E94E81889AF89AD23
:102A7000882309F079C00E9451208FE690E00E94DF
:102A80006C2080E090E0AAEFB4E48DAB9EABAFABDE
:102A9000B8AF6DA97EA98FA998AD20E030E04AE7D4
:102AA00055E40E941F02DC01CB0189AB9AABABABB2
:102AB000BCAB69A97AA98BA99CA920E030E040E8C9
:102AC0005FE30E94550488232CF481E090E098ABEA
:102AD0008FA73FC069A97AA98BA99CA920E03FEFE5
:102AE0004FE757E40E94F50318164CF56DA97EA92F
:102AF0008FA998AD20E030E040E251E40E941F022F
:102B0000DC01CB01BC01CD010E944900DC01CB01FD
:102B100098AB8FA70FC080E991E09EA78DA78DA5E8
:102B20009EA50197F1F79EA78DA78FA598A901975C
:102B300098AB8FA78FA598A9009769F7A1C069A93D
:102B40007AA98BA99CA90E944900DC01CB0198AB12
:102B50008FA78FA598A99CA78BA78BA59CA501974C
:102B6000F1F79CA78BA78CC089AD813009F07FC09D
:102B70000E94512081E890E00E946C2080E090E06B
:102B8000AAEFB4E48FA398A7A9A7BAA76FA178A5C5
:102B900089A59AA520E030E04AE755E40E941F028B
:102BA000DC01CB018BA39CA3ADA3BEA36BA17CA135
:102BB0008DA19EA120E030E040E85FE30E94550433
:102BC00088232CF481E090E09AA389A33FC06BA1F5
:102BD0007CA18DA19EA120E03FEF4FE757E40E942A
:102BE000F50318164CF56FA178A589A59AA520E0E4
:102BF00030E040E251E40E941F02DC01CB01BC0145
:102C0000CD010E944900DC01CB019AA389A30FC02A
:102C100080E991E098A38F8F8F8D98A10197F1F7AC
:102C200098A38F8F89A19AA101979AA389A389A1BB
:102C30009AA1009769F714C06BA17CA18DA19EA1F8
:102C40000E944900DC01CB019AA389A389A19AA122
:102C50009E8F8D8F8D8D9E8D0197F1F79E8F8D8F1D
:102C60000E94512080E395E00E946C2009C089AD4C
:102C7000823031F40E94512089E990E00E946C205A
:102C8000FE01E256FF4F21813281FE01E256FF4FE5
:102C9000438154818DB79EB708970FB6F8949EBFB5
:102CA0000FBE8DBFEDB7FEB73196CE01CA969183A8
:102CB000808382EB90E093838283358324835783E0
:102CC00046830E94EA298DB79EB708960FB6F894FE
:102CD0009EBF0FBE8DBFCE01CA9620E335E0B9017D
:102CE00040ED57E00E94E81889AF89AD882309F0CC
:102CF00079C00E94512087EC90E00E946C2080E017
:102D000090E0AAEFB4E4898F9A8FAB8FBC8F698D66
:102D10007A8D8B8D9C8D20E030E04AE755E40E944F
:102D20001F02DC01CB018D8B9E8BAF8BB88F6D8921
:102D30007E898F89988D20E030E040E85FE30E9433
:102D4000550488232CF481E090E09C8B8B8B3FC052
:102D50006D897E898F89988D20E03FEF4FE757E49A
:102D60000E94F50318164CF5698D7A8D8B8D9C8D1C
:102D700020E030E040E251E40E941F02DC01CB0180
:102D8000BC01CD010E944900DC01CB019C8B8B8BE7
:102D90000FC080E991E09A8B898B89899A89019784
:102DA000F1F79A8B898B8B899C8901979C8B8B8BF4
:102DB0008B899C89009769F7A1C06D897E898F896D
:102DC000988D0E944900DC01CB019C8B8B8B8B89F9
:102DD0009C89988B8F878F8598890197F1F7988BBD
:102DE0008F878CC089AD813009F07FC00E9451204F
:102DF0008EED90E00E946C2080E090E0AAEFB4E4B9
:102E00008B879C87AD87BE876B857C858D859E85EE
:102E100020E030E04AE755E40E941F02DC01CB01CC
:102E20008F839887A987BA876F81788589859A85E6
:102E300020E030E040E85FE30E94550488232CF452
:102E400081E090E09E838D833FC06F817885898586
:102E50009A8520E03FEF4FE757E40E94F5031816EC
:102E60004CF56B857C858D859E8520E030E040E2C9
:102E700051E40E941F02DC01CB01BC01CD010E9484
:102E80004900DC01CB019E838D830FC080E991E076
:102E90009C838B838B819C810197F1F79C838B832F
:102EA0008D819E8101979E838D838D819E81009768
:102EB00069F714C06F81788589859A850E944900D9
:102EC000DC01CB019E838D838D819E819A838983D2
:102ED00089819A810197F1F79A8389830E94512011
:102EE00080E395E00E946C2009C089AD823031F406
:102EF0000E94512086EF90E00E946C20CC55DF4F5D
:102F00000FB6F894DEBF0FBECDBFCF91DF9108950D
:102F1000DF93CF93CDB7DEB76D970FB6F894DEBFD2
:102F20000FBECDBF8FE091E020E335E0B90140ED69
:102F300057E00E94E8188D8F8DE191E020E335E0A5
:102F4000B90140ED57E00E94E8188D8F8D8D8823E0
:102F500009F079C00E9451208EE291E00E946C201D
:102F600080E090E0AAEFB4E4898F9A8FAB8FBC8F9A
:102F7000698D7A8D8B8D9C8D20E030E04AE755E499
:102F80000E941F02DC01CB018D8B9E8BAF8BB88F13
:102F90006D897E898F89988D20E030E040E85FE37D
:102FA0000E94550488232CF481E090E09C8B8B8B4D
:102FB0003FC06D897E898F89988D20E03FEF4FE774
:102FC00057E40E94F50318164CF5698D7A8D8B8DA8
:102FD0009C8D20E030E040E251E40E941F02DC01C1
:102FE000CB01BC01CD010E944900DC01CB019C8BCF
:102FF0008B8B0FC080E991E09A8B898B89899A89A4
:103000000197F1F79A8B898B8B899C8901979C8B0F
:103010008B8B8B899C89009769F797C06D897E8916
:103020008F89988D0E944900DC01CB019C8B8B8B92
:103030008B899C89988B8F878F8598890197F1F769
:10304000988B8F8782C08D8D813009F07EC00E9461
:10305000512081E491E00E946C2080E090E0AAEF92
:10306000B4E48B879C87AD87BE876B857C858D8517
:103070009E8520E030E04AE755E40E941F02DC0113
:10308000CB018F839887A987BA876F8178858985D7
:103090009A8520E030E040E85FE30E9455048823F1
:1030A0002CF481E090E09E838D833FC06F81788512
:1030B00089859A8520E03FEF4FE757E40E94F503AA
:1030C00018164CF56B857C858D859E8520E030E05B
:1030D00040E251E40E941F02DC01CB01BC01CD01A2
:1030E0000E944900DC01CB019E838D830FC080E9E3
:1030F00091E09C838B838B819C810197F1F79C836A
:103100008B838D819E8101979E838D838D819E818E
:10311000009769F714C06F81788589859A850E9428
:103120004900DC01CB019E838D838D819E819A8332
:10313000898389819A810197F1F79A8389830E9413
:10314000512080E395E00E946C206D960FB6F894B4
:10315000DEBF0FBECDBFCF91DF910895DF93CF9338
:1031600000D000D00F92CDB7DEB79C838B831A823C
:1031700019821EC029813A818B819C81FC01E20F5A
:10318000F31F80818F3479F489819A819C012F5FAC
:103190003F4F8B819C81FC01E20FF31F80818B34B8
:1031A00011F41D820CC089819A8101969A838983CA
:1031B00089819A8185369105ECF281E08D838D813C
:1031C0000F900F900F900F900F90CF91DF91089577
:1031D000EF92FF920F931F93DF93CF93CDB7DEB79C
:1031E0002D970FB6F894DEBF0FBECDBF98878F83A3
:1031F0007A8769875C874B8760E074E284EF90E0B0
:103200000E9431248F8198850E948A081E821D8227
:103210000E947724DC01CB0189839A83AB83BC8332
:1032200089819A81AB81BC818053984FAF4FBF4F4A
:103230007C018D010E947724DC01CB01E816F906A0
:103240000A071B0700F11AC02D813E8189859A85E6
:103250008C01020F131F0E944908F80180832D8101
:103260003E8189859A85FC01E20FF31F80818823C6
:1032700029F08D819E8101969E838D838091B60475
:10328000882311F7CDCF2D813E8189859A85FC0158
:10329000E20FF31F10828D819E81009719F4F2E0F6
:1032A000FD8705C089859A850E94AE188D878D851A
:1032B0002D960FB6F894DEBF0FBECDBFCF91DF9134
:1032C0001F910F91FF90EF900895DF93CF9300D05F
:1032D00000D000D0CDB7DEB79D838C838C819D81DB
:1032E00024E531E0B9010E9488299B838A838A8181
:1032F0009B81009799F08A819B81FC0133968081A4
:10330000805389838981882319F482E08E8307C0E2
:103310008981813019F481E08E8301C01E828E8103
:1033200026960FB6F894DEBF0FBECDBFCF91DF91CA
:103330000895DF93CF9300D00F92CDB7DEB79A8375
:1033400089830E94A507882331F089819A810E9490
:10335000D2081B8202C081E08B838B810F900F907B
:103360000F90CF91DF910895DF93CF93CDB7DEB764
:1033700040910D0350910E0360910F037091100363
:10338000809111030E947813CF91DF910895DF930C
:10339000CF93CDB7DEB7C255D0400FB6F894DEBF9D
:1033A0000FBECDBF1E8E1D8E1C8EDCC00E94081469
:1033B00008C09E01295D3F4F81E0B9010E941614AB
:1033C0008E8F8E8D8823A9F32C8D3D8D8FA198A58E
:1033D000482FCE018996FC01E20FF31F408380E065
:1033E00090E0A8ECB2E48D8B9E8BAF8BB88F6D898B
:1033F0007E898F89988D2BEA3AEA4AEA50E40E9446
:103400001F02DC01CB01898B9A8BAB8BBC8B69894A
:103410007A898B899C8920E030E040E85FE30E9454
:10342000550488231CF481E0888B91C069897A89CE
:103430008B899C8920E030E04FE753E40E94F5033C
:1034400018160CF07BC06D897E898F89988D20E0DD
:1034500030E04AE754E40E941903DC01CB018C8779
:103460009D87AE87BF876C857D858E859F8520E093
:1034700030E04AE755E40E941F02DC01CB01888757
:103480009987AA87BB87688579858A859B8520E08F
:1034900030E040E85FE30E94550488232CF481E08B
:1034A00090E09F838E833FC0688579858A859B8560
:1034B00020E03FEF4FE757E40E94F50318164CF564
:1034C0006C857D858E859F8520E030E040E251E46B
:1034D0000E941F02DC01CB01BC01CD010E9449000A
:1034E000DC01CB019F838E830FC080E991E09D8337
:1034F0008C838C819D810197F1F79D838C838E81D4
:103500009F8101979F838E838E819F81009769F7AA
:1035100024C0688579858A859B850E944900DC01E5
:10352000CB019F838E838E819F819B838A838A8137
:103530009B810197F1F79B838A830FC069897A8900
:103540008B899C890E944900DC01CB01888B88898A
:10355000898389818A95F1F789838C8D9D8D019668
:103560009D8F8C8F8C8D9D8D883291050CF41ECF94
:103570001D8E1C8E56C01B8E1A8E42C02A8D3B8D0E
:10358000CE018996FC01E20FF31F40818A8D9B8D4D
:103590009C012F5F3F4FCE018996FC01E20FF31F84
:1035A0008081841740F52A8D3B8DCE018996FC01E0
:1035B000E20FF31F8081898F4A8D5B8D8A8D9B8DF1
:1035C0009C012F5F3F4FCE018996FC01E20FF31F54
:1035D0002081CE018996FC01E40FF51F20838A8D9E
:1035E0009B8D9C012F5F3F4FCE018996FC01E20F1E
:1035F000F31F898D80838A8D9B8D01969B8F8A8F87
:1036000027E230E08A8D9B8D281B390B8A8D9B8D9C
:10361000821793070CF4B2CF8C8D9D8D01969D8FF0
:103620008C8F8C8D9D8D883291050CF4A4CF8DAD3F
:10363000282F30E08CAD882F90E0820F931F639687
:103640009FAF8EAF639763968EAD9FAD63979923BF
:103650004CF463968EAD9FAD6397019663969FAFD2
:103660008EAF639763968EAD9FAD63979595879563
:1036700098A78FA38FA198A5CC01A0E0B0E0BC01D2
:10368000CD010E943705DC01CB01BC01CD0120E05A
:1036900030E44CE950E40E941F02DC01CB018BA313
:1036A0009CA3ADA3BEA36BA17CA18DA19EA120E094
:1036B00030E849E054E40E94C503882349F480E0DF
:1036C00090E0A0E0B0E08F8F98A3A9A3BAA310C0A8
:1036D0006BA17CA18DA19EA120E030E040E251E4ED
:1036E0000E941903DC01CB018F8F98A3A9A3BAA371
:1036F0006F8D78A189A19AA10E944900DC01CB01BC
:10370000CE5ADF4F0FB6F894DEBF0FBECDBFCF91BC
:10371000DF910895DF93CF9300D00F92CDB7DEB73E
:1037200089838981282F30E03B832A838A819B818A
:1037300081309105F9F02A813B81223031052CF44A
:103740008A819B81009761F01EC02A813B812230D3
:10375000310559F08A819B818330910581F013C036
:103760008BE161E00E945A110EC08EE061E00E9480
:103770005A1109C08FE061E00E945A1104C080E133
:1037800061E00E945A110F900F900F90CF91DF913E
:103790000895DF93CF9300D00F92CDB7DEB7898322
:1037A0008981282F30E03B832A838A819B81813065
:1037B0009105F9F02A813B81223031052CF48A8170
:1037C0009B81009761F01EC02A813B812230310528
:1037D00059F08A819B818330910581F013C08BE180
:1037E00060E00E945A110EC08EE060E00E945A1103
:1037F00009C08FE060E00E945A1104C080E160E0DF
:103800000E945A110F900F900F90CF91DF91089561
:10381000DF93CF9300D00F92CDB7DEB78983898134
:10382000282F30E03B832A838A819B818130910558
:10383000E9F02A813B81223031052CF48A819B8179
:10384000009761F01AC02A813B812230310551F086
:103850008A819B818330910569F00FC08BE10E94C2
:10386000EC120BC08EE00E94EC1207C08FE00E94A9
:10387000EC1203C080E10E94EC120F900F900F90A9
:10388000CF91DF910895DF93CF93CDB7DEB740910D
:1038900008035091090360910A0370910B03809112
:1038A0000C030E947813CF91DF910895DF93CF939B
:1038B000CDB7DEB7E8970FB6F894DEBF0FBECDBF29
:1038C0001E8E1D8E1C8EE0C00E94081408C09E0132
:1038D0002D5D3F4F80E0B9010E9416148E8F8E8DB2
:1038E0008823A9F38C8D9D8D4BA15CA19C01220F97
:1038F000331FCE010196820F931FFC01B4965183B2
:10390000408380E090E0A8ECB2E48D8B9E8BAF8B7F
:10391000B88F6D897E898F89988D2BEA3AEA4AEAB9
:1039200050E40E941F02DC01CB01898B9A8BAB8B88
:10393000BC8B69897A898B899C8920E030E040E8DA
:103940005FE30E94550488231CF481E0888B91C0BA
:1039500069897A898B899C8920E030E04FE753E4BC
:103960000E94F50318160CF07BC06D897E898F8943
:10397000988D20E030E04AE754E40E941903DC010E
:10398000CB018C879D87AE87BF876C857D858E85B3
:103990009F8520E030E04AE755E40E941F02DC01E9
:1039A000CB0188879987AA87BB87688579858A85AF
:1039B0009B8520E030E040E85FE30E9455048823C7
:1039C0002CF481E090E09F838E833FC068857985E9
:1039D0008A859B8520E03FEF4FE757E40E94F5037F
:1039E00018164CF56C857D858E859F8520E030E02E
:1039F00040E251E40E941F02DC01CB01BC01CD0179
:103A00000E944900DC01CB019F838E830FC080E9B7
:103A100091E09D838C838C819D810197F1F79D833B
:103A20008C838E819F8101979F838E838E819F815E
:103A3000009769F724C0688579858A859B850E94EF
:103A40004900DC01CB019F838E838E819F819B8304
:103A50008A838A819B810197F1F79B838A830FC0B8
:103A600069897A898B899C890E944900DC01CB0194
:103A7000888B8889898389818A95F1F789838C8DE0
:103A80009D8D01969D8F8C8F8C8D9D8D8A3091059B
:103A90000CF41ACF1D8E1C8E72C01B8E1A8E5EC047
:103AA0008A8D9B8D9C01220F331FCE010196820FC0
:103AB000931FFC01B496408151818A8D9B8D0196A4
:103AC0009C01220F331FCE010196820F931FFC0130
:103AD000B4968081918184179507D8F58A8D9B8D46
:103AE0009C01220F331FCE010196820F931FFC0110
:103AF000B49680819181898F6A8D7B8D8A8D9B8D13
:103B000001969C01220F331FCE010196820F931F55
:103B1000FC01B496408151819B01220F331FCE01DD
:103B20000196820F931FFC01B496518340838A8DC6
:103B30009B8D9C012F5F3F4F898D482F50E0220FB6
:103B4000331FCE010196820F931FFC01B49651835F
:103B500040838A8D9B8D01969B8F8A8F29E030E070
:103B60008A8D9B8D281B390B8A8D9B8D821793071D
:103B70000CF496CF8C8D9D8D01969D8F8C8F8C8DA6
:103B80009D8D8A3091050CF488CF2FA538A98DA57D
:103B90009EA5820F931F969587959CA38BA38BA1BF
:103BA0009CA1CC01A0E0B0E0BC01CD010E94370592
:103BB000DC01CB01BC01CD0120E030E44CE950E454
:103BC0000E941F02DC01CB018F8F98A3A9A3BAA387
:103BD0006F8D78A189A19AA10E944900DC01CB01D7
:103BE000E8960FB6F894DEBF0FBECDBFCF91DF9140
:103BF0000895DF93CF930F92CDB7DEB78983898184
:103C00000E940B1E89818295807F0E940B1E0F905F
:103C1000CF91DF910895DF93CF93CDB7DEB7EF97C4
:103C20000FB6F894DEBF0FBECDBF8FAF8FAD982F0C
:103C3000991F9927991F88E1692F0E945A118FAD0A
:103C40008295869586958370982F917086E1692F6D
:103C50000E945A118FAD829586958770982F91702A
:103C600085E1692F0E945A118FAD82958F70982F30
:103C7000917084E1692F0E945A118CE060E00E94EB
:103C80005A1180E090E0A0E2B1E48BAF9CAFADAF01
:103C9000BEAF6BAD7CAD8DAD9EAD2BEA3AEA4AEA84
:103CA00050E40E941F02DC01CB018FAB98AFA9AF9B
:103CB000BAAF6FA978AD89AD9AAD20E030E040E8A9
:103CC0005FE30E94550488231CF481E08EAB91C011
:103CD0006FA978AD89AD9AAD20E030E04FE753E4AD
:103CE0000E94F50318160CF07BC06BAD7CAD8DAD5A
:103CF0009EAD20E030E04AE754E40E941903DC0165
:103D0000CB018AAB9BABACABBDAB6AA97BA98CA941
:103D10009DA920E030E04AE755E40E941F02DC0143
:103D2000CB018EA79FA7A8ABB9AB6EA57FA588A92D
:103D300099A920E030E040E85FE30E945504882321
:103D40002CF481E090E09DA78CA73FC06EA57FA5D5
:103D500088A999A920E03FEF4FE757E40E94F503B7
:103D600018164CF56AA97BA98CA99DA920E030E022
:103D700040E251E40E941F02DC01CB01BC01CD01F5
:103D80000E944900DC01CB019DA78CA70FC080E9F0
:103D900091E09BA78AA78AA59BA50197F1F79BA70E
:103DA0008AA78CA59DA501979DA78CA78CA59DA5ED
:103DB000009769F724C06EA57FA588A999A90E94DC
:103DC0004900DC01CB019DA78CA78CA59DA599A7D7
:103DD00088A788A599A50197F1F799A788A70FC08B
:103DE0006FA978AD89AD9AAD0E944900DC01CB0185
:103DF0008EAB8EA98FA38FA18A95F1F78FA38CE04C
:103E000061E00E945A1180E090E0A8ECB2E48BA33C
:103E10009CA3ADA3BEA36BA17CA18DA19EA12BEA07
:103E20003AEA4AEA50E40E941F02DC01CB018F8F7C
:103E300098A3A9A3BAA36F8D78A189A19AA120E024
:103E400030E040E85FE30E94550488231CF481E0E1
:103E50008E8F91C06F8D78A189A19AA120E030E06A
:103E60004FE753E40E94F50318160CF07BC06BA1DA
:103E70007CA18DA19EA120E030E04AE754E40E949D
:103E80001903DC01CB018A8F9B8FAC8FBD8F6A8DAC
:103E90007B8D8C8D9D8D20E030E04AE755E40E94BB
:103EA0001F02DC01CB018E8B9F8BA88FB98F6E898F
:103EB0007F89888D998D20E030E040E85FE30E94A3
:103EC000550488232CF481E090E09D8B8C8B3FC0BF
:103ED0006E897F89888D998D20E03FEF4FE757E409
:103EE0000E94F50318164CF56A8D7B8D8C8D9D8D87
:103EF00020E030E040E251E40E941F02DC01CB01EF
:103F0000BC01CD010E944900DC01CB019D8B8C8B53
:103F10000FC080E991E09B8B8A8B8A899B890197EE
:103F2000F1F79B8B8A8B8C899D8901979D8B8C8B5C
:103F30008C899D89009769F724C06E897F89888D57
:103F4000998D0E944900DC01CB019D8B8C8B8C8963
:103F50009D89998B888B888999890197F1F7998B2D
:103F6000888B0FC06F8D78A189A19AA10E9449000A
:103F7000DC01CB018E8F8E8D8F878F858A95F1F72F
:103F80008F878CE060E00E945A1180E090E0A0E80A
:103F9000BFE38B879C87AD87BE876B857C858D85CE
:103FA0009E8520E030E04AE755E40E941F02DC01D4
:103FB000CB018F839887A987BA876F817885898598
:103FC0009A8520E030E040E85FE30E9455048823B2
:103FD0002CF481E090E09E838D833FC06F817885D3
:103FE00089859A8520E03FEF4FE757E40E94F5036B
:103FF00018164CF56B857C858D859E8520E030E01C
:1040000040E251E40E941F02DC01CB01BC01CD0162
:104010000E944900DC01CB019E838D830FC080E9A3
:1040200091E09C838B838B819C810197F1F79C832A
:104030008B838D819E8101979E838D838D819E814F
:10404000009769F714C06F81788589859A850E94E9
:104050004900DC01CB019E838D838D819E819A83F3
:10406000898389819A810197F1F79A838983EF96F1
:104070000FB6F894DEBF0FBECDBFCF91DF9108958C
:10408000DF93CF930F92CDB7DEB789838DE060E0E9
:104090000E945A1189810E94F91D0F90CF91DF91E2
:1040A0000895DF93CF93CDB7DEB781E00E94402023
:1040B000CF91DF910895DF93CF930F92CDB7DEB705
:1040C00089838DE061E00E945A1189810E94F91D67
:1040D0000F90CF91DF910895DF93CF9300D000D060
:1040E000CDB7DEB79C838B831A82198219C02981D0
:1040F0003A818B819C81FC01E20FF31F8081882330
:10410000A1F029813A818B819C81FC01E20FF31F90
:1041100080810E945B2089819A8101969A8389839C
:1041200089819A818436910514F30F900F900F9036
:104130000F90CF91DF9108950F931F93DF93CF934B
:10414000CDB7DEB762970FB6F894DEBF0FBECDBF16
:104150006F87788B898B9A8B1C821B822FC00B8177
:104160001C818F859889A989BA892AE030E040E0CE
:1041700050E0BC01CD010E942129DC01CB01282F98
:10418000205DCE010596FC01E00FF11F20838F8595
:104190009889A989BA892AE030E040E050E0BC0162
:1041A000CD010E942129DA01C9018F87988BA98B43
:1041B000BA8B8B819C8101969C838B838F85988998
:1041C000A989BA890097A105B10549F62B813C81DF
:1041D000CE010596FC01E20FF31F10828B819C81BA
:1041E00001979A8389830FC029813A81CE01059670
:1041F000FC01E20FF31F80810E945B2089819A817C
:1042000001979A83898389819A8199236CF76296B1
:104210000FB6F894DEBF0FBECDBFCF91DF911F91D7
:104220000F9108950F931F93DF93CF93CDB7DEB710
:10423000C754D0400FB6F894DEBF0FBECDBFFE010D
:10424000ED5BFF4F80E090E0A8E4B2E480839183CF
:10425000A283B3838E01015C1F4FFE01ED5BFF4F14
:10426000608171818281938120E030E04AE755E4EA
:104270000E941F02DC01CB01F80180839183A2839D
:10428000B383FE01FF96608171818281938120E07A
:1042900030E040E85FE30E94550488232CF481E07D
:1042A00090E09EAF8DAF46C0FE01FF9660817181A8
:1042B0008281938120E03FEF4FE757E40E94F503AE
:1042C000181664F5FE01ED5BFF4F608171818281FC
:1042D000938120E030E040E251E40E941F02DC01C3
:1042E000CB01BC01CD010E944900DC01CB019EAF96
:1042F0008DAF0FC080E991E09CAF8BAF8BAD9CADD3
:104300000197F1F79CAF8BAF8DAD9EAD01979EAF3E
:104310008DAF8DAD9EAD009769F716C0FE01FF967B
:1043200060817181828193810E944900DC01CB010F
:104330009EAF8DAF8DAD9EAD9AAF89AF89AD9AAD71
:104340000197F1F79AAF89AF8CE060E00E945A11B3
:104350008DE060E00E945A1180E20E940B1E80E214
:104360000E940B1E80E30E940B1E80E090E0A0E8FC
:10437000BFE38DAB9EABAFABB8AF6DA97EA98FA9E4
:1043800098AD20E030E04AE755E40E941F02DC01CE
:10439000CB0189AB9AABABABBCAB69A97AA98BA9B2
:1043A0009CA920E030E040E85FE30E9455048823A8
:1043B0002CF481E090E098AB8FA73FC069A97AA95F
:1043C0008BA99CA920E03FEF4FE757E40E94F5033B
:1043D00018164CF56DA97EA98FA998AD20E030E0A4
:1043E00040E251E40E941F02DC01CB01BC01CD017F
:1043F0000E944900DC01CB0198AB8FA70FC080E978
:1044000091E09EA78DA78DA59EA50197F1F79EA788
:104410008DA78FA598A9019798AB8FA78FA598A96D
:10442000009769F714C069A97AA98BA99CA90E9471
:104430004900DC01CB0198AB8FA78FA598A99CA759
:104440008BA78BA59CA50197F1F79CA78BA7FE01D5
:10445000E95BFF4F1082DE01A95BBF4FFE01E95B04
:10446000FF4F808184608C93FE01E95BFF4F808168
:1044700088600E94402080E090E0A0E8BFE38FA326
:1044800098A7A9A7BAA76FA178A589A59AA520E0A2
:1044900030E04AE755E40E941F02DC01CB018BA308
:1044A0009CA3ADA3BEA36BA17CA18DA19EA120E086
:1044B00030E040E85FE30E94550488232CF481E05B
:1044C00090E09AA389A33FC06BA17CA18DA19EA17E
:1044D00020E03FEF4FE757E40E94F50318164CF534
:1044E0006FA178A589A59AA520E030E040E251E4CB
:1044F0000E941F02DC01CB01BC01CD010E944900DA
:10450000DC01CB019AA389A30FC080E991E098A3B5
:104510008F8F8F8D98A10197F1F798A38F8F89A125
:104520009AA101979AA389A389A19AA1009769F7F3
:1045300014C06BA17CA18DA19EA10E944900DC0149
:10454000CB019AA389A389A19AA19E8F8D8F8D8D6E
:104550009E8D0197F1F79E8F8D8F81E00E94402004
:1045600080E090E0A0E4B0E4898F9A8FAB8FBC8F9D
:10457000698D7A8D8B8D9C8D20E030E04AE755E483
:104580000E941F02DC01CB018D8B9E8BAF8BB88FFD
:104590006D897E898F89988D20E030E040E85FE367
:1045A0000E94550488232CF481E090E09C8B8B8B37
:1045B0003FC06D897E898F89988D20E03FEF4FE75E
:1045C00057E40E94F50318164CF5698D7A8D8B8D92
:1045D0009C8D20E030E040E251E40E941F02DC01AB
:1045E000CB01BC01CD010E944900DC01CB019C8BB9
:1045F0008B8B0FC080E991E09A8B898B89899A898E
:104600000197F1F79A8B898B8B899C8901979C8BF9
:104610008B8B8B899C89009769F714C06D897E8983
:104620008F89988D0E944900DC01CB019C8B8B8B7C
:104630008B899C89988B8F878F8598890197F1F753
:10464000988B8F8786E00E94402080E090E0A0E475
:10465000B0E48B879C87AD87BE876B857C858D8515
:104660009E8520E030E04AE755E40E941F02DC010D
:10467000CB018F839887A987BA876F8178858985D1
:104680009A8520E030E040E85FE30E9455048823EB
:104690002CF481E090E09E838D833FC06F8178850C
:1046A00089859A8520E03FEF4FE757E40E94F503A4
:1046B00018164CF56B857C858D859E8520E030E055
:1046C00040E251E40E941F02DC01CB01BC01CD019C
:1046D0000E944900DC01CB019E838D830FC080E9DD
:1046E00091E09C838B838B819C810197F1F79C8364
:1046F0008B838D819E8101979E838D838D819E8189
:10470000009769F714C06F81788589859A850E9422
:104710004900DC01CB019E838D838D819E819A832C
:10472000898389819A810197F1F79A838983C95B8B
:10473000DF4F0FB6F894DEBF0FBECDBFCF91DF9134
:104740001F910F910895DF93CF9300D000D00F9267
:10475000CDB7DEB789834A835B836C837D8389E130
:1047600061E00E945A118AE161E00E945A1188E4D6
:1047700060E245E00E940E092A813B814C815D8107
:104780008981BA01A9010E94330B0E9445090F904B
:104790000F900F900F900F90CF91DF910895DF93BE
:1047A000CF9300D000D00F92CDB7DEB789834A8374
:1047B0005B836C837D8389E160E00E945A118AE10A
:1047C00061E00E945A1188E460E245E00E940E090F
:1047D0002A813B814C815D818981BA01A9010E94B6
:1047E000330B0E9445090F900F900F900F900F9080
:1047F000CF91DF910895DF93CF93CDB7DEB78AE1F4
:1048000060E00E945A11CF91DF9108951F920F929C
:104810000FB60F9211248F939F93AF93BF93DF93A3
:10482000CF93CDB7DEB78091940590919505A09177
:104830009605B09197050196A11DB11D8093940531
:1048400090939505A0939605B0939705CF91DF912E
:10485000BF91AF919F918F910F900FBE0F901F90BE
:104860001895DF93CF93CDB7DEB728970FB6F8949E
:10487000DEBF0FBECDBF6D837E838F8398878D8112
:104880009E81AF81B88520E43FE140E050E0BC016B
:10489000CD010E94FF28DA01C90189839A83AB8385
:1048A000BC83AEE4B0E0EEE4F0E080818A608C93FB
:1048B000EBE4F0E089819A81AB81BC81892F9A2F4A
:1048C000AB2FBB278083EAE4F0E089818083A9E5F0
:1048D000B0E0E9E5F0E0808180618C9328960FB626
:1048E000F894DEBF0FBECDBFCF91DF910895DF9367
:1048F000CF9300D000D000D0CDB7DEB71E820E948B
:10490000A62489830DC08091940590919505A0916E
:104910009605B09197058A839B83AC83BD831982EA
:104920008981882381F7CE0106960E94AF248A816F
:104930009B81AC81BD81BC01CD0126960FB6F89458
:10494000DEBF0FBECDBFCF91DF910895DF93CF9330
:10495000CDB7DEB7F89481E0CF91DF910895DF9372
:10496000CF9300D0CDB7DEB79A83898378940F9028
:104970000F90CF91DF910895DF93CF93CDB7DEB73E
:104980000E940425809398050E94DC248093990559
:104990008091990580939B050E94112580939A052B
:1049A000CF91DF910895DF93CF93CDB7DEB70E940B
:1049B000431CCF91DF910895DF93CF9300D00F92E6
:1049C000CDB7DEB71B820E94561C9A8389838981EA
:1049D0009A8122E330E0B9010E94EB28CB018B835E
:1049E00094E68B81292F281B822F0F900F900F9018
:1049F000CF91DF910895DF93CF93CDB7DEB70E94BB
:104A0000B419CF91DF910895DF93CF930F92CDB773
:104A1000DEB70E94C719898389810F90CF91DF91FA
:104A20000895DF93CF9300D00F92CDB7DEB70E94E9
:104A3000C719898389818F3118F482E08B8302C082
:104A400083E08B8399818B81989F802D11248A83A9
:104A50008A81853610F084E68A838A810F900F90D0
:104A60000F90CF91DF9108950F931F93DF93CF9312
:104A7000CDB7DEB72C970FB6F894DEBF0FBECDBF13
:104A80000A831B832C833D834E835F8368877987EA
:104A90008A879B87CE01029629E731E0B9010E94FF
:104AA0007829009711F419820FC0CE0102962DE7E4
:104AB00031E0B9010E947829009719F081E08983DB
:104AC00003C082E08C8791C08981882F90E09C018F
:104AD000220F331FC901880F991F880F991F880F54
:104AE000991F821B930BFC01E750FD4F81E08083EF
:104AF000CE01029604962CE831E0B9010E94782993
:104B00000097E9F48981882F90E09C01220F331FE0
:104B1000C901880F991F880F991F880F991F821B41
:104B2000930B0A96AC0144515D4FCE0102969C0155
:104B3000295F3F4FCA01B9010E94812951C0CE01AE
:104B4000029604962FE831E0B9010E947829009777
:104B5000E9F48981882F90E09C01220F331FC9015D
:104B6000880F991F880F991F880F991F821B930B1D
:104B70000696AC0144515D4FCE0102969C01295F1F
:104B80003F4FCA01B9010E9481292AC0CE01029675
:104B9000049621E831E0B9010E9478290097E9F4F0
:104BA0008981882F90E09C01220F331FC901880F53
:104BB000991F880F991F880F991F821B930B0496CA
:104BC000AC0144515D4FCE0102969C01295F3F4FDD
:104BD000CA01B9010E94812903C088E08C8705C001
:104BE00081E08093F9028AE08C878C852C960FB641
:104BF000F894DEBF0FBECDBFCF91DF911F910F9113
:104C00000895DF93CF93CDB7DEB72E970FB6F89404
:104C1000DEBF0FBECDBF1A82198242C089819A8140
:104C20009C01220F331FC901880F991F880F991FFC
:104C3000880F991F821B930B049684519D4F23E884
:104C400031E0B9010E947829009729F589819A817C
:104C50009E878D878D859E85009731F08D859E85F9
:104C60008130910569F017C080919B05882F90E0F5
:104C700026EF32E0B9014AE050E00E94C9290BC09A
:104C800080919A05882F90E024E033E0B9014AE052
:104C900050E00E94C92989819A8101969A8389836B
:104CA00089819A81823091050CF4B8CF2E960FB687
:104CB000F894DEBF0FBECDBFCF91DF910895DF9393
:104CC000CF93CDB7DEB782EF92E025E831E0B901AE
:104CD0000E947829009721F480E00E948A1B0CC072
:104CE00082EF92E028E831E0B9010E94782900972C
:104CF00019F480E00E94C91BCF91DF910895DF93E2
:104D0000CF93CDB7DEB72B970FB6F894DEBF0FBEAB
:104D1000CDBF998788877B876A878AE08F8388855C
:104D2000998522E931E0B9010E948829998788870D
:104D30008885998527E931E0B9010E9473299E830E
:104D40008D838D819E81009709F49AC08D819E810B
:104D500022E931E0B9010E947829009709F08EC05C
:104D600027E931E080E090E0B9010E9473299E8339
:104D70008D838D819E81009751F11C821B8221C001
:104D800082E08F838B819C81880F991FFC01E55DF8
:104D9000FC4F208131818D819E81B9010E9478294B
:104DA000009751F48A859B852D813E81B9010E942F
:104DB00081298AE08F830DC08B819C8101969C8321
:104DC0008B838B819C8182309105D4F202C083E079
:104DD0008F8327E931E080E090E0B9010E947329D8
:104DE0009E838D838D819E81009759F11A8219824D
:104DF00022C088E08F8389819A81880F991FFC01E6
:104E0000E95CFC4F208131818D819E81B9010E9436
:104E10007829009759F48A859B8504962D813E81D7
:104E2000B9010E9481298AE08F830DC089819A810E
:104E300001969A83898389819A8183309105CCF286
:104E400002C089E08F8327E931E080E090E0B9017A
:104E50000E9473299E838D838D819E81009759F0D6
:104E60008A859B8507962D813E81B9010E94812903
:104E70008AE08F8307C087E08F8304C01F8202C04F
:104E800081E08F838F812B960FB6F894DEBF0FBE23
:104E9000CDBFCF91DF910895DF93CF93CDB7DEB72C
:104EA000209124033091250340912603509127033C
:104EB000609128037091290380912A030E94EC14C9
:104EC0000E948817CF91DF910895DF93CF9300D090
:104ED0000F92CDB7DEB79A83898389819A810E9428
:104EE0009919882311F41B8202C081E08B838B8186
:104EF0000F900F900F90CF91DF9108950F931F9314
:104F0000DF93CF93CDB7DEB7A6970FB6F894DEBF89
:104F10000FBECDBF8DE393E00E94ED0C0E941221E5
:104F200089E991E00E946C2078940E944C2780E0EF
:104F300090E0AAEFB4E4898F9A8FAB8FBC8F698D14
:104F40007A8D8B8D9C8D20E030E04AE755E40E94FD
:104F50001F02DC01CB018D8B9E8BAF8BB88F6D89CF
:104F60007E898F89988D20E030E040E85FE30E94E1
:104F7000550488232CF481E090E09C8B8B8B3FC000
:104F80006D897E898F89988D20E03FEF4FE757E448
:104F90000E94F50318164CF5698D7A8D8B8D9C8DCA
:104FA00020E030E040E251E40E941F02DC01CB012E
:104FB000BC01CD010E944900DC01CB019C8B8B8B95
:104FC0000FC080E991E09A8B898B89899A89019732
:104FD000F1F79A8B898B8B899C8901979C8B8B8BA2
:104FE0008B899C89009769F714C06D897E898F89A8
:104FF000988D0E944900DC01CB019C8B8B8B8B89A7
:105000009C89988B8F878F8598890197F1F7988B6A
:105010008F870E9451208EE991E00E946C2080E3EE
:1050200095E00E9465278823D1F70E9451208FEADE
:1050300091E00E946C2082E340EA56E861E070E073
:105040000E94A32380E090E0AAE7B4E48B879C87CA
:10505000AD87BE876B857C858D859E8520E030E0A1
:105060004AE755E40E941F02DC01CB018F83988739
:10507000A987BA876F81788589859A8520E030E095
:1050800040E85FE30E94550488232CF481E090E01F
:105090009E838D833FC06F81788589859A8520E0C6
:1050A0003FEF4FE757E40E94F50318164CF56B8568
:1050B0007C858D859E8520E030E040E251E40E94B1
:1050C0001F02DC01CB01BC01CD010E944900DC01C3
:1050D000CB019E838D830FC080E991E09C838B83FD
:1050E0008B819C810197F1F79C838B838D819E81BD
:1050F00001979E838D838D819E81009769F714C0EF
:105100006F81788589859A850E944900DC01CB01F1
:105110009E838D838D819E819A83898389819A81E3
:105120000197F1F79A8389830E9451200E94FB2303
:1051300080E395E09E01235E3F4FB9010E947F26E8
:105140008DEB91E00E946C20CE014D9607960E9457
:105150006C200D8D1E8D2F8D38A149A15AA16BA1F8
:105160007CA18DA19EA10E94342587EC91E00E9434
:105170006C2082EF92E00E946C200E945F264FCF4D
:10518000629FD001739FF001829FE00DF11D649F2B
:10519000E00DF11D929FF00D839FF00D749FF00DB7
:1051A000659FF00D9927729FB00DE11DF91F639F58
:1051B000B00DE11DF91FBD01CF0111240895991B08
:1051C00079E004C0991F961708F0961B881F7A95FE
:1051D000C9F780950895AA1BBB1B51E107C0AA1F00
:1051E000BB1FA617B70710F0A61BB70B881F991F88
:1051F0005A95A9F780959095BC01CD010895A1E23B
:105200001A2EAA1BBB1BFD010DC0AA1FBB1FEE1F40
:10521000FF1FA217B307E407F50720F0A21BB30B8B
:10522000E40BF50B661F771F881F991F1A9469F707
:1052300060957095809590959B01AC01BD01CF0163
:10524000089597FB092E05260ED057FD04D0D7DF11
:105250000AD0001C38F450954095309521953F4F69
:105260004F4F5F4F0895F6F7909580957095619533
:105270007F4F8F4F9F4F08952F923F924F925F9293
:105280006F927F928F929F92AF92BF92CF92DF9256
:10529000EF92FF920F931F93CF93DF93CDB7DEB7BB
:1052A000CA1BDB0B0FB6F894DEBF0FBECDBF09944F
:1052B0002A88398848885F846E847D848C849B84A6
:1052C000AA84B984C884DF80EE80FD800C811B81B4
:1052D000AA81B981CE0FD11D0FB6F894DEBF0FBEE3
:1052E000CDBFED01089542EB54E00E94A22908953C
:1052F000FB01DC018D91019080190110D9F3990B0C
:105300000895FB01DC0101900D920020E1F7089562
:10531000FB0151915523A9F0BF01DC014D914517C7
:105320004111E1F759F4CD010190002049F04D9170
:1053300040154111C9F3FB014111EFCF81E090E02D
:1053400001970895FA01A191B081009719F410977F
:10535000E1F0CD01DC01CD010D90002011F4C00180
:1053600013C0FB012191222319F02015D9F7F3CFA7
:10537000FB012191201519F41E92119606C02223DB
:10538000C1F70D900020A1F7D001FA01A193B083DD
:105390000895FB019F01E8944230C4F04532B4F413
:1053A0004A3029F497FB1EF4909581959F4F642F06
:1053B00077270E94EB28805D8A330CF0895D81930A
:1053C000CB010097A1F716F45DE251931082C90159
:1053D0000C94012CAEE0B0E0E0EFF9E20C944A2925
:1053E0000D891E8986E08C831A8309838FEF9FE7DE
:1053F0009E838D839E01275E3F4FCE0101966F896C
:10540000788DA9010E940E2A2F813885020F131F63
:10541000F80110822E96E4E00C946629ABE0B0E02F
:10542000E4E1FAE20C943C293C012B015A01FC0115
:1054300017821682838181FD03C06FEF7FEFC6C1A3
:105440009AE0892E1E010894211C311CF30123814E
:10545000F20123FD859123FF81912F01882309F417
:10546000B2C1853239F423FD859123FF81912F014B
:10547000853229F490E0B3010E94112CE7CF982FD8
:10548000FF24EE249924FFE1FF15D0F09B3269F050
:105490009C3228F4903259F0933291F40EC09D3230
:1054A00049F0903369F441E024C052E0F52A84E0E9
:1054B000F82A28C098E0F92A25C0E0E1FE2A22C097
:1054C000F7FC29C0892F80538A3070F4F6FE05C09E
:1054D000989C902C1124980E15C0E89CE02C112467
:1054E000E80EF0E2FF2A0EC09E3229F4F6FC6BC1F2
:1054F00040E4F42A07C09C3619F450E8F52A02C0AB
:10550000983649F4F20123FD959123FF91912F01E3
:10551000992309F0B8CF892F8554833018F0805231
:10552000833038F444E050E0A40EB51E5FE35983A5
:105530000FC0933631F0933779F0933509F056C0A8
:1055400020C0F5018081898342E050E0A40EB51EA1
:10555000610101E010E012C0F501C080D180F6FCCD
:1055600003C06FEF7FEF02C0692D70E042E050E0B2
:10557000A40EB51EC6010E94F62B8C015FE7F52232
:1055800014C0F501C080D180F6FC03C06FEF7FEF3F
:1055900002C0692D70E042E050E0A40EB51EC601C5
:1055A0000E94EB2B8C0150E8F52AF3FE07C01AC0CD
:1055B00080E290E0B3010E94112CEA948E2D90E0DD
:1055C00008171907A8F30EC0F601F7FC8591F7FE3E
:1055D00081916F0190E0B3010E94112CE110EA94D7
:1055E000015010400115110579F7EAC0943611F009
:1055F000993669F5F7FE08C0F501208131814281B5
:10560000538184E090E00AC0F501808191819C0182
:10561000442737FD4095542F82E090E0A80EB91E34
:105620009FE6F92257FF09C0509540953095219586
:105630003F4F4F4F5F4FE0E8FE2ACA01B901A10179
:105640002AE030E00E943D2CD82ED21840C0953779
:1056500029F41F2D1F7E2AE030E01DC01F2D197F69
:105660009F3661F0903720F4983509F0ACC00FC038
:10567000903739F0983709F0A6C004C028E030E030
:105680000AC0106114FD146020E130E004C014FD74
:10569000166020E132E017FF08C0F50160817181DA
:1056A0008281938144E050E008C0F50180819181BE
:1056B000BC0180E090E042E050E0A40EB51EA101E4
:1056C0000E943D2CD82ED2188FE7F82EF122F6FE3C
:1056D0000BC05EEFF522D91438F4F4FE07C0F2FCDB
:1056E00005C08FEEF82202C01D2D01C0192DF4FE59
:1056F0000DC0FE01ED0DF11D8081803319F499EE8E
:10570000F92208C01F5FF2FE05C003C08F2D867806
:1057100009F01F5F0F2DF3FC14C0F0FE0FC01E1523
:1057200010F09D2C0BC09D2C9E0C911A1E2D06C0B6
:1057300080E290E0B3010E94112C1F5F1E15C0F3A0
:1057400004C01E1510F4E11A01C0EE2404FF0FC0BE
:1057500080E390E0B3010E94112C02FF1DC001FD07
:1057600003C088E790E00EC088E590E00BC0802F72
:10577000867891F001FF02C08BE201C080E2F7FC65
:105780008DE290E0B3010E94112C06C080E390E00E
:10579000B3010E94112C9A94D914C0F3DA94F10148
:1057A000ED0DF11D808190E0B3010E94112CDD20F0
:1057B000A9F706C080E290E0B3010E94112CEA94A0
:1057C000EE20C1F743CEF30166817781CB012B96A2
:1057D000E2E10C945829FC010590615070400110E1
:1057E000D8F7809590958E0F9F1F0895FC0161500A
:1057F000704001900110D8F7809590958E0F9F1FF3
:105800000895DC01FC01672F71917723E1F732974E
:1058100004C07C916D9370836291AE17BF07C8F38B
:1058200008950F931F93CF93DF938C01EB018B812E
:1058300081FF1BC082FF0DC02E813F818C819D8125
:105840002817390764F4E881F9810193F983E88323
:1058500006C0E885F985802F0995892B31F48E8162
:105860009F8101969F838E8302C00FEF1FEFC801B7
:10587000DF91CF911F910F910895FA01AA27283047
:1058800051F1203181F1E8946F936E7F6E5F7F4F0D
:105890008F4F9F4FAF4FB1E03ED0B4E03CD0670F89
:1058A000781F891F9A1FA11D680F791F8A1F911DDC
:1058B000A11D6A0F711D811D911DA11D20D009F42C
:1058C00068943F912AE0269F11243019305D31936E
:1058D000DEF6CF010895462F4770405D4193B3E057
:1058E0000FD0C9F7F6CF462F4F70405D4A3318F0FE
:1058F000495D31FD4052419302D0A9F7EACFB4E0AF
:10590000A6959795879577956795BA95C9F7009766
:105910006105710508959B01AC010A2E0694579507
:10592000479537952795BA95C9F7620F731F841F5E
:0A593000951FA01D0895F894FFCF05
:10593A0041542B43574D4F44453D25640D0A0057AA
:10594A00494649206D6F64652075706461746564A9
:10595A000057494649206D6F64652075706461740B
:10596A0065206572726F72210057494649206D6F32
:10597A006465207570646174652074696D656F75FE
:10598A00740041542B43574A41503D222573222C1F
:10599A00222573220D0A0057494649205353494488
:1059AA00205061737320757064617465640057498F
:1059BA0046492053534944207570646174652065D3
:1059CA0072726F7221005749464920535349442045
:1059DA007570646174652074696D656F75740041D2
:1059EA00542B4349504D55583D310D0A0041542B13
:1059FA004349505345525645523D310D0A005443CE
:105A0A00502073657276657220737461727465646E
:105A1A000054435020736572766572206661696C22
:105A2A006564210052454C00736D617274686F6D34
:105A3A0065003132333435363738003139322E3158
:105A4A0036382E312E313030004C45440046414E16
:105A5A00004D0041004F4E004F464600415600445B
:105A6A00560048454144002C007465737400776100
:105A7A006974696E67206E65772075736572006E4A
:105A8A00657720636F6D6D616E64202100636F6DB1
:105A9A006D616E643A20007374727563743A200003
:105AAA0000000000000000000001020203030303DB
:105ABA000404040404040404050505050505050594
:105ACA000505050505050505060606060606060674
